:040000008031132810
:100008007E14803120007F08F1008B1A0B1D0E280A
:100018008F31762771082000FF007E10090080319B
:100028001528FA01FB0120308400003085002B30B0
:100038008E31CC268031B4308400003085000F30FA
:100048008E31CC268031203084000130850040304C
:100058008E31CC268031623084008F308500A0300C
:1000680086000030870014308E31C6267E102000AE
:100078008231212A00302000A7000030A60000307D
:10008800A5000030A4003F307B05F2007208F400A0
:100098003C08F300740DF40CF30C7308A400740806
:1000A800A500890D893B8909A600A700FB1BA51699
:1000B800FB1FB628B501B50A0030F2004030F30046
:1000C8000030F4000030F5002409F6002509F70097
:1000D8002609F8002709F900F60A0319F70A03198F
:1000E800F80A0319F90A7608F2077708F33D780841
:1000F800F43D7908F53D7508A7007408A600730853
:10010800A5007208A4002408F2002508F3002608B8
:10011800F4002708F5000330F536F40CF30CF20C64
:10012800890B90287308B1007208B00024080739B9
:10013800F2007208B40004303402031CA72801300E
:10014800F2007208B407033034060319AF280830E8
:100158003406031D0800301C08000130F200720844
:10016800B4070800B5012408F2002508F3002608A2
:10017800F4002708F5000330F536F40CF30CF20C04
:10018800890BC0287308B1007208B0002408073929
:10019800F2007208B40004303402031CD72801307E
:1001A800F2007208B407043034060319DF28083057
:1001B8003406031D0800301C08000130F2007208E4
:1001C800B40708002000D3013108D5003008D40056
:1001D8000030F200F3000430F4000030F50047303E
:1001E8008731B32780312000540855040319672943
:1001F80001302000D2005208D3070A30CB0000306B
:10020800CC005508CE005408CD008531AD2580318D
:1002180020004C08D5004B08D400F7286430CB00E8
:100228000030CC003108CE003008CD008531AD2536
:10023800803120004C0885004B088400003084077A
:100248009030853D0008D2005208C7000A30CB0024
:100258000030CC003108F5003008F4006430F200BA
:100268000030F30086317626803173082000CE00F6
:100278007208CD008531AD25803120004C088500FD
:100288004B088400003084079030853D0008D20078
:100298005208C8000A30F2000030F3003108F500B7
:1002A8003008F4008631762680317308850072089C
:1002B8008400003084079030853D00082000D2007B
:1002C8005208C90072295308013A03194E29033A02
:1002D80003192A29013A0319122972293503031926
:1002E800C7153408003E840090300318013E85008D
:1002F80000080838D2005208CA004730F70000301A
:10030800F8000430D2005208F90000308531E225A7
:10031800080021003B082000DE0021003A082000E8
:10032800DD00210039082000DC0021003808200009
:10033800DB00BC308331602381310A30F2000030A9
:10034800F30021003E082000D800D9015808F40025
:100358005908F5008331C423813173088500720878
:100368008400003084079030853D00082000DA00C2
:100378005A08DB000A30F2000030F30021003E0882
:100388002000D800D9015808F4005908F500843134
:10039800F5248131730885007208840000308407D1
:1003A8009030853D00082000DA005A08DC000A3049
:1003B800F2000030F30021003D082000D800D901E8
:1003C8005808F4005908F5008331C42381317308B3
:1003D800850072088400003084079030853D00084D
:1003E8002000DA005A08DD000A30F2000030F3007D
:1003F80021003D082000D800D9015808F400590808
:10040800F5008431F5248131730885007208840071
:10041800003084079030853D00082000DA005A0833
:10042800DE005B30F7000030F8000430D8005808D0
:10043800F90000308531E2250800AA308600003036
:100448008700C3308400003085000A302000E100B6
:1004580016001A00E10B2C2A2100CD01CE01CF0194
:100468008F313D2782313D302000E300E130E2004A
:100478007A30E100E10B3E2AE20B3E2AE30B3E2AEA
:10048800003220008D1A4B2A22000C154D2A22001A
:100498000C118C118231FC22823121008D1587319B
:1004A8009827823152308F318B27823128308F3113
:1004B8008B27823102308F318B27823106308F3182
:1004C8008B2782311130F7009030F800043020007B
:1004D800E1006108F90000308531E2258231200011
:1004E800B6018B170B170B308731CD278231730874
:1004F8002100CF007208CE0001304F02E13003190D
:100508004E0203188A2A22000C11892A86311726DE
:1005180082318431AE248231772AF800F901F90A50
:100528008F31E7278231D030843162248231F7005D
:100538007708F9007908031D0800780884316224D7
:100548008231F7007708F9007908031D08008F3118
:10055800E7278231D130843162248231F70077086D
:10056800F9007908031D080002307602031CDE2A10
:100578008631A2268231F700750886008701770840
:10058800810022008D100D30F700F70BC92A2200D8
:100598000D140D30F700F70BCF2A22000D100D3087
:1005A800F700F70BD52A0130F7007708F507013077
:1005B800F602B82A8631A2268231F700750886002D
:1005C80087017708810022008D140D30F700F70BA2
:1005D800EB2A22000D140D30F700F70BF12A220048
:1005E8000D100D30F700F70BF72A8731E7270800C1
:1005F8001530F5007508FA000F30F5007508200071
:10060800BA050730F5007508BA04BD017A08F50087
:100618007508F30080308E31EF26823120003A08C9
:10062800F5007508F30081308E31EF268231200005
:100638003D08F5007508F30082308E31EF268231CF
:100648007F30F5007508F30083308E31EF26823154
:10065800C030F5007508F30084308E31EF26823102
:100668007F30F5007508F30085308E31EF26823132
:10067800FF30F5007508F30086308E31EF268231A1
:100688008030F5007508F30087308E31EF2682310F
:10069800F30188308E31EF268231F30189308E31B3
:1006A800EF268231F3018A308E31EF268231F30151
:1006B8008B308E31EF2608002000D7004D30CB005C
:1006C8004B08F5000730CC004C08F60000308231AA
:1006D8009122833120004D087F398F314F27833194
:1006E8002000CB005708860087014B0881004E0880
:1006F8007F398F314F2783312000CB00570A86007E
:1007080087014B0881004F083F398F314F278331CC
:100718002000CB005708023E860087014B08810065
:1007280050088F314F2783312000CB005708033EF4
:10073800860087014B08810051088F314F2783318C
:100748002000CB005708043E860087014B08810033
:1007580052088F314F2783312000CB005708053EC0
:10076800860087014B08810053088F314F272000EE
:10077800CB005708063E860087014B088100080019
:100788002000CC01F31FCF2BF209F309F20A031959
:10079800F30ACC01CC0AF51FDA2BF409F509F40A9F
:1007A8000319F50A0130F6007608CC06CD01CE0112
:1007B800720873040319092CCB01CB0AF31BEE2B27
:1007C8000130F235F30D890BE52B0130F600760880
:1007D800CB07E22B0130CD35CE0D890BEF2B7308FB
:1007E8007502031DF92B72087402031C002C720891
:1007F800F4027308F53B4D140130F336F20C890B03
:10080800012C0130CB02031DEE2B4C080319112CCF
:10081800CD09CE09CD0A0319CE0A4E08F3004D08BA
:10082800F2000800F800F9017308031908007808B5
:10083800031D442C492C7408031D2D2C79087807B6
:10084800F50075088600870101088E31DA268431A3
:10085800402C79087807F50075088600870101089B
:100868008E31DA268431F60079087407F7007708A4
:1008780086008701760881000130F5007508F907C0
:1008880073087902031808001F2C7408031908005C
:10089800730879020318080000308E31DA26843193
:1008A800F50079087407F600760886008701750850
:1008B80081000130F5007508F9074C2CF300F401AC
:1008C800083074020318892CF31F6D2C22008D1434
:1008D8006F2C22008D100D30F200F20B712C2200CB
:1008E8000D140D30F200F20B772C0310F30D2200DB
:1008F8000D100D30F200F20B7F2C0130F20072085F
:10090800F40708307402031C682C22008D140D3083
:10091800F200F20B8D2C22000D140D30F200F20BB8
:10092800932C21008D1420008D1C9E2C21008D10ED
:100938000130080021008D1022000D100D30F2004A
:10094800F20BA42C22008D100D30F200F20BAA2C11
:10095800003008002000E001B2018631F52684311C
:100968002000DF005F08E000600803190800EB2C96
:10097800033032020318C22C8D1EBC2C0330320205
:10098800031CCD2C22000C118C1504308F318B27C1
:10099800843120008D1A0800CD2C03303202031850
:1009A800D72C8C1FD12C03303202031CDF2C1030C3
:1009B80022008C06E72C05302000DF005F08B60017
:1009C80086311726843120008C1B0800E72C60082C
:1009D800013A0319BC2C033A0319D12CF42C080052
:1009E8000800F801F51FFF2CF409F509F40A0319AA
:1009F800F50AF801F80AF31F062DF209F309F20ABD
:100A08000319F30A7208730403192D2DF701F70A65
:100A1800F31B182D0130F235F30D890B0F2D013022
:100A2800F6007608F7070C2D73087502031D1E2DB6
:100A380072087402031C242D7208F4027308F53B33
:100A48000130F336F20C890B252D0130F702031D16
:100A5800182D78080319352DF409F509F40A031936
:100A6800F50A7508F3007408F20008002000CB00AE
:100A7800CD01CD0A8F31E7278531D030843162240A
:100A88008531F70077082000CD004D08031D0800C8
:100A98004B08843162248531F70077082000CD00A7
:100AA8004D08031D0800CC0176084C020318722D6E
:100AB8004C087507F700770886008701010884311C
:100AC80062248531F80078082000CD004D08031D08
:100AD80008000130F7007708CC07582D8731E72741
:100AE800080040308F31CF2785312000B3018D1D9C
:100AF800812D03303302031C7B2D03303302031C8A
:100B0800882DBE01BE0A08003F30D0005008CB0037
:100B18000630D1005108CC000A308F31B7272000A9
:100B28003F08D0005008B8004008D0005008B9006D
:100B38004108D0005008FB004208D0005008BC0013
:100B48004308D0005008BB004408D0005008BE003D
:100B580008002000D001D1014B084C040319DD2DF9
:100B6800CF01CF0ACC1BC22D0130CB35CC0D890B60
:100B7800B92D0130F8007808CF07B62D0130D035EF
:100B8800D10D890BC32D4C084E02031DCD2D4B08EA
:100B98004D02031CD42D4B08CD024C08CE3B5014FB
:100BA8000130CC36CB0C890BD52D0130CF02031D7B
:100BB800C22D5108CC005008CB0008002000CC0002
:100BC80022000E1003302000CB004B08F200A030AA
:100BD80087315A27853106302000CB004B08F200B8
:100BE8004C0887315A2785312000CD0179084D02FC
:100BF8000318142E0830CB004B08F2007708840045
:100C080078088500000887313A27853101302000AF
:100C1800CB004B08CD070130F7070030F83DFA2D1F
:100C280022000E140800372E01308631CC2686317A
:100C380022008C140C140C1085317525080087319E
:100C48007A27080002308631CC26863122000C141F
:100C58008C148C1085317525080087317A27080097
:100C680081318D21080020003608003A0319182E1A
:100C7800013A0319232E033A0319262E013A0319C0
:100C8800312E063A0319342E492E08002100370860
:100C98002000D200210036082000D10021003508AC
:100CA8002000D000210034082000CF00103084003C
:100CB800903085000008CE004E08D0000C3084002B
:100CC800903085000008CE004E08D1004F30F70064
:100CD8000030F8000430CE004E08F90000308531AD
:100CE800E22508007208730403199D2EF701F70A1C
:100CF800F31B882E0130F235F30D890B7F2E01305E
:100D0800F6007608F7077C2E73087502031D8E2EF1
:100D180072087402031C942E7208F4027308F53BDF
:100D28000130F336F20C890B952E0130F702031DC2
:100D3800882E7508F3007408F2000800F3012200F9
:100D48008D14F401083074020318CA2E0310F30D31
:100D580022000D140D30F200F20BB02E21008D147C
:100D680020008D1CBA2E21008D10731421008D10C7
:100D780022000D100D30F200F20BC02E0130F200EF
:100D88007208F40708307402031CAB2E73080800BD
:100D98002000D3002308D2002208D1002108D00067
:100DA8002008CF0000308400903085000008CE0075
:100DB8004E08D0005308003E840090300318013ECE
:100DC80085000008CE004E08D1004F30F7000030F3
:100DD800F8000430CE004E08F90000308531E225D5
:100DE8000800FF30F2007208F40020008C1FFE2E6D
:100DF8008D1A162F3430F300F130F200F20B022F67
:100E0800F30B022F003220008C1F0C2F8D1A162F87
:100E18008D1A102FF401F40A8C1B162F0230F200E1
:100E28007208F400740808007B3022008C008030BF
:100E380021008C0023008C0122008D01FC30210050
:100E48008D00103023008D002C3024008D000730D9
:100E580022008E00D03021008E0023008E01240055
:100E680090012100951322009D010800F500F6016C
:100E780072087602031808007518452F22000E1113
:100E8800472F22000E158E100630F4003030F30084
:100E9800F30B4C2FF40B4C2F000022008E14031080
:100EA800F50C0130F3007308F6073C2FF500F60146
:100EB8007208760203180800F51B652F22000E1130
:100EC800672F22000E158E100630F4003030F30024
:100ED800F30B6C2FF40B6C2F000022008E14031000
:100EE800F50D0130F3007308F6075C2F20003E086B
:100EF800031D842F80313E2087318031E620080091
:100F080086314A268731FF302000D6005608F30084
:100F180082308E31EF2687318F310B278731F301ED
:100F280082308E31EF260800A0308600003087001E
:100F380050308400003085000A302000CE001600B2
:100F48001A00CE0BA32F5030CE004E08F500073004
:100F5800CF004F08F600003085313A250800F70029
:100F68007708F6007608F8000130F4020030F53B07
:100F7800740A0319750A031908007208F60078083C
:100F880086008701760881000130F6007608F807A8
:100F9800B82FF5007508F400F40DF40D21001D08B4
:100FA8007406833974069D001D140630F400F40B92
:100FB800DB2F000021009D149D18E02F1C08F30072
:100FC8001B08F200080022000D100D30F200F20B91
:100FD800EB2F22008D100D30F200F20BF12F2200C2
:100FE8000D140D30F200F20BF72F22008D140D3086
:080FF800F200F20BFD2F0800CE
:101D76007830210099009A0108002400940130303F
:101D8600950092010800FE0012001E00FE0BC72EF1
:101D96000034640080010131890BCD2E00340130FE
:101DA60021009D00E0309E009B019C010800F2008E
:101DB6002400951372089100141CDF2E11080800E8
:101DC600483023009F0080309D0026309E00A030C2
:101DD6009B0001309C000800F40022008C1274085D
:101DE6008E31DA268E3173088E31DA2622008C1671
:101DF600080021001508C039173895006430200006
:101E060095006430F2007208E4000B118B1608008E
:101E160000308F311B278F31F6007608FA00FA144E
:101E26007A08F6007608F30080308E31EF26080037
:101E3600F40022008C1274088E31DA268F31FF30BE
:101E46008E31DA26F3007308F50022008C16750829
:101E56000800F500F401751C342F7208F3007308AE
:101E6600F4070310F20D0310F50C7508031D2E2F51
:101E7600740808008E31BB268F31873118278F31C1
:101E86008E31C0268F318E31E3268F318E31D226A8
:101E96008F318E31FC260800F9000F307905F600E7
:101EA6000A30F7007708F2007908F8000430F836AF
:101EB600890B5A2F78088F312C27760708000134B2
:101EC60040341434023404340734163400340034F5
:101ED6000034013401340134013401340134013455
:101EE6000134013401340B112000640895000130DF
:101EF600AE070030AF3D00302F02643003192E02CA
:101F0600031C08008F31A0272000AE01AF01080096
:101F1600F80022000E100430F7007708F200803037
:101F260087315A278F310830F7007708F200780892
:101F360087315A2722000E1408000130F00070087D
:101F46002000B607043036060319AD2F09303602D5
:101F5600031CAE2FB6010130F0007008B207013045
:101F6600F0007008B30708002000CF0022008C1292
:101F760020004F088E31DA268F3120004C08CD0024
:101F86004D08F3004B08CE004E08F40000308431B3
:101F9600162422008C160800F70000308F311B270C
:101FA6008F31F6007608FA003F30F6007608FA051B
:101FB6007708F6007608FA047A08F6007608F30041
:101FC60080308E31EF26080022008D140D30F2008D
:101FD600F20BEB2F22000D140D30F200F20BF12F55
:101FE60022008D100D30F200F20BF72F22000D109B
:101FF6000D30F200F20BFD2F0800D7345034B53403
:10200600F1347234E334E7345134F734F33477344B
:10201600E6348734F434A734273457342034203454
:04202600203420340E
:020000040001F9
:04000E00E4FFFFDF2D
:00000001FF
