:040000008031132810
:100008007E14803120007F08F2008B1A0B1D0E2809
:100018008931722172082000FF007E1009008031AA
:100028001528F801F901FA016530840000308500CF
:100038000930883119208031A030840000308500D3
:100048004530883119208031203084000130850006
:10005800403088311920803138308400883085005C
:10006800E5308600003087000A30883113207E1082
:1000780020008331A92B2000D801D901DC01DD0142
:10008800D601D701DA01DB010030E8000030E700D3
:100098000030E6000030E5003F3021003F05200039
:1000A800D2005208D400210041082000D300540D8A
:1000B800D40CD30C5308E5005408E600890D893B9D
:1000C8008909E700E8002100BF1F6C282000E61618
:1000D80020006608DD006508DC006D03031D0129AA
:1000E8006B03031D01296A08D7006908D600203070
:1000F8005D065C0403198228013083280030D20091
:10010800D30169085205D4006A085305D500D51AE9
:10011800D328EA1E9C286909D2006A09D300D20AAA
:100128000319D30A5208003EE9004030533DEA0063
:10013800DD1EAB285C09D2005D09D300D20A031981
:10014800D30A5208003EDC004030533DDD005D0814
:100158006A02031DB1285C0869020318BF286909EF
:10016800D2006A09D300D20A0319D30A5C085207DD
:10017800D8005D08CA285C09D2005D09D300D20AFC
:100188000319D30A69085207D8006A08533DD900F1
:1001980000305902053003195802031CFC2882312B
:1001A8000B2280312000D200D3015208DA00530814
:1001B800DB005B1421003403031DE42820005B15D9
:1001C8002000DB165B08B7005A08B6008B31FB230A
:1001D800803120006608B7006508B6008B31FB2324
:1001E80080312100B60120006608EA006508FF2872
:1001F8005708EA005608E900912903306D06031DE7
:1002080091296B03031D91297908D7007808D60036
:1002180020305D065C0403191329013014290030CD
:10022800D200D30178085205D40079085305D500C7
:10023800D51A6429F91E2D297809D2007909D30025
:10024800D20A0319D30A5208003EF8004030533D41
:10025800F900DD1E3C295C09D2005D09D300D20AF1
:100268000319D30A5208003EDC004030533DDD003C
:100278005D087902031D42295C0878020318502999
:100288007809D2007909D300D20A0319D30A5C0885
:100298005207D8005D085B295C09D2005D09D300CC
:1002A800D20A0319D30A78085207D8007908533DAF
:1002B800D90000305902053003195802031C8D2952
:1002C80082310B2280312000D200D3015208DA009B
:1002D8005308DB00DB1421003503031D75292000BA
:1002E800DB152000DB165B08B7005A08B6008B3117
:1002F800FB23803120006608B7006508B6008B3103
:10030800FB2380312100B70120006608F900650849
:1003180090295708F9005608F8006608DD006508B6
:10032800DC002100BF1FD829BA01BA0A20005C09E5
:10033800D2005D09D300D20A0319D30A5208003E3D
:10034800DC004030533DDD005D08D3005C08D2007E
:10035800D336D20CD336D20CD336D20C5208210065
:10036800B200200053082100B30020005C080739C0
:10037800D2005208EC0004306C02031CC72901307B
:10038800D2005208EC0703306C060319CF29083055
:100398006C06031D08002100321C080001302000F3
:1003A800D2005208EC0708002100BA0120005D08BD
:1003B800D3005C08D200D336D20CD336D20CD33655
:1003C800D20C52082100B200200053082100B300CB
:1003D80020005C080739D2005208EC0004306C0297
:1003E800031CFA290130D2005208EC0704306C06CD
:1003F8000319022A08306C06031D08002100321C6C
:10040800080001302000D2005208EC070800003034
:100418002000C9000030C8000030C7000030C60006
:100428000030CD000030CC000030CB000030CA00D6
:100438000030D1000030D0000030CF000030CE00B6
:10044800DA308F319C27823120006D03031DE02AAA
:1004580021005E085006031DE92A21005A082000E1
:10046800BC00BD0121005C082000BE00BF013E08A1
:10047800F3003F08F4001030F5000E30F6008A3122
:100488000022823173082000C0007408C1002100D6
:100498005B082000C200C3014208F3004308F400CF
:1004A8003C30F5000030F6008A31002282317308B2
:1004B80020004007C4007408413DC5003C084407BB
:1004C800CA003D08453DCB00CC01CB1BCC034C08F2
:1004D800CD0021004C082000BC00BD0121004E08C1
:1004E8002000BE00BF013E08F3003F08F4001030B2
:1004F800F5000E30F6008A310022823173082000A0
:10050800C0007408C10021004D082000C200C301CA
:100518004208F3004308F4003C30F5000030F600D0
:100528008A3100228231730820004007C400740811
:10053800413DC5003C084407CE003D08453DCF007D
:10054800D001CF1BD0035008D1004A08BC004B088B
:10055800BD004C08BE004D08BF004E09C0004F0941
:10056800C1005009C2005109C300C00A0319C10AD9
:100578000319C20A0319C30A4008BC074108BD3D54
:100588004208BE3D4308BF3D3F08C9003E08C800B9
:100598003D08C7003C08C600CC3086008701DA3029
:1005A8008400850107302000BC0012001E00BC0B2F
:1005B800D92A20004608080003306D06031DA72B22
:1005C80021005E0857060319F82A8B31032382316C
:1005D8008B313223823187316A2782312100B6017B
:1005E800B7012000ED01A72B21005A082000BC000C
:1005F800BD0121005C082000BE00BF013E08F300D9
:100608003F08F4001030F5000E30F6008A31002261
:10061800823173082000C0007408C10021005B0803
:100628002000C200C3014208F3004308F4003C3034
:10063800F5000030F6008A3100228231730820006C
:100648004007C4007408413DC5003C084407CA007F
:100658003D08453DCB00CC01CB1BCC034C08CD005D
:10066800210053082000BC00BD01210055082000CE
:10067800BE00BF013E08F3003F08F4001030F5004B
:100688000E30F6008A310022823173082000C00043
:100698007408C100210054082000C200C3014208A8
:1006A800F3004308F4003C30F5000030F6008A31CE
:1006B80000228231730820004007C4007408413DBD
:1006C800C5003C084407CE003D08453DCF00D00199
:1006D800CF1BD0035008D1004A08BC004B08BD000E
:1006E8004C08BE004D08BF004E09C0004F09C100AC
:1006F8005009C2005109C300C00A0319C10A0319ED
:10070800C20A0319C30A4008BC074108BD3D420894
:10071800BE3D4308BF3D3F08C9003E08C8003D082C
:10072800C7003C08C600D33086008701DA30840051
:10073800850107302000BC0012001E00BC0BA02B56
:10074800200046080800003008002200E501E60104
:10075800E701E301E401210017109714171197111D
:100768001716971264008831B120833110302200A7
:10077800E2003930E1001B30E000E00BC12BE10B57
:10078800C12BE20BC12B003220008D1ACE2B220088
:100798000C15D02B22000C118C11E601E701E501A4
:1007A800103065020318EB2B0B308831DD208331C4
:1007B800220066087307E6006708743DE700013009
:1007C800E0006008E50710306502031CD82B660EB0
:1007D8000F39E600670EF039E604670E0F39E700B7
:1007E800033067022030031966020318FE2B0C1130
:1007F8006400FC2B2200E501E601E70121008D15CC
:100808008C316824833152308831C62083312830B6
:100818008831C620833102308831C62083310630C2
:100828008831C620833111302000A0009030A1000B
:1008380004302200E00060082000A20000308B3164
:10084800922383312000ED01EB012100B601B701AD
:100858002000E901EA01F801F9012100B401B5011C
:100868002200E601E70100302100AE002030AF0091
:100878008E31E52683316400210017148B170B177E
:100888000B308831DD208331220066087307E600CB
:100898006708743DE7000130E0006008E5071030A4
:1008A8006506031D6E2CE501660E0F39E600670E1E
:1008B800F039E604670E0F39E7000330670220308D
:1008C8000319660203186B2C0C116400692C2200B2
:1008D800E601E7018C3131248331853143258331A9
:1008E8008F31392783318A311E228331442C2000ED
:1008F800AA01210033082000AC00210032082000A2
:10090800AB000030F300F4000430F5000030F600CE
:10091800E13089318D21843120002B082C04031902
:100928000F2D01302000A9002908AA070A30A100CC
:100938000030A2002C08A4002B08A3008B31C6238A
:10094800843120002208AC002108AB00902C6430D0
:10095800A1000030A200210033082000A4002100DB
:1009680032082000A3008B31C623843120002208DE
:10097800850021088400003084079030853D0008F8
:10098800A90029082100E1000A302000A100003058
:10099800A20021003308F6003208F5006430F300A5
:1009A8000030F4008A31D622843174082000A40073
:1009B8007308A3008B31C6238431200022088500E8
:1009C80021088400003084079030853D0008A90084
:1009D80029082100E2000A30F3000030F400210069
:1009E8003308F6003208F5008A31D62284317408BB
:1009F800850073088400003084079030853D082DF9
:100A0800003084009030850000082000A9002908E3
:100A18002100E3001E2D20002A08003A0319042DA6
:100A2800013A0319EF2C033A0319C82C013A0319A8
:100A3800AB2C1E2D21003A03031D282D2030200049
:100A4800A90029082100E10020006C08003E84006C
:100A580090300318013E850000080838A9002908CD
:100A68002100E400E1302000A0000030A1000430A3
:100A7800A9002908A20000308B3192230800200029
:100A8800E2012100B8018731DC2785312000DF0031
:100A98005F08E20062080319080022008C11200098
:100AA8006B03031DDF2D22000C12DF2D64000330C1
:100AB800210038020318632D20008D1E5A2D0330A3
:100AC80021003802031C702D22000C118C150430F3
:100AD8008831C6208531A12D171000302000E30091
:100AE8002030E40023306402E8300319630203185D
:100AF8009E2D6408F4006308F30089310D218531C7
:100B080074082000E1007308E000610888311F20A4
:100B180085312000600888311F2085310130200090
:100B2800E3070030E43D23306402E8300319630230
:100B3800031C7D2D21001714640020008D1A080065
:100B48006400A12D64000330210038020318AF2D82
:100B580020008C1FA62D033021003802031CD22D43
:100B680020006B08031DCB2D8831072085318B3180
:100B78003223853187316A2785312100B601B701D3
:100B88002000E901EA01F801F901ED01DA2D9731B8
:100B9800F62785318B3103238531DA2D0530200086
:100BA800DF005F08ED008C313124853120008C1B7B
:100BB80008006400DA2D20006208013A03195B2D51
:100BC800033A0319A72DE92D0800080021002B0876
:100BD8002000B60021002A082000B50021002908BD
:100BE8002000B400210028082000B300DA308F313B
:100BF8009C2785310A30F3000030F40021005C089E
:100C08002000B000B1013008F5003108F6008E313F
:100C180093268531740885007308840000308407A2
:100C28009030853D00082000B2003208B300B315AB
:100C38000A30F3000030F40021005C082000B00006
:100C4800B1013008F5003108F6008D3119258531DC
:100C58007408850073088400003084079030853D4F
:100C680000082000B2003208B4000A30F300003057
:100C7800F40021005B082000B000B1013008F50045
:100C88003108F6008E319326853174088500730883
:100C98008400003084079030853D00082000B200B1
:100CA8003208B5000A30F3000030F40021005B0878
:100CB8002000B000B1013008F5003108F6008D3190
:100CC800192585317408850073088400003084076D
:100CD8009030853D00082000B2003208B60033305D
:100CE800A0000030A1000430B0003008A20000309D
:100CF8008B31922308002000A100A201A20A8931A9
:100D080026218631D0308D31A92586312000A000DA
:100D18002008A2002208031D080021088D31A925FA
:100D280086312000A0002008A2002208031D080028
:100D3800893126218631D1308D31A925863120008F
:100D4800A0002008A2002208031D08000230770234
:100D5800031CD52E8A31802286312000A000760817
:100D6800860087012008810022008D1003302000B2
:100D7800A000A00BBD2E22000D1403302000A000FF
:100D8800A00BC42E22000D1003302000A000A00BE1
:100D9800CB2E01302000A0002008F6070130F70212
:100DA800AA2E8A31802286312000A000760886008B
:100DB80087012008810022008D1403302000A00044
:100DC800A00BE42E22000D1403302000A000A00B7D
:100DD800EB2E22000D1003302000A000A00BF22EF5
:100DE80089313F210800E03020002005A8003F306D
:100DF8002105A90000308B1B0130AA002908210613
:100E0800031D082F28082006031D08008B1321083E
:100E1800F4002008F3008931A82186312300151336
:100E2800151595162000AB0120302B020318612FF1
:100E380020082300910020002108230092002000B0
:100E48002B08A400A501A435A50D240822078600B7
:100E58002508233D870001082300930020002B0864
:100E6800A400A501A435A50D24082207860025089D
:100E7800233D8700403FA600413FA70027082300E5
:100E880094001F3020002B06031D4C2F23009512C1
:100E9800553023009600AA309600951400000000F3
:100EA80001302000A0070030A13D0130A400240833
:100EB800AB0720302B02031C1C2F23001511200028
:100EC8002A0C031C8B1303188B170800DA308F3198
:100ED8009C278731CC3086008701DA308400850171
:100EE80007302000BA0012001E00BA0B772FD3304B
:100EF80086008701DA308400850107302000BA00B7
:100F080012001E00BA0B842F210060082000BA00CE
:100F1800BB013A08B6003B08B7008B31FB23873189
:100F280021005F082000BA00BB013A08B6003B0860
:100F3800B7008B31FB23873121005E082000BA00FF
:100F4800BB013A08B6003B08B7008B31FB23873159
:100F580021005C082000BA00BB013A08B6003B0833
:100F6800B7008B31FB23873121005B082000BA00D2
:100F7800BB013A08B6003B08B7008B31FB23873129
:100F880021005A082000BA00BB013A08B6003B0805
:100F9800B7008B31FB23873121005D082000BA00A0
:100FA800BB013A08B6003B08B7008B31FB230800A9
:100FB800FF30F3007308F50020008C1FE52F8D1A11
:100FC800FD2F0D30F400FB30F300F30BE92FF40B89
:100FD800E92F003220008C1FF32F8D1AFD2F8D1A58
:100FE800F72FF501F50A8C1BFD2F0230F30073086B
:060FF800F5007508080079
:101002000130F00070082100B80708002000EB0151
:10101200EB0A22000C1208002400940130309500E3
:1010220092010800FE0012001E00FE0B142800347C
:10103200640080010131890B1A280034F30020007A
:10104200111E2028730823009A0008000130210095
:101052009D00C3309E009B019C010800F300240008
:10106200951373089100141C3428110808000134E8
:101072004434103402341834073416340034003443
:101082000034483023009F0080309D0026309E00AF
:1010920067309B009C010800F50022008C12750845
:1010A20088312F208831740888312F2022008C1635
:1010B2000800003088317A208831F7007708FA007A
:1010C200FA147A08F7007708F400803088314D204E
:1010D200080021001508C03917389500D9302000C2
:1010E2009500D930F30073082100EF000B118B1625
:1010F2000800F50022008C12750888312F208831F3
:10110200FF3088312F20F4007408F60022008C167C
:1011120076080800F600F501761C93287308F4009F
:101122007408F5070310F30D0310F60C7608031D7F
:101132008D2875080800F7000F3077052000A00001
:101142000A30A1002108F3007708A2000430A23679
:10115200890BA828220888318B202000200708004C
:101162009731FB2788318A315E22883188310D2000
:10117200883188314220883188312720883197315F
:10118200F227883188316A2008002000A00022005E
:101192000E100430F7007708F30080308931C42143
:1011A20088310830F7007708F300200020088931E1
:1011B200C42122000E140800F6007608F500F50D91
:1011C200F50D21001D087506833975069D001D1455
:1011D20000320032000021009D149D18EE281C08E8
:1011E200F4001B08F30008002000A70022008C1264
:1011F2002000270888312F20883120002408A500EC
:101202002508F4002308A6002608F50000308E31D8
:10121200422622008C16080000308B1B0130F5009C
:101222008B13730823009100740892001513151490
:1012320000000000750C031C8B1303188B1723008E
:101242001408F4001308F300080022008D14033080
:10125200F300F30B2A2922000D140330F300F30BE1
:10126200302922008D100330F300F30B36292200BF
:101272000D100330F300F30B3C29080022000D107F
:101282000330F300F30B432922008D100330F300E7
:10129200F30B492922000D140330F300F30B4F29FD
:1012A20022008D140330F300F30B552908002000AF
:1012B200A000003088317A208931F7007708FA00DF
:1012C2003F30F7007708FA0520002008F70077087A
:1012D200FA047A08F7007708F400803088314D204C
:1012E20008000B1121006F08200095000130F10069
:1012F20071082100B9070130AC070030AD3D003064
:101302002D02643003192C02031C080088310120CD
:101312002100AC01AD0108002000A0002008F70068
:101322007708A1000130F5020030F63B750A031977
:10133200760A031908007308F7002108860087015E
:10134200770881000130F7007708A1079329003060
:101352008B1B0130F5008B13730823009100740876
:10136200920015131516151555309600AA309600E1
:1013720095140000000023001511750C031C8B133B
:1013820003188B170800F500F6017308760203189C
:101392000800F51BCF2922000E11D12922000E15BB
:1013A2008E10F930F4000000F40BD4290032000052
:1013B20022008E140310F50D0130F4007408F607B4
:1013C200C629F500F601730876020318080075189D
:1013D200ED2922000E11EF2922000E158E10F93090
:1013E200F4000000F40BF2290032000022008E14F7
:1013F2000310F50C0130F4007408F607E42920000C
:10140200A001A101731C0A2A75082000A007760812
:10141200A13D0130F535F60D890B0B2A0130F4366A
:10142200F30C890B102A73087404031D032A20008D
:101432002108F4002008F300080022008C150C1685
:101442000C148C140E140E150C178E140D148D140E
:10145200630020006D080319322A02306D06031D55
:101462003A2A22008C1120006B03031D3A2A220023
:101472000C128A313D2208000130F300730820006B
:10148200ED0704306D0603194A2A0D306D02031C64
:101492004B2AED010130F30073082100B6078330B7
:1014A20036020318B6010130F3007308B707833020
:1014B2003702031C0800B70108007B3022008C00B1
:1014C200803021008C0023008C0122008D01FC3031
:1014D20021008D00103023008D002C3024008D005F
:1014E200073022008E00D03021008E0023008E01B2
:1014F200240090012100951322009D010800F401AF
:1015020022008D14F501083075020318A82A031071
:10151200F40D22000D140330F300F30B8E2A210088
:101522008D1420008D1C982A21008D107414210026
:101532008D1022000D100330F300F30B9E2A0130B0
:10154200F3007308F50708307502031C892A740832
:101552000800210027082000A900210026082000F9
:10156200A800210025082000A7002100240820004F
:10157200A60010308400903085000008A5002508E0
:10158200A7000C308400903085000008A5002508D3
:10159200A8002630A0000030A1000430A5002508D4
:1015A200A20000308B3192230800730874040319DF
:1015B200FE2A2000A001A00AF41BE92A0130F3351B
:1015C200F40D890BE02A0130F7007708A007DD2A25
:1015D20074087602031DEF2A73087502031CF52AAC
:1015E2007308F5027408F63B0130F436F30C890BEC
:1015F200F62A0130A002031DE92A7608F4007508D4
:10160200F300080021002F082000AD0021002E0861
:101612002000AC002030AE000130AF005530B000E9
:101622005530B1008D31F5258B3101302100AE07E7
:101632000030AF3D2F082000AD0021002E08200011
:10164200AC002030AE000130AF005530B000553054
:10165200B1008D31F52501302100AE070030AF3DDC
:10166200080021002F082000AD0021002E082000D4
:10167200AC002030AE000130AF00AA30B000AA307A
:10168200B1008D31F5258B3101302100AE070030DC
:10169200AF3D2F082000AD0021002E082000AC0035
:1016A2002030AE000130AF00AA30B000AA30B10045
:1016B2008D31F52501302100AE070030AF3D080025
:1016C2002000AA00210023082000A90021002208EE
:1016D2002000A800210021082000A70021002008E6
:1016E2002000A60000308400903085000008A5008C
:1016F2002508A7002A08003E840090300318013E06
:1017020085000008A5002508A8002630A0000030AA
:10171200A1000430A5002508A20000308B319223DD
:1017220008002000A30022000E100330F700770803
:10173200F300A0308931C4218B310630F7007708DD
:10174200F300200023088931C4218B312000A40139
:10175200220824020318C32B0830F7007708F3008D
:10176200200884002108850000088931E2218B319C
:101772000130F70077082000A4070130A0070030ED
:10178200A13DA92B22000E1408002000A701A801E8
:10179200210822040319F62BA601A60AA21BDB2BA1
:1017A2000130A135A20D890BD22B0130A5002508ED
:1017B200A607CF2B0130A735A80D890BDC2B2208F9
:1017C2002402031DE62B21082302031CED2B210812
:1017D200A3022208A43B27140130A236A10C890BD4
:1017E200EE2B0130A602031DDB2B2808A2002708DE
:1017F200A1000800FF3020003605B8003F30370551
:10180200B900380A3F3003193906031D192C21008B
:101812002F082000AD0021002E082000AC0020304F
:10182200AE000130AF00FE30B0003F30B100292CD5
:1018320021002F082000AD0021002E082000AC005E
:101842002030AE000130AF003708B1003608B000DA
:101852008D31F52501302100AE070030AF3D080083
:10186200552C01308B3161238C3122008C140C14E5
:101872000C108D315F2522000C1408008C31DC2401
:10188200080002308B3161238C3122000C148C143D
:101892008C108D315F2522008C1408008C31DC24E1
:1018A20008008531EA25080020006D08003A031976
:1018B200322C013A03193F2C033A0319422C013A04
:1018C20003194F2C063A0319522C672C0800E530F5
:1018D20086000030870038308400003085000A30EE
:1018E2002000B60016001A00B60B732CFF30F3006E
:1018F2001F30F40089310D218C31730A3F300319F6
:101902007406031D080038302000B6003608F600C1
:101912000730B7003708F70000308C31A1248C3132
:10192200FF302000AC001F30AD003830AE00003078
:10193200AF000130B0000030B1008D31F525080054
:101942002000A200A401A40A893126218C31D030C2
:101952008D31A9258C312000A0002008A400240884
:10196200031D080022088D31A9258C312000A0001A
:101972002008A4002408031D0800A30177082302FD
:101982000318D92C23087607A000200886008701B7
:1019920001088D31A9258C312000A1002108A40065
:1019A2002408031D08000130A0002008A307BF2C53
:1019B20089313F21080021004308031DF52C8031A5
:1019C2003F208C3184317B248C3120006D03031D38
:1019D200ED2C2100B4010800033020006D06031D28
:1019E20008002100B501080020006D03031DFD2C35
:1019F2002100B401B40A052D033020006D06031D39
:101A0200052D2100B501B50A8A31AA228C31FF3099
:101A12002000DE005E08F400823088314D208C31D7
:101A220088315A208C31F401823088314D200800EF
:101A32002000A101F61F242DF509F609F50A031964
:101A4200F60AA101A10AF41F2B2DF309F409F30AE6
:101A52000319F40A730874040319522DA001A00A91
:101A6200F41B3D2D0130F335F40D890B342D01307B
:101A7200F7007708A007312D74087602031D432D65
:101A820073087502031C492D7308F5027408F63BAE
:101A92000130F436F30C890B4A2D0130A002031DEC
:101AA2003D2D210803195A2DF509F609F50A0319E6
:101AB200F60A7608F4007508F30008004030893110
:101AC20058218D312100B901672D640020008D1D40
:101AD2006F2D1F3021003902031C662D1F3021009B
:101AE2003902031C772DC301C30A0800C430200049
:101AF200A8002808A3000630A9002908A4000A307B
:101B02008831F520210044082000A800280821007F
:101B1200BC0045082000A80028082100BD00460896
:101B22002000A80028082100BF0047082000A800C4
:101B320028082100C10048082000A8002808210028
:101B4200C00049082000A80028082100C30008009E
:101B5200F400F501083075020318D02DF41FB42DDE
:101B620022008D14B62D22008D100330F300F30BEA
:101B7200B82D22000D140330F300F30BBE2D031019
:101B8200F40D22000D100330F300F30BC62D0130CB
:101B9200F3007308F50708307502031CAF2D22000D
:101BA2008D140330F300F30BD42D22000D140330F7
:101BB200F300F30BDA2D21008D1420008D1CE52D8E
:101BC20021008D100130080021008D1022000D101F
:101BD2000330F300F30BEB2D22008D100330F300E2
:101BE200F30BF12D00300800E03020002C05B3008B
:101BF2003F302D05B4002C081F39F6007608B200DC
:101C0200B501203035020318282E35083307F300BA
:101C120034080318340AF40089310D218D31200073
:101C22003508F600F701F635F70D76082E0786001F
:101C320077082F3D87007308C03F7408C13F013009
:101C4200F6007608B50720303502031C062E32084E
:101C5200F600F701F635F70D76082E0786007708AD
:101C62002F3D87003008C03F3108C13F3408A10032
:101C72003308A0002F08A3002E08A2008631F72601
:101C82000800F600F7017408031908007608031D1E
:101C9200742E792E7508031D5A2E770876072000B8
:101CA200A000200886008701010888312F208E318C
:101CB2006F2E770876072000A00020088600870193
:101CC200010888312F208E312000A1007708750786
:101CD200A20022088600870121088100013020002D
:101CE200A0002008F70774087702031808004B2E9B
:101CF20075080319080074087702031808000030F9
:101D020088312F208E312000A00077087507A100AE
:101D1200210886008701200881000130A0002008E8
:101D2200F7077C2E2000A101F41F9E2EF309F4096F
:101D3200F30A0319F40AA101A10AF61FA92EF50953
:101D4200F609F50A0319F60A0130F7007708A10629
:101D5200A201A301730874040319D82EA001A00ADA
:101D6200F41BBD2E0130F335F40D890BB42E013076
:101D7200F7007708A007B12E0130A235A30D890B19
:101D8200BE2E74087602031DC82E73087502031C4A
:101D9200CF2E7308F5027408F63B22140130F43694
:101DA200F30C890BD02E0130A002031DBD2E210899
:101DB2000319E02EA209A309A20A0319A30A230800
:101DC200F4002208F30008002000BA01BB01B801A8
:101DD200B901B7010030BA002030BB0040303B02ED
:101DE200003003193A02031808003B08F4003A08CD
:101DF200F30089310D218E3174082000B900730877
:101E0200B80055303806153003193906031D0E2F58
:101E12000130B6003608B707332F380A3F300319AE
:101E22003906031D202F02303702031C202F3B08E6
:101E32002100AF0020003A082100AE000800200077
:101E4200380A3F3003193906031D312F3B082100A0
:101E5200AF0020003A082100AE008B3103230800B6
:101E62002000B70101302000BA070030BB3DEF2E41
:101E72002000D401D5016D03031D6B2F6B03031DDD
:101E82006B2F793021003602031C080082310B22AD
:101E92008F312000D200D3015208D4005308D5005C
:101EA200551421003403031D582F2000551520001E
:101EB20055165508B7005408B6008B31FB238F31F5
:101EC20020006A08B7006908B6008B31FB232100A5
:101ED200B6010800033020006D06031D08006B03E5
:101EE200031D0800793021003702031C08008231EB
:101EF2000B228F312000D200D3015208D4005308A4
:101F0200D500D51421003503031D892F2000D515D6
:101F1200200055165508B7005408B6008B31FB2334
:101F22008F3179082000B7007808B6008B31FB2387
:101F32002100B70108002000AF002530A3002308CC
:101F4200F6000730A4002408F700003086317F260F
:101F52008F31200025087F3988319C208F31200065
:101F6200A3002F08860087012308810026087F39F5
:101F720088319C208F312000A3002F0A8600870120
:101F82002308810027083F3988319C208F312000A7
:101F9200A3002F08023E860087012308810028083B
:101FA20088319C208F312000A3002F08033E860039
:101FB200870123088100290888319C208F31200065
:101FC200A3002F08043E86008701230881002A0807
:101FD20088319C208F312000A3002F08053E860007
:101FE2008701230881002B0888319C202000A30050
:101FF2002F08063E86008701230881000800D73497
:102002005034B534F1347234E334E7345134F734B4
:10201200F3347734E6348734F434A734273457342E
:08202200203420342034203466
:102FE40082302200970008002000EB0122000C161A
:0C2FF40008006830210099009A010800D4
:020000040001F9
:04000E00ECFFFFDF25
:00000001FF
