:040000008031132810
:100008007E14803120007F08F2008B1A0B1D0E2809
:100018008931B02172082000FF007E10090080316C
:100028001528F801F901FA016530840000308500CF
:100038000930883157208031A03084000030850095
:1000480045308831572080312030840001308500C8
:1000580040308831572080317630840088308500E0
:10006800E5308600003087000A30883151207E1044
:1000780020008331A92B2000D501D601D901DA014E
:10008800D301D401D701D8010030E8000030E700DF
:100098000030E6000030E5003F3021003F05200039
:1000A800CF004F08D100210041082000D000510D99
:1000B800D10CD00C5008E5005108E600890D893BA9
:1000C8008909E700E8002100BF1F6C282000E61618
:1000D80020006608DA006508D9006D03031D0129B0
:1000E8006B03031D01296A08D4006908D300203076
:1000F8005A06590403198228013083280030CF009A
:10010800D00169084F05D1006A085005D200D21AFB
:10011800D328EA1E9C286909CF006A09D000CF0AB3
:100128000319D00A4F08003EE9004030503DEA006C
:10013800DA1EAB285909CF005A09D000CF0A031993
:10014800D00A4F08003ED9004030503DDA005A0826
:100158006A02031DB128590869020318BF286909F2
:10016800CF006A09D000CF0A0319D00A59084F07EF
:10017800D5005A08CA285909CF005A09D000CF0A11
:100188000319D00A69084F07D5006A08503DD60000
:1001980000305602053003195502031CFC28823131
:1001A8000B2280312000CF00D0014F08D700500823
:1001B800D800581421003403031DE42820005815E2
:1001C8002000D8165808B4005708B3008C3177249B
:1001D800803120006608B4006508B3008C317724AC
:1001E80080312100B60120006608EA006508FF2872
:1001F8005408EA005308E900912903306D06031DED
:1002080091296B03031D91297908D4007808D3003C
:1002180020305A06590403191329013014290030D3
:10022800CF00D00178084F05D10079085005D200D9
:10023800D21A6429F91E2D297809CF007909D0002E
:10024800CF0A0319D00A4F08003EF8004030503D4D
:10025800F900DA1E3C295909CF005A09D000CF0A03
:100268000319D00A4F08003ED9004030503DDA004B
:100278005A087902031D422959087802031850299F
:100288007809CF007909D000CF0A0319D00A590894
:100298004F07D5005A085B295909CF005A09D000E1
:1002A800CF0A0319D00A78084F07D5007908503DBE
:1002B800D60000305602053003195502031C8D295B
:1002C80082310B2280312000CF00D0014F08D700A7
:1002D8005008D800D81421003503031D75292000C3
:1002E800D8152000D8165808B4005708B3008C3128
:1002F8007724803120006608B4006508B3008C318B
:10030800772480312100B70120006608F9006508CC
:1003180090295408F9005308F8006608DA006508BF
:10032800D9002100BF1FD829BA01BA0A20005909EB
:10033800CF005A09D000CF0A0319D00A4F08003E4F
:10034800D9004030503DDA005A08D0005908CF0093
:10035800D036CF0CD036CF0CD036CF0C4F0821007A
:10036800B200200050082100B300200059080739C6
:10037800CF004F08EC0004306C02031CC729013081
:10038800CF004F08EC0703306C060319CF2908305B
:100398006C06031D08002100321C080001302000F3
:1003A800CF004F08EC0708002100BA0120005A08C6
:1003B800D0005908CF00D036CF0CD036CF0CD0366D
:1003C800CF0C4F082100B200200050082100B300D4
:1003D800200059080739CF004F08EC0004306C02A0
:1003E800031CFA290130CF004F08EC0704306C06D3
:1003F8000319022A08306C06031D08002100321C6C
:10040800080001302000CF004F08EC07080000303A
:100418002000C6000030C5000030C4000030C30012
:100428000030CA000030C9000030C8000030C700E2
:100438000030CE000030CD000030CC000030CB00C2
:10044800DA308F319C27823120006D03031DE02AAA
:1004580021005E085006031DE92A21005A082000E1
:10046800B900BA0121005C082000BB00BC013B08B0
:10047800F3003C08F4001030F5000E30F6008A3125
:100488005922823173082000BD007408BE00210083
:100498005B082000BF00C0013F08F3004008F400DB
:1004A8003C30F5000030F6008A3159228231730859
:1004B80020003D07C10074083E3DC20039084107CD
:1004C800C7003A08423DC800C901C81BC90349080A
:1004D800CA0021004C082000B900BA0121004E08CA
:1004E8002000BB00BC013B08F3003C08F4001030BE
:1004F800F5000E30F6008A31592282317308200047
:10050800BD007408BE0021004D082000BF00C001D6
:100518003F08F3004008F4003C30F5000030F600D6
:100528008A3159228231730820003D07C1007408BE
:100538003E3DC20039084107CB003A08423DCC0095
:10054800CD01CC1BCD034D08CE004708B9004808A3
:10055800BA004908BB004A08BC004B09BD004C0959
:10056800BE004D09BF004E09C000BD0A0319BE0AEE
:100578000319BF0A0319C00A3D08B9073E08BA3D66
:100588003F08BB3D4008BC3D3C08C6003B08C500D1
:100598003A08C4003908C300CC3086008701DA3035
:1005A8008400850107302000B90012001E00B90B35
:1005B800D92A20004308080003306D06031DA72B25
:1005C80021005E0857060319F82A8B317F238231F0
:1005D8008B31AE2382318631E72682312100B60184
:1005E800B7012000ED01A72B21005A082000B9000F
:1005F800BA0121005C082000BB00BC013B08F300E5
:100608003C08F4001030F5000E30F6008A3159220B
:10061800823173082000BD007408BE0021005B0809
:100628002000BF00C0013F08F3004008F4003C3040
:10063800F5000030F6008A31592282317308200013
:100648003D07C10074083E3DC20039084107C70094
:100658003A08423DC800C901C81BC9034908CA0075
:10066800210053082000B900BA01210055082000D4
:10067800BB00BC013B08F3003C08F4001030F50057
:100688000E30F6008A315922823173082000BD00ED
:100698007408BE00210054082000BF00C0013F08B4
:1006A800F3004008F4003C30F5000030F6008A31D1
:1006B80059228231730820003D07C10074083E3D6D
:1006C800C20039084107CB003A08423DCC00CD01B1
:1006D800CC1BCD034D08CE004708B9004808BA0026
:1006E8004908BB004A08BC004B09BD004C09BE00C4
:1006F8004D09BF004E09C000BD0A0319BE0A0319FF
:10070800BF0A0319C00A3D08B9073E08BA3D3F08A9
:10071800BB3D4008BC3D3C08C6003B08C5003A0844
:10072800C4003908C300D33086008701DA3084005A
:10073800850107302000B90012001E00B90BA02B5C
:10074800200043080800003008002200E201E3010D
:10075800E401E001E1012100171097141711971126
:100768001716971264008831EF208331103020006B
:10077800E4003930E3001B30E200E20BC12BE30B4D
:10078800C12BE40BC12B003220008D1ACE2B220086
:100798000C15D02B22000C118C11E301E401E201AD
:1007A800103062020318ED2B0B3089311B21833185
:1007B800220063087307E3006408743DE400013015
:1007C8002000E20062082200E20710306202031CE7
:1007D800D82B630E0F39E300640EF039E304640E7E
:1007E8000F39E40003306402203003196302031850
:1007F800002C0C116400FE2B2200E201E301E4014D
:1008080021008D158931CB21833152308931042162
:100818008331283089310421833102308931042120
:100828008331063089310421833111302000A00042
:100838009030A1000430E2006208A20000308C3140
:100848000E2483312000ED01EB012100B601B70130
:100858002000E901EA01F801F9012100B401B5011C
:100868002200E301E40100302100AE002030AF0097
:100878008E31E52683316400210017148B170B177E
:100888000B3089311B218331220063087307E30091
:100898006408743DE40001302000E2006208220090
:1008A800E20710306206031D702CE201630E0F3957
:1008B800E300640EF039E304640E0F39E4000330FA
:1008C800640220300319630203186D2C0C116400B4
:1008D8006B2C2200E301E4018C31AD248331853196
:1008E800452583318F31392783318A317722833106
:1008F800442C2000AA01210033082000AC0021006C
:1009080032082000AB000030F300F4000430F5009A
:100918000030F600E1308931E621843120002B08CF
:100928002C040319112D01302000A9002908AA0759
:100938000A30A1000030A2002C08A4002B08A30054
:100948008C314224843120002208AC002108AB00FD
:10095800922C6430A1000030A2002100330820004E
:10096800A400210032082000A3008C3142248431E5
:100978002000220885002108840000308407903078
:10098800853D0008A90029082100E1000A3020005F
:10099800A1000030A20021003308F6003208F5005B
:1009A8006430F3000030F4008B3152238431740832
:1009B8002000A4007308A3008C3142248431200055
:1009C8002208850021088400003084079030853D86
:1009D8000008A90029082100E2000A30F3000030CD
:1009E800F40021003308F6003208F5008B31522359
:1009F80084317408850073088400003084079030BF
:100A0800853D0A2D003084009030850000082000C4
:100A1800A90029082100E300202D20002A08003A17
:100A28000319062D013A0319F12C033A0319CA2CAC
:100A3800013A0319AD2C202D21003A03031D2A2D5C
:100A480020302000A90029082100E10020006C08BE
:100A5800003E840090300318013E850000080838E5
:100A6800A90029082100E400E1302000A00000309E
:100A7800A1000430A9002908A20000308C310E24FE
:100A880008002000DF012100B8018A31D922853110
:100A98002000DC005C08DF005F0803190800D02D87
:100AA800640003302100380203185D2D20008D1EDC
:100AB800542D033021003802031C6A2D22000C112A
:100AC8008C150430893104218531932D00302000A4
:100AD800E0002030E10023306102E83003196002B1
:100AE8000318932D6108F4006008F30089317D2113
:100AF800853174082000DE007308DD005E08883147
:100B08005D20853120005D0888315D2085316400D5
:100B180001302000E0070030E13D6F2D6400200027
:100B28008D1A0800922D6400033021003802031842
:100B3800A02D20008C1F972D033021003802031CA4
:100B4800C32D20006B08031DBC2D8831452085313D
:100B58008B31AE2385318631E72685312100B601F8
:100B6800B7012000E901EA01F801F901ED01CB2DF7
:100B78008831352085318B317F238531CB2D053068
:100B88002000DC005C08ED008C31AD2485312000AC
:100B98008C1B08006400CB2D5F08013A0319552D02
:100BA800033A0319982DD92D0800080021002B08B5
:100BB8002000B60021002A082000B50021002908DD
:100BC8002000B400210028082000B300DA308F315B
:100BD8009C2785310A30F3000030F40021005C08BE
:100BE8002000B000B1013008F5003108F6008E3160
:100BF80093268531740885007308840000308407C3
:100C08009030853D00082000B2003208B300B315CB
:100C18000A30F3000030F40021005C082000B00026
:100C2800B1013008F5003108F6008D3166258531AF
:100C38007408850073088400003084079030853D6F
:100C480000082000B2003208B4000A30F300003077
:100C5800F40021005B082000B000B1013008F50065
:100C68003108F6008E3193268531740885007308A3
:100C78008400003084079030853D00082000B200D1
:100C88003208B5000A30F3000030F40021005B0898
:100C98002000B000B1013008F5003108F6008D31B0
:100CA8006625853174088500730884000030840740
:100CB8009030853D00082000B2003208B60033307D
:100CC800A0000030A1000430B0003008A2000030BD
:100CD8008C310E2408002000A100A201A20A89314B
:100CE8004B218631D0308D31F62586312000A00089
:100CF8002008A2002208031D080021088D31F625CE
:100D080086312000A0002008A2002208031D080048
:100D180089314B218631D1308D31F625863120003D
:100D2800A0002008A2002208031D08000230770254
:100D3800031CC52E8A31FC2286312000A0007608CB
:100D4800860087012008810022008D1003302000D2
:100D5800A000A00BAD2E22000D1403302000A0002F
:100D6800A00BB42E22000D1003302000A000A00B11
:100D7800BB2E01302000A0002008F6070130F70242
:100D88009A2E8A31FC2286312000A000760886003F
:100D980087012008810022008D1403302000A00064
:100DA800A00BD42E22000D1403302000A000A00BAD
:100DB800DB2E22000D1003302000A000A00BE22E35
:100DC800893164210800DA308F319C278631CC3094
:100DD80086008701DA308400850107302000B700DB
:100DE80012001E00B70BF42ED33086008701DA30CC
:100DF8008400850107302000B70012001E00B70BE1
:100E0800012F210060082000B700B8013708B3009F
:100E18003808B4008C317724863121005F0820001F
:100E2800B700B8013708B3003808B4008C3177240C
:100E3800863121005E082000B700B8013708B300EA
:100E48003808B4008C317724863121005C082000F2
:100E5800B700B8013708B3003808B4008C317724DC
:100E6800863121005B082000B700B8013708B300BD
:100E78003808B4008C317724863121005A082000C4
:100E8800B700B8013708B3003808B4008C317724AC
:100E9800863121005D082000B700B8013708B3008B
:100EA8003808B4008C3177240800E0302000200591
:100EB800A6003F302105A70000308B1B0130A80099
:100EC80027082106031D6A2F26082006031D08008F
:100ED8008B132108F4002008F3008A31012287319E
:100EE80023001513151595162000A9012030290295
:100EF8000318BB2F2008230091002000210823009D
:100F08009200200029352207A3002308860001301B
:100F18008700010823009300200029352207A30039
:100F28002308860001308700403FA400413FA50008
:100F38002508230094001F3020002906031DA62F32
:100F480023009512553023009600AA309600951478
:100F58000000000001302000A0070030A13D013052
:100F6800A3002308A90720302902031C7E2F230091
:100F780015112000280C031C8B1303188B1708006D
:100F88002000A200A401A40A89314B218731D03066
:100F98008D31F62587312000A0002008A400240800
:100FA800031D080022088D31F62587312000A00096
:100FB8002008A4002408031D0800A30177082302C1
:100FC8000318FC2F23087607A00020088600870155
:100FD80001088D31F62587312000A1002108A400E1
:100FE8002408031D08000130A0002008A307E22FF1
:060FF800893164210800AC
:1010620082302200970008002000EB0122000C16BB
:1010720008006830210099009A0108000130F00050
:1010820070082100B80708002000EB01EB0A2200DB
:101092000C120800240094013030950092010800DF
:1010A200FE0012001E00FE0B522800346400800174
:1010B2000131890B58280034F3002000111E5E28EC
:1010C200730823009A000800013021009D00E330DC
:1010D2009E009B019C010800F300240095137308F5
:1010E2009100141C72281108080001345034233472
:1010F20002340834073416340034003400344830E3
:1011020023009F0080309D0026309E0067309B00A8
:101112009C010800F50022008C12750888316D20B0
:101122008831740888316D2022008C160800003046
:101132008831B8208831F7007708FA00FA147A0863
:10114200F7007708F400803088318B2008002100F6
:101152001508C03917389500D93020009500D930CC
:10116200F30073082100EF000B118B160800F50045
:1011720022008C12750888316D208831FF30883149
:101182006D20F4007408F60022008C167608080020
:10119200F600F501761CD1287308F4007408F507EF
:1011A2000310F30D0310F60C7608031DCB28750807
:1011B2000800F7000F3077052000A0000A30A100D8
:1011C2002108F3007708A2000430A236890BE62832
:1011D20022088831C92020002007080088313A20DF
:1011E20088318A31B722883188314B208831883161
:1011F20080208831883165208831883131208831DA
:101202008831A82008002000A00022000E1004301F
:10121200F7007708F30080308A311D2289310830C7
:10122200F7007708F300200020088A311D222200EF
:101232000E140800F6007608F500F50DF50D2100F4
:101242001D087506833975069D001D140032003293
:10125200000021009D149D182C291C08F4001B0875
:10126200F30008002000A70022008C1220002708AB
:1012720088316D20893120002408A5002508F4005A
:101282002308A6002608F50000308E3142262200EF
:101292008C16080022008D140330F300F30B4F2943
:1012A20022000D140330F300F30B552922008D1098
:1012B2000330F300F30B5B2922000D100330F3001F
:1012C200F30B6129080022000D100330F300F30B29
:1012D200682922008D100330F300F30B6E292200DF
:1012E2000D140330F300F30B742922008D14033024
:1012F200F300F30B7A29080000308B1B0130F50054
:101302008B137308230091007408920015131514AF
:1013120000000000750C031C8B1303188B172300AD
:101322001408F4001308F30008002000A0000030A5
:101332008831B8208931F7007708FA003F30F7008A
:101342007708FA0520002008F7007708FA047A08DF
:10135200F7007708F400803088318B2008000B11E9
:1013620021006F08200095000130F1007108210072
:10137200B9070130AC070030AD3D00302D026430BA
:1013820003192C02031C080088313F202100AC0104
:10139200AD010800E5308600003087002730840068
:1013A200003085000A302000A50016001A00A50BA7
:1013B200D6292730A5002508F6000730A600260802
:1013C200F70000308731C42708002000A000200861
:1013D200F7007708A1000130F5020030F63B750AEC
:1013E2000319760A031908007308F700210886001A
:1013F2008701770881000130F7007708A107EC29FF
:1014020000308B1B0130F5008B1373082300910011
:101412007408920015131516151555309600AA304A
:10142200960095140000000023001511750C031C92
:101432008B1303188B170800F500F6017308760268
:1014420003180800F51B282A22000E112A2A22005E
:101452000E158E10F930F4000000F40B2D2A003224
:10146200000022008E140310F50D0130F400740800
:10147200F6071F2AF500F601730876020318080022
:101482007518462A22000E11482A22000E158E10C7
:10149200F930F4000000F40B4B2A00320000220065
:1014A2008E140310F50C0130F4007408F6073D2A7F
:1014B2002000A001A101731C632A75082000A00767
:1014C2007608A13D0130F535F60D890B642A01300D
:1014D200F436F30C890B692A73087404031D5C2A21
:1014E20020002108F4002008F300080022008C15D7
:1014F2000C160C148C140E140E150C178E140D14DD
:101502008D14630020006D0803198B2A02306D06CA
:10151200031D932A22008C1120006B03031D932AC2
:1015220022000C128A31962208000130F30073085F
:101532002000ED0704306D060319A32A0D306D0259
:10154200031CA42AED010130F30073082100B60741
:10155200833036020318B6010130F3007308B7076F
:1015620083303702031C0800B70108007B302200D9
:101572008C00803021008C0023008C0122008D0120
:10158200FC3021008D00103023008D002C3024000F
:101592008D00073022008E00D03021008E00230003
:1015A2008E01240090012100951322009D01080064
:1015B200FF30F3007308F50020008C1FE22A8D1A19
:1015C200FA2A0D30F400FB30F300F30BE62AF40B99
:1015D200E62A003220008C1FF02A8D1AFA2A8D1A70
:1015E200F42AF501F50A8C1BFA2A0230F30073087B
:1015F200F50075080800F40122008D14F501083089
:1016020075020318242B0310F40D22000D1403306D
:10161200F300F30B0A2B21008D1420008D1C142BD8
:1016220021008D10741421008D1022000D10033042
:10163200F300F30B1A2B0130F3007308F50708309F
:101642007502031C052B74080800210027082000DE
:10165200A900210026082000A8002100250820005A
:10166200A700210024082000A6001030840090303A
:1016720085000008A5002508A7000C3084009030E2
:1016820085000008A5002508A8002630A00000302B
:10169200A1000430A5002508A20000308C310E24E0
:1016A20008007308740403197A2B2000A001A00A11
:1016B200F41B652B0130F335F40D890B5C2B0130E3
:1016C200F7007708A007592B74087602031D6B2BCD
:1016D20073087502031C712B7308F5027408F63B3C
:1016E2000130F436F30C890B722B0130A002031D7A
:1016F200652B7608F4007508F300080021002F0816
:101702002000AB0021002E082000AA002030F700A4
:101712007708AC005530AD005530AE008D31212533
:101722008B3101302100AE070030AF3D2F08200081
:10173200AB0021002E082000AA002030F700770815
:10174200AC005530AD005530AE008D312125013051
:101752002100AE070030AF3D080021002F08200015
:10176200AB0021002E082000AA002030F7007708E5
:10177200AC00AA30AD00AA30AE008D3121258B31EC
:1017820001302100AE070030AF3D2F082000AB0032
:1017920021002E082000AA002030F7007708AC00B4
:1017A200AA30AD00AA30AE008D31212501302100D2
:1017B200AE070030AF3D08002000AA002100230838
:1017C2002000A900210022082000A80021002108F1
:1017D2002000A700210020082000A600003084007D
:1017E200903085000008A5002508A7002A08003EC1
:1017F200840090300318013E85000008A5002508EA
:10180200A8002630A0000030A1000430A500250861
:10181200A20000308C310E2408002000A300220018
:101822000E100330F7007708F300A0308A311D2232
:101832008C310630F7007708F300200023088A3144
:101842001D228C312000A4012208240203183F2CFF
:101852000830F7007708F30020088400210885008B
:1018620000088A313B228C310130F70077082000D2
:10187200A4070130A0070030A13D252C22000E1440
:1018820008002000A701A801210822040319722CD4
:10189200A601A60AA21B572C0130A135A20D890B65
:1018A2004E2C0130A5002508A6074B2C0130A73588
:1018B200A80D890B582C22082402031D622C210832
:1018C2002302031C692C2108A3022208A43B27142B
:1018D2000130A236A10C890B6A2C0130A602031D2D
:1018E200572C2808A2002708A1000800FF3020007A
:1018F2003305B5003F303405B600350A3F300319D1
:101902003606031D952C21002F082000AB00210074
:101912002E082000AA002030B5003508AC00FE30A9
:10192200AD003F30AE00A52C21002F082000AB00F7
:1019320021002E082000AA002030B5003508AC0096
:101942003408AE003308AD008D312125013021006D
:10195200AE070030AF3D0800D12C01308B31DD23C2
:101962008C3122008C140C140C108D31AC25220009
:101972000C1408008C31E424080002308B31DD2382
:101982008C3122000C148C148C108D31AC25220069
:101992008C1408008C31E42408008531DA25080013
:1019A20020006D08003A0319AE2C013A0319BB2C32
:1019B200033A0319BE2C013A0319CB2C063A031938
:1019C200CE2CE32C080021004308031DFD2C80319E
:1019D2003F208C3184317D248C3120006D03031D26
:1019E200F52C2100B4010800033020006D06031D10
:1019F20008002100B501080020006D03031D052D1C
:101A02002100B401B40A0D2D033020006D06031D20
:101A12000D2D2100B501B50A8B3126238C31FF3003
:101A22002000DB005B08F400823088318B208C318F
:101A3200883198208C31F401823088318B20080063
:101A4200E03020002A05B0003F302B05B1002A0803
:101A52001F39F6007608AF00B201203032020318B7
:101A6200502D32083007F30031080318310AF40010
:101A720089317D218D31200032352C07F600760820
:101A82008600013087007308C03F7408C13F0130EF
:101A9200F6007608B20720303202031C322D2F35B1
:101AA2002C07F60076088600013087002D08C03F1B
:101AB2002E08C13F3108A1003008A0002C08F60012
:101AC2007608A2008731592708002000A101F61FDD
:101AD200712DF509F609F50A0319F60AA101A10A01
:101AE200F41F782DF309F409F30A0319F40A7308B1
:101AF200740403199F2DA001A00AF41B8A2D013042
:101B0200F335F40D890B812D0130F7007708A0071A
:101B12007E2D74087602031D902D73087502031C36
:101B2200962D7308F5027408F63B0130F436F30C77
:101B3200890B972D0130A002031D8A2D210803195C
:101B4200A72DF509F609F50A0319F60A7608F40035
:101B52007508F30008004030893196218D3121004B
:101B6200B901B42D640020008D1DBC2D1F30210051
:101B72003902031CB32D1F3021003902031CC42D6E
:101B8200C301C30A0800C4302000A8002808A3002B
:101B92000630A9002908A4000A3089313321210026
:101BA20044082000A80028082100BC0045082000A5
:101BB200A80028082100BD0046082000A800280827
:101BC2002100BF0047082000A80028082100C1000A
:101BD20048082000A80028082100C0004908200069
:101BE200A80028082100C3000800F400F50108300D
:101BF200750203181D2EF41F012E22008D14032ED0
:101C020022008D100330F300F30B052E22000D1479
:101C12000330F300F30B0B2E0310F40D22000D1012
:101C22000330F300F30B132E0130F3007308F507B2
:101C320008307502031CFC2D22008D140330F300C2
:101C4200F30B212E22000D140330F300F30B272E89
:101C520021008D1420008D1C322E21008D100130A8
:101C6200080021008D1022000D100330F300F30B49
:101C7200382E22008D100330F300F30B3E2E00307D
:101C82000800F600F7017408031908007608031D1E
:101C9200742E792E7508031D5A2E770876072000B8
:101CA200A000200886008701010888316D208E314E
:101CB2006F2E770876072000A00020088600870193
:101CC200010888316D208E312000A1007708750748
:101CD200A20022088600870121088100013020002D
:101CE200A0002008F70774087702031808004B2E9B
:101CF20075080319080074087702031808000030F9
:101D020088316D208E312000A00077087507A10070
:101D1200210886008701200881000130A0002008E8
:101D2200F7077C2E2000A101F41F9E2EF309F4096F
:101D3200F30A0319F40AA101A10AF61FA92EF50953
:101D4200F609F50A0319F60A0130F7007708A10629
:101D5200A201A301730874040319D82EA001A00ADA
:101D6200F41BBD2E0130F335F40D890BB42E013076
:101D7200F7007708A007B12E0130A235A30D890B19
:101D8200BE2E74087602031DC82E73087502031C4A
:101D9200CF2E7308F5027408F63B22140130F43694
:101DA200F30C890BD02E0130A002031DBD2E210899
:101DB2000319E02EA209A309A20A0319A30A230800
:101DC200F4002208F30008002000B701B801B501B1
:101DD200B601B4010030B7002030B80040303802FC
:101DE200003003193702031808003808F4003708D6
:101DF200F30089317D218E3174082000B60073080A
:101E0200B50055303506153003193606031D0E2F61
:101E12000130B3003308B407332F350A3F300319BA
:101E22003606031D202F02303402031C202F3808EF
:101E32002100AF00200037082100AE00080020007A
:101E4200350A3F3003193606031D312F38082100A9
:101E5200AF00200037082100AE008B317F2308003D
:101E62002000B40101302000B7070030B83DEF2E4A
:101E72002000D101D2016D03031D6B2F6B03031DE3
:101E82006B2F793021003602031C080082310B22AD
:101E92008F312000CF00D0014F08D1005008D2006E
:101EA200521421003403031D582F20005215200024
:101EB20052165208B4005108B3008C3177248F3186
:101EC20020006A08B4006908B3008C31772421002D
:101ED200B6010800033020006D06031D08006B03E5
:101EE200031D0800793021003702031C08008231EB
:101EF2000B228F312000CF00D0014F08D1005008B3
:101F0200D200D21421003503031D892F2000D215DF
:101F1200200052165208B4005108B3008C317724C5
:101F22008F3179082000B4007808B3008C3177240F
:101F32002100B70108002000AF002530A3002308CC
:101F4200F6000730A4002408F700003086316F261F
:101F52008F31200025087F398831DA208F31200027
:101F6200A3002F08860087012308810026087F39F5
:101F72008831DA208F312000A3002F0A86008701E2
:101F82002308810027083F398831DA208F31200069
:101F9200A3002F08023E860087012308810028083B
:101FA2008831DA208F312000A3002F08033E8600FB
:101FB20087012308810029088831DA208F31200027
:101FC200A3002F08043E86008701230881002A0807
:101FD2008831DA208F312000A3002F08053E8600C9
:101FE2008701230881002B088831DA202000A30012
:101FF2002F08063E86008701230881000800D73497
:102002005034B534F1347234E334E7345134F734B4
:10201200F3347734E6348734F434A734273457342E
:08202200203420342034203466
:020000040001F9
:04000E00ECFFFFDF25
:00000001FF
