:040000008031132810
:100008007E14803120007F08F2008B1A0B1D0E2809
:100018008931B32172082000FF007E100900803169
:100028001528F801F901FA016330840000308500D1
:100038000B30883156208031A03084000030850094
:1000480043308831562080312030840001308500CB
:1000580040308831562080317530840088308500E2
:10006800E3308600003087000A30883150207E1047
:1000780020008431592C2000D301D401D701D801A4
:10008800D501D6010030E6000030E5000030E4007C
:100098000030E3003F307A05CF004F08D10021003F
:1000A8003F082000D000510DD10CD00C5008E300BF
:1000B8005108E400890D893B8909E500E600FA1B2F
:1000C800E4166408D8006308D7006D03031DF128FF
:1000D8006B03031DF12820305806570403197628AE
:1000E800013077280030CF00D00167084F05D100D4
:1000F80068085005D200D21AC728E81E9028670958
:10010800CF006809D000CF0A0319D00A4F08003E73
:10011800E7004030503DE800D81E9F285709CF001F
:100128005809D000CF0A0319D00A4F08003ED7005B
:100138004030503DD80058086802031DA5285708CC
:1001480067020318B3286709CF006809D000CF0AEF
:100158000319D00A57084F07D3005808BE28570973
:10016800CF005809D000CF0A0319D00A67084F07F3
:10017800D3006808503DD4000030540205300319FC
:100188005302031CEB288131F32180312000CF007A
:10019800D0014F08D5005008D6005614210034036A
:1001A800031DD828200056152000D6165608B4007E
:1001B8005508B3008C31C924803120006408B4008C
:1001C8006308B3008C31C92480312100B6012000B6
:1001D8006408E8006308E700792903306D06031D09
:1001E80079296B03031D7929203058065704031910
:1001F800FF28013000290030CF00D00169084F05E1
:10020800D1006A085005D200D21A5029EA1E1929CD
:100218006909CF006A09D000CF0A0319D00A4F082C
:10022800003EE9004030503DEA00D81E2829570911
:10023800CF005809D000CF0A0319D00A4F08003E52
:10024800D7004030503DD80058086A02031D2E29B7
:100258005708690203183C296909CF006A09D000C8
:10026800CF0A0319D00A57084F07D300580847295F
:100278005709CF005809D000CF0A0319D00A6908D6
:100288004F07D3006A08503DD400003054020530AF
:1002980003195302031C74298131F3218031200092
:1002A800CF00D0014F08D5005008D600D614210041
:1002B8003503031D61292000D6152000D6165608DF
:1002C800B4005508B3008C31C9248031200064087B
:1002D800B4006308B3008C31C92480312100B70110
:1002E80020006408EA006308E9006408D80063088D
:1002F800D700FA1FC0292100B901B90A20005709FF
:10030800CF005809D000CF0A0319D00A4F08003E81
:10031800D7004030503DD8005808D0005708CF00CB
:10032800D036CF0CD036CF0CD036CF0C4F082100AA
:10033800B200200050082100B300200057080739F8
:10034800CF004F08EC0004306C02031CAF290130C9
:10035800CF004F08EC0703306C060319B7290830A3
:100368006C06031D08002100321C08000130200023
:10037800CF004F08EC0708002100B90120005808F9
:10038800D0005708CF00D036CF0CD036CF0CD0369F
:10039800CF0C4F082100B200200050082100B30004
:1003A800200057080739CF004F08EC0004306C02D2
:1003B800031CE2290130CF004F08EC0704306C061B
:1003C8000319EA2908306C06031D08002100321CB5
:1003D800080001302000CF004F08EC07080000306B
:1003E8002000C6000030C5000030C4000030C30043
:1003F8000030CA000030C9000030C8000030C70013
:100408000030CE000030CD000030CC000030CB00F2
:10041800D8308F319C27813120006D03031DC82AF5
:1004280021005C084E06031DD12A2100580820002F
:10043800B900BA0121005A082000BB00BC013B08E2
:10044800F3003C08F4001030F5000E30F6008A3155
:100458002022813173082000BD007408BE002100ED
:1004680059082000BF00C0013F08F3004008F4000D
:100478003C30F5000030F6008A31202281317308C3
:1004880020003D07C10074083E3DC20039084107FD
:10049800C7003A08423DC800C901C81BC90349083A
:1004A800CA0021004A082000B900BA0121004C08FE
:1004B8002000BB00BC013B08F3003C08F4001030EE
:1004C800F5000E30F6008A312022813173082000B1
:1004D800BD007408BE0021004B082000BF00C00109
:1004E8003F08F3004008F4003C30F5000030F60007
:1004F8008A3120228131730820003D07C100740829
:100508003E3DC20039084107CB003A08423DCC00C5
:10051800CD01CC1BCD034D08CE004708B9004808D3
:10052800BA004908BB004A08BC004B09BD004C0989
:10053800BE004D09BF004E09C000BD0A0319BE0A1E
:100548000319BF0A0319C00A3D08B9073E08BA3D96
:100558003F08BB3D4008BC3D3C08C6003B08C50001
:100568003A08C4003908C300CA3086008701D83069
:100578008400850107302000B90012001E00B90B65
:10058800C12A20004308080003306D06031D8F2B85
:1005980021005C0855060319E02A8B316B23813151
:1005A8008B319A2381318631BB2681312100B601F6
:1005B800B7012000ED018F2B210058082000B90059
:1005C800BA0121005A082000BB00BC013B08F30017
:1005D8003C08F4001030F5000E30F6008A31202275
:1005E800813173082000BD007408BE00210059083D
:1005F8002000BF00C0013F08F3004008F4003C3071
:10060800F5000030F6008A3120228131730820007D
:100618003D07C10074083E3DC20039084107C700C4
:100628003A08423DC800C901C81BC9034908CA00A5
:10063800210051082000B900BA0121005308200008
:10064800BB00BC013B08F3003C08F4001030F50087
:100658000E30F6008A312022813173082000BD0057
:100668007408BE00210052082000BF00C0013F08E6
:10067800F3004008F4003C30F5000030F6008A3101
:1006880020228131730820003D07C10074083E3DD7
:10069800C20039084107CB003A08423DCC00CD01E1
:1006A800CC1BCD034D08CE004708B9004808BA0056
:1006B8004908BB004A08BC004B09BD004C09BE00F4
:1006C8004D09BF004E09C000BD0A0319BE0A03192F
:1006D800BF0A0319C00A3D08B9073E08BA3D3F08DA
:1006E800BB3D4008BC3D3C08C6003B08C5003A0875
:1006F800C4003908C300D13086008701D83084008F
:10070800850107302000B90012001E00B90B882BA4
:10071800200043080800003008002000AA0121003A
:1007280033082000AC00210032082000AB00003064
:10073800F300F4000430F5000030F600DF308931B2
:10074800E921833120002B082C040319252C0130C2
:100758002000A9002908AA070A30A1000030A20039
:100768002C08A4002B08A3008C319424833120008A
:100778002208AC002108AB00A62B6430A100003091
:10078800A200210033082000A40021003208200024
:10079800A3008C319424833120002208850021088D
:1007A8008400003084079030853D0008A90029089E
:1007B8002100DF000A302000A1000030A200210043
:1007C8003308F6003208F5006430F3000030F40016
:1007D8008B313E23833174082000A4007308A300E2
:1007E8008C3194248331200022088500210884005C
:1007F800003084079030853D0008A90029082100B1
:10080800E0000A30F3000030F40021003308F6005D
:100818003208F5008B313E23833174088500730854
:100828008400003084079030853D1E2C0030840001
:100838009030850000082000A90029082100E10067
:10084800342C20002A08003A03191A2C013A0319FB
:10085800052C033A0319DE2B013A0319C12B342C5A
:1008680021003903031D3E2C20302000A90029084F
:100878002100DF0020006C08003E8400903003183F
:10088800013E850000080838A90029082100E20077
:10089800DF302000A0000030A1000430A9002908A2
:1008A800A20000308C315F2408002200E201E3013D
:1008B800E401E001E1018831EF2084313D3020007E
:1008C800E200E130E1007A30E000E00B692CE10B56
:1008D800692CE20B692C003220008D1A762C22003C
:1008E8000C15782C22000C118C11E301E401E201B3
:1008F800103062020318952C0B3089317F21843126
:10090800220063087307E3006408743DE4000130C3
:100918002000E00060082200E20710306202031C99
:10092800802C630E0F39E300640EF039E304640E83
:100938000F39E400033064022030031963020318FE
:10094800A72C0C11A62C2200E201E301E401873157
:100958009827843121008D158931CE218431523078
:1009680089310421843128308931042184310230CD
:1009780089310421843106308931042184311130D0
:100988002000A0009030A1000430E0006008A20020
:1009980000308C315F2484312000ED01EB0121000F
:1009A800B601B7012000E701E801E901EA012100E9
:1009B800B401B5012200E301E40100302100AE00DA
:1009C8002030AF008B31FA2384318B170B170B3093
:1009D80089317F218431220063087307E3006408AA
:1009E800743DE40001302000E00060082200E207C6
:1009F80010306206031D162DE201630E0F39E30065
:100A0800640EF039E304640E0F39E4000330640225
:100A18002030031963020318132D0C11122D220024
:100A2800E301E4018C312C2484318531B5258431EE
:100A38008F3139278431EB2C21002B082000B60098
:100A480021002A082000B500210029082000B40050
:100A5800210028082000B300D8308F319C27853129
:100A68000A30F3000030F40021005A082000B000DA
:100A7800B1013008F5003108F6008E31E7268531DE
:100A88007408850073088400003084079030853D21
:100A980000082000B2003208B300B3150A30F30092
:100AA8000030F40021005A082000B000B1013008DD
:100AB800F5003108F6008D31BC25853174088500B4
:100AC80073088400003084079030853D00082000BA
:100AD800B2003208B4000A30F3000030F4002100FC
:100AE80059082000B000B1013008F5003108F600BF
:100AF8008E31E7268531740885007308840000303C
:100B080084079030853D00082000B2003208B50007
:100B18000A30F3000030F400210059082000B0002A
:100B2800B1013008F5003108F6008D31BC2585315A
:100B38007408850073088400003084079030853D70
:100B480000082000B2003208B6003330A0000030A0
:100B5800A1000430B0003008A20000308C315F24BE
:100B680008002000DD01F8018A31A022853120002B
:100B7800DA005A08DD005D0803190800392E033031
:100B880078020318C92D8D1EC32D03307802031C6B
:100B9800D52D22000C118C150430893104218531A2
:100BA800022E00302000DE002030DF0023305F02FC
:100BB800E83003195E020318022E5F08F4005E088D
:100BC800F30089316621853174082000DC00730840
:100BD800DB005C0888315C20853120005B088831A7
:100BE8005C20853101302000DE070030DF3D2330F6
:100BF8005F02E83003195E02031CE12D20008D1A04
:100C08000800022E0330780203180C2E8C1F062EC3
:100C180003307802031C2D2E6B08031D262E883105
:100C2800442085318B319A2385318631BB26853125
:100C38002100B601B7012000E701E801E901EA0156
:100C4800ED01352E88313A2085318B316B23853182
:100C5800352E05302000DA005A08ED008C312C249E
:100C6800853120008C1B0800352E5D08013A0319D8
:100C7800C32D033A0319062E422E0800080020004F
:100C8800A100A201A20A893134218631D0308E31E7
:100C98004A2686312000A0002008A2002208031D51
:100CA800080021088E314A2686312000A00020083D
:100CB800A2002208031D0800893134218631D13071
:100CC8008E314A2686312000A0002008A200220882
:100CD800031D080002307702031C992E8A31E8228E
:100CE80086312000A0007608860087012008810050
:100CF80022008D100D302000A000A00B812E2200B4
:100D08000D140D302000A000A00B882E22000D101D
:100D18000D302000A000A00B8F2E01302000A00075
:100D28002008F6070130F7026E2E8A31E822863154
:100D38002000A00076088600870120088100220094
:100D48008D140D302000A000A00BA82E22000D1439
:100D58000D302000A000A00BAF2E22000D100D308A
:100D68002000A000A00BB62E89314D210800D830F4
:100D78008F319C278631CA3086008701D83084009D
:100D8800850107302000B70012001E00B70BC82EDF
:100D9800D13086008701D8308400850107302000D3
:100DA800B70012001E00B70BD52E21005E082000E8
:100DB800B700B8013708B3003808B4008C31C9242B
:100DC800863121005D082000B700B8013708B3005C
:100DD8003808B4008C31C924863121005C08200011
:100DE800B700B8013708B3003808B4008C31C924FB
:100DF800863121005A082000B700B8013708B3002F
:100E08003808B4008C31C9248631210059082000E3
:100E1800B700B8013708B3003808B4008C31C924CA
:100E28008631210058082000B700B8013708B30000
:100E38003808B4008C31C924863121005B082000B1
:100E4800B700B8013708B3003808B4008C31C9249A
:100E58000800E03020002005A6003F302105A7004B
:100E680000308B1B0130A80027082106031D3E2FE8
:100E780026082006031D08008B132108F40020080B
:100E8800F3008A31042287312300151315159516AE
:100E98002000A9012030290203188F2F20082300E1
:100EA8009100200021082300920020002935220704
:100EB800A30023088600013087000108230093005F
:100EC800200029352207A300230886000130870067
:100ED800403FA400413FA5002508230094001F308F
:100EE80020002906031D7A2F230095125530230070
:100EF8009600AA30960095140000000001302000EA
:100F0800A0070030A13D0130A3002308A907203025
:100F18002902031C522F230015112000280C031C42
:100F28008B1303188B1708001530F6007608F900A4
:100F38000F30F60076082100BD050730F600760868
:100F4800BD04C0017908F6007608F40080308831C5
:100F58008B20873121003D08F6007608F4008130A7
:100F680088318B20873121004008F6007608F4008C
:100F7800823088318B2087317F30F6007608F40084
:100F8800833088318B208731C030F6007608F40032
:100F9800843088318B2087317F30F6007608F40062
:100FA800853088318B208731FF30F6007608F400D1
:100FB800863088318B2087318030F6007608F4003F
:100FC800873088318B208731F401883088318B2035
:100FD8008731F401893088318B208731F4018A30D8
:100FE80088318B208731F4018B3088318B200800C1
:080FF80082302200970008007E
:101074002000EB0122000C160800783021009900B2
:101084009A0108002000EB01EB0A22000C12080070
:10109400240094013030950092010800FE001200F3
:1010A4001E00FE0B51280034640080010131890BBD
:1010B40057280034F3002000111E5D287308230014
:1010C4009A000800013021009D00E3309E009B013E
:1010D4009C010800F3002400951373089100141C6C
:1010E40071281108080001345034233402340834C0
:1010F40007341634003400340034483023009F0091
:1011040080309D0026309E00A0309B0001309C0062
:101114000800F50022008C12750888316C20883193
:10112400740888316C2022008C1608000030883145
:10113400B8208831F7007708F900F9147908F70026
:101144007708F400803088318B20080021001508CE
:10115400C039173895006430200095006430F300DE
:1011640073082100ED000B118B160800F500220016
:101174008C12750888316C208831FF3088316C20DE
:10118400F4007408F60022008C1676080800F600B5
:10119400F501761CD1287308F4007408F5070310D0
:1011A400F30D0310F60C7608031DCB287508080010
:1011B400F7000F3077052000A0000A30A1002108B5
:1011C400F3007708A2000430A236890BE62822082F
:1011D4008831C92020002007080088313F20883149
:1011E4008A317E22883188314A20883188317F20B3
:1011F40088318831642088318831A820883187314A
:10120400FC2708002000A10022000E10043020005A
:10121400A0002008F30080308A313E228931083052
:101224002000A0002008F30021088A313E22220079
:101234000E1408002000A70022008C1220002708AA
:1012440088316C20893120002408A5002508F40089
:101254002308A6002608F50000308E3196262200C9
:101264008C16080022008D140D30F300F30B38297E
:1012740022000D140D30F300F30B3E2922008D10D3
:101284000D30F300F30B442922000D100D30F30050
:10129400F30B4A29080022000D100D30F300F30B64
:1012A400512922008D100D30F300F30B5729220031
:1012B4000D140D30F300F30B5D2922008D140D3055
:1012C400F300F30B6329080000308B1B0130F50099
:1012D4008B137308230091007408920015131514DE
:1012E40000000000750C031C8B1303188B172300DC
:1012F4001408F4001308F3000800F6007608F5005B
:10130400F50DF50D21001D087506833975069D0040
:101314001D140630F500F50B8D29000021009D14E5
:101324009D1892291C08F4001B08F30008002000F3
:10133400A00000308831B8208931F7007708F9001F
:101344003F30F7007708F90520002008F7007708F8
:10135400F9047908F7007708F400803088318B208D
:1013640008000B1121006D08200095000130F100E8
:1013740071082100B8070130AC070030AD3D0030E2
:101384002D02323003192C02031C08008A31C322B7
:101394002100AC01AD010800E33086000030870075
:1013A40027308400003085000A302000A500160094
:1013B4001A00A50BD9292730A5002508F600073007
:1013C400A6002608F70000308C31FF240800200016
:1013D400A0002008F7007708A1000130F5020030D2
:1013E400F63B750A0319760A031908007308F70017
:1013F400210886008701770881000130F70077080B
:10140400A107EF2900308B1B0130F5008B13730803
:101414002300910074089200151315161515553004
:101424009600AA30960095140000000023001511C0
:10143400750C031C8B1303188B1708002000A001E4
:10144400A101731C2A2A75082000A0077608A13D73
:101454000130F535F60D890B2B2A0130F436F30CE7
:10146400890B302A73087404031D232A20002108E1
:10147400F4002008F3000800F600F701730877026F
:1014840003180800F61B492A22000E114B2A2200D9
:101494000E158E100630F5003030F400F40B502A8F
:1014A400F50B502A000022008E140310F60D0130B3
:1014B400F4007408F707402AF600F701730877026E
:1014C400031808007618692A22000E116B2A2200DC
:1014D4000E158E100630F5003030F400F40B702A2F
:1014E400F50B702A000022008E140310F60C013054
:1014F400F4007408F707602A7B3022008C008030E7
:1015040021008C0023008C0122008D01FC3021007D
:101514008D00103023008D002C3024008D00073006
:1015240022008E00D03021008E0023008E01240082
:1015340090012100951322009D010800FF30F30063
:101544007308F50020008C1FA92A8D1AC12A343093
:10155400F400F130F300F30BAD2AF40BAD2A0032A2
:1015640020008C1FB72A8D1AC12A8D1ABB2AF501B7
:10157400F50A8C1BC12A0230F3007308F5007508C4
:1015840008000130F00070082000ED0704306D06FB
:101594000319D02A0D306D02031CD12AED0101304C
:1015A400F0007008F8070130F00070082100B60759
:1015B400833036020318B6010130F0007008B70713
:1015C40083303702031C0800B7010800F40122002D
:1015D4008D14F501083075020318102B0310F40D57
:1015E40022000D140D30F300F30BF62A21008D14A4
:1015F40020008D1C002B21008D10741421008D10EF
:1016040022000D100D30F300F30B062B0130F30014
:101614007308F50708307502031CF12A74080800E2
:10162400210027082000AA00210026082000A90084
:10163400210025082000A800210024082000A7007C
:1016440010308400903085000008A6002608A80009
:101654000C308400903085000008A6002608A900FC
:101664002730A0000030A1000430A6002608A20004
:1016740000308C315F240800730874040319662B4E
:101684002000A001A00AF41B512B0130F335F40D06
:10169400890B482B0130F7007708A007452B740805
:1016A4007602031D572B73087502031C5D2B730808
:1016B400F5027408F63B0130F436F30C890B5E2B0B
:1016C4000130A002031D512B7608F4007508F300C5
:1016D400080021002F082000AB0021002E08200064
:1016E400AA002030F7007708AC005530AD00553023
:1016F400AE008D3177258B3101302100AE070030EB
:10170400AF3D2F082000AB0021002E082000AA00C6
:101714002030F7007708AC005530AD005530AE00EE
:101724008D31772501302100AE070030AF3D080030
:1017340021002F082000AB0021002E082000AA0061
:101744002030F7007708AC00AA30AD00AA30AE0014
:101754008D3177258B3101302100AE070030AF3D4C
:101764002F082000AB0021002E082000AA00203002
:10177400F7007708AC00AA30AD00AA30AE008D3176
:10178400772501302100AE070030AF3D080020006E
:10179400AB00210023082000AA0021002208200019
:1017A400A900210021082000A80021002008200011
:1017B400A70000308400903085000008A6002608A9
:1017C400A8002B08003E840090300318013E8500D9
:1017D4000008A6002608A9002730A0000030A100B8
:1017E4000430A6002608A20000308C315F240800D3
:1017F4002000B501B601B301B4010030B5002030BA
:10180400B6004030360200300319350203180800D0
:101814003608F4003508F300893166218B317408E9
:101824002000B4007308B300330A3F3003193406B0
:10183400031D262C36082100AF00200035082100A6
:10184400AE008B316B23080001302000B507003057
:10185400B63D032C4C2C01308B31C9238C31220032
:101864008C140C140C108E31022608008D313A258C
:10187400080002308B31C9238C3122000C148C14E3
:101884008C108E31022608008D313A2508008531EE
:101894002025080020006D08003A03192D2C013A78
:1018A4000319382C033A03193B2C013A0319462C2B
:1018B400063A0319492C5E2C08002000A4002200DB
:1018C4000E1003302000A3002308F300A0308A3157
:1018D4003E228C3106302000A3002308F3002408A4
:1018E4008A313E228C312000A501220825020318EA
:1018F400912C0830A3002308F30020088400210859
:10190400850000088A315E228C3101302000A3005A
:101914002308A5070130A0070030A13D772C220041
:101924000E1408002000A701A801210822040319AD
:10193400C42CA601A60AA21BA92C0130A135A20D14
:10194400890BA02C0130A5002508A6079D2C013089
:10195400A735A80D890BAA2C22082402031DB42C38
:1019640021082302031CBB2C2108A3022208A43B48
:1019740027140130A236A10C890BBC2C0130A6021D
:10198400031DA92C2808A2002708A1000800FF3085
:1019940020003305B5003F303405B600350A3F302A
:1019A40003193606031DE72C21002F082000AB0085
:1019B40021002E082000AA002030B5003508AC0014
:1019C400FE30AD003F30AE00F72C21002F08200080
:1019D400AB0021002E082000AA002030B5003508F5
:1019E400AC003408AE003308AD008D3177250130EA
:1019F4002100AE070030AF3D08002000A200A40182
:101A0400A40A893134218C31D0308E314A268C316C
:101A14002000A0002008A4002408031D08002208B8
:101A24008E314A268C312000A0002008A40024080E
:101A3400031D0800A301770823020318372D230888
:101A44007607A00020088600870101088E314A2607
:101A54008C312000A1002108A4002408031D0800E3
:101A64000130A0002008A3071D2D89314D21080055
:101A740021004108031D532D80313F208D318331D6
:101A840091238D3120006D03031D4B2D2100B401E2
:101A94000800033020006D06031D08002100B50175
:101AA400080020006D03031D5B2D2100B401B40A5E
:101AB400632D033020006D06031D632D2100B50145
:101AC400B50A8B3112238D31FF302000D90059081B
:101AD400F400823088318B208D31883198208D310B
:101AE400F401823088318B200800E03020002A0580
:101AF400B0003F302B05B1002A081F39F6007608E4
:101B0400AF00B201203032020318A62D320830078C
:101B1400F30031080318310AF400893166218D314C
:101B2400200032352C07F600760886000130870045
:101B34007308C03F7408C13F0130F6007608B2074D
:101B440020303202031C882D2F352C07F60076082E
:101B54008600013087002D08C03F2E08C13F3108A0
:101B6400A1003008A0002C08F6007608A2008731F6
:101B74002D2708002000A101F61FC72DF509F6093D
:101B8400F50A0319F60AA101A10AF41FCE2DF309DF
:101B9400F409F30A0319F40A730874040319F52DFC
:101BA400A001A00AF41BE02D0130F335F40D890BDC
:101BB400D72D0130F7007708A007D42D74087602DA
:101BC400031DE62D73087502031CEC2D7308F50242
:101BD4007408F63B0130F436F30C890BED2D01301B
:101BE400A002031DE02D21080319FD2DF509F609B6
:101BF400F50A0319F60A7608F4007508F3000800DC
:101C04004030893199218E312100B80120008D1D89
:101C1400102E1F3021003802031C082E1F30210013
:101C24003802031C182EC101C10A0800C23020006A
:101C3400A8002808A3000630A9002908A4000A3037
:101C440089311C21210042082000A8002808210015
:101C5400BB0043082000A80028082100BC00440859
:101C64002000A8002808FA00210045082000A80048
:101C740028082100BF0046082000A80028082100E9
:101C8400BE0047082000A80028082100C100080061
:101C9400F400F501083075020318712EF41F552E57
:101CA40022008D14572E22008D100D30F300F30BFB
:101CB400592E22000D140D30F300F30B5F2E031088
:101CC400F40D22000D100D30F300F30B672E0130DC
:101CD400F3007308F50708307502031C502E220028
:101CE4008D140D30F300F30B752E22000D140D30FE
:101CF400F300F30B7B2E21008D1420008D1C862E07
:101D040021008D100130080021008D1022000D10DB
:101D14000D30F300F30B8C2E22008D100D30F300E8
:101D2400F30B922E00300800F600F7017408031933
:101D340008007608031DC82ECD2E7508031DAE2E8F
:101D4400770876072000A000200886008701010894
:101D540088316C208E31C32E770876072000A000CE
:101D6400200886008701010888316C208E3120000C
:101D7400A10077087507A2002208860087012108C0
:101D8400810001302000A0002008F70774087702C2
:101D9400031808009F2E75080319080074087702B9
:101DA40003180800003088316C208E312000A00018
:101DB40077087507A10021088600870120088100A3
:101DC4000130A0002008F707D02E2000A101F41F45
:101DD400F22EF309F409F30A0319F40AA101A10A82
:101DE400F61FFD2EF509F609F50A0319F60A013066
:101DF400F7007708A106A201A3017308740403196C
:101E04002C2FA001A00AF41B112F0130F335F40D7F
:101E1400890B082F0130F7007708A007052F013040
:101E2400A235A30D890B122F74087602031D1C2FF3
:101E340073087502031C232F7308F5027408F63B1C
:101E440022140130F436F30C890B242F0130A00244
:101E5400031D112F21080319342FA209A309A20A73
:101E64000319A30A2308F4002208F3000800200041
:101E7400D101D2016D03031D6B2F6B03031D6B2F67
:101E8400793021003602031C08008131F3218F319F
:101E94002000CF00D0014F08D1005008D2005214C6
:101EA40021003403031D582F200052152000521620
:101EB4005208B4005108B3008C31C9248F3120007A
:101EC4006808B4006708B3008C31C9242100B60146
:101ED4000800033020006D06031D08006B03031D7A
:101EE4000800793021003702031C08008131F321F6
:101EF4008F312000CF00D0014F08D1005008D2000C
:101F0400D21421003503031D892F2000D21520008F
:101F140052165208B4005108B3008C31C9248F31D1
:101F240020006A08B4006908B3008C31C924210078
:101F3400B70108002000AF002530A3002308F600F5
:101F44000730A4002408F7000030863143268F317F
:101F5400200025087F398831DA208F312000A30042
:101F64002F08860087012308810026087F398831DD
:101F7400DA208F312000A3002F0A8600870123086E
:101F8400810027083F398831DA208F312000A300EF
:101F94002F08023E86008701230881002808883123
:101FA400DA208F312000A3002F08033E860087012A
:101FB4002308810029088831DA208F312000A3000A
:101FC4002F08043E86008701230881002A088831EF
:101FD400DA208F312000A3002F08053E86008701F8
:101FE400230881002B088831DA202000A3002F0861
:101FF400063E86008701230881000800D734503448
:10200400B534F1347234E334E7345134F734F3340F
:102014007734E6348734F434A734273457342034FF
:06202400203420342034BA
:020000040001F9
:04000E00E4FFFFDF2D
:00000001FF
