:08000000803102288731EE2F48
:100B6C007830210099009A0108002400940130305B
:100B7C00950092010800640080010131890BC22D9F
:100B8C000034F0002400951370089100141CCC2D37
:100B9C0011080800483023009F0080309D0026304B
:100BAC009E00A0309B0001309C0008008531B625CA
:100BBC0085318631882685318531BB258531853156
:100BCC00D0250800F20022008C1272088531C7254E
:100BDC00853171088531C72522008C160800F2007A
:100BEC0022008C1272088531C7258531FF30853182
:100BFC00C725F1007108F30022008C167308080059
:100C0C00F60022000E100430F5007508F00080305C
:100C1C008631482686310830F5007508F0007608D4
:100C2C008631482622000E140800FC0022008C128B
:100C3C007C088531C72586317908FA007A08F100DD
:100C4C007808FB007B08F20000308631DA2622009F
:100C5C008C160800F50000308531F5258631F4003E
:100C6C007408FD003F30F4007408FD057508F400AD
:100C7C007408FD047D08F4007408F100803085319F
:100C8C00E8250800F300F40170087402031808004A
:100C9C00F31B532E22000E11552E22000E158E1012
:100CAC000630F2003030F100F10B5A2EF20B5A2EB6
:100CBC00000022008E140310F30D0130F1007108B6
:100CCC00F4074A2EF300F4017008740203180800AC
:100CDC007318732E22000E11752E22000E158E1015
:100CEC000630F2003030F100F10B7A2EF20B7A2E36
:100CFC00000022008E140310F30C0130F100710877
:100D0C00F4076A2E7F3022008C00803021008C008A
:100D1C0023008C0122008D01FC3021008D0010304D
:100D2C0023008D002C3024008D00073022008E0013
:100D3C00D03021008E0023008E0124009001210070
:100D4C00951322009D010800F90022000E100330BB
:100D5C00F8007808F000A03086314826863106303D
:100D6C00F8007808F0007908863148268631FA01B7
:100D7C0077087A020318D72E0830F8007808F000AC
:100D8C00750884007608850000088631682686314F
:100D9C000130F8007808FA070130F5070030F63D0D
:100DAC00BE2E22000E140800F600F701710803197C
:100DBC0008007608031D082F0D2F7208031DF12E55
:100DCC0077087607F30073088600870101088531E0
:100DDC00C7258631042F77087607F3007308860041
:100DEC00870101088531C7258631F4007708720721
:100DFC00F500750886008701740881000130F30046
:100E0C007308F7077108770203180800E32E7208BD
:100E1C0003190800710877020318080000308531A7
:100E2C00C7258631F30077087207F4007408860032
:100E3C008701730881000130F3007308F707102F46
:100E4C001530F3007308FD000F30F3007308200019
:100E5C00AC050730F3007308AC04B0017D08F30057
:100E6C007308F10080308531E825873120002C088B
:100E7C00F3007308F10081308531E82587312000BB
:100E8C003008F3007308F10082308531E825873192
:100E9C007F30F3007308F10083308531E82587310A
:100EAC00C030F3007308F10084308531E8258731B8
:100EBC007F30F3007308F10085308531E8258731E8
:100ECC00FF30F3007308F10086308531E825873157
:100EDC008030F3007308F10087308531E8258731C5
:100EEC00F10188308531E8258731F1018930853170
:100EFC00E8258731F1018A308531E8258731F10108
:100F0C008B308531E82508008531DC2587312200BE
:100F1C008C110C120C1087312627873121008D156E
:100F2C0052308631062687312830863106268731A5
:100F3C000230863106268731063086310626873107
:100F4C000030F5008830F60004302000BA003A0872
:100F5C00F70000308631AA26873166302000BC00AD
:100F6C007730BB002430BA00BA0BBA2FBB0BBA2FA8
:100F7C00BC0BBA2F00004030863130268731200060
:100F8C008D19C52F3230BA003A08F8000630BB0074
:100F9C003B08F9000A3086311B26873120003208C5
:100FAC00BA003A08AA003308BA003A08AB00340871
:100FBC00BA003A08AD003508BA003A08AF00360856
:100FCC00BA003A08AE003708BA003A08B100B32F9D
:100FDC0020308400003085001A308531C1258731DE
:100FEC00A03084000030850040308531C1252000C0
:100FFC0087318A2FD7345034B534F1347234E3341A
:10100C00E7345134F734F3347734E6348734F4343A
:04101C00A73427349A
:020000040001F9
:04000E00E4FFFFDF2D
:00000001FF
