:040000008031132810
:100008007E14803120007F08F2008B1A0B1D0E2809
:100018008931502172082000FF007E1009008031CC
:100028001528F801F901FA016530840000308500CF
:10003800093088310D208031A030840000308500DF
:10004800453088310D208031203084000130850012
:10005800403088310D2080312C3084008830850074
:10006800E5308600003087000A30883107207E108E
:1000780020008331A92B2000D501D601D901DA014E
:10008800D301D401D701D8010030E8000030E700DF
:100098000030E6000030E5003F3021003F05200039
:1000A800CF004F08D100210041082000D000510D99
:1000B800D10CD00C5008E5005108E600890D893BA9
:1000C8008909E700E8002100BF1F6C282000E61618
:1000D80020006608DA006508D9006D03031D0129B0
:1000E8006B03031D01296A08D4006908D300203076
:1000F8005A06590403198228013083280030CF009A
:10010800D00169084F05D1006A085005D200D21AFB
:10011800D328EA1E9C286909CF006A09D000CF0AB3
:100128000319D00A4F08003EE9004030503DEA006C
:10013800DA1EAB285909CF005A09D000CF0A031993
:10014800D00A4F08003ED9004030503DDA005A0826
:100158006A02031DB128590869020318BF286909F2
:10016800CF006A09D000CF0A0319D00A59084F07EF
:10017800D5005A08CA285909CF005A09D000CF0A11
:100188000319D00A69084F07D5006A08503DD60000
:1001980000305602053003195502031CFC28823131
:1001A8000B2280312000CF00D0014F08D700500823
:1001B800D800581421003403031DE42820005815E2
:1001C8002000D8165808B4005708B3008C310F2403
:1001D800803120006608B4006508B3008C310F2414
:1001E80080312100B60120006608EA006508FF2872
:1001F8005408EA005308E900912903306D06031DED
:1002080091296B03031D91297908D4007808D3003C
:1002180020305A06590403191329013014290030D3
:10022800CF00D00178084F05D10079085005D200D9
:10023800D21A6429F91E2D297809CF007909D0002E
:10024800CF0A0319D00A4F08003EF8004030503D4D
:10025800F900DA1E3C295909CF005A09D000CF0A03
:100268000319D00A4F08003ED9004030503DDA004B
:100278005A087902031D422959087802031850299F
:100288007809CF007909D000CF0A0319D00A590894
:100298004F07D5005A085B295909CF005A09D000E1
:1002A800CF0A0319D00A78084F07D5007908503DBE
:1002B800D60000305602053003195502031C8D295B
:1002C80082310B2280312000CF00D0014F08D700A7
:1002D8005008D800D81421003503031D75292000C3
:1002E800D8152000D8165808B4005708B3008C3128
:1002F8000F24803120006608B4006508B3008C31F3
:100308000F2480312100B70120006608F900650834
:1003180090295408F9005308F8006608DA006508BF
:10032800D9002100BF1FD829BA01BA0A20005909EB
:10033800CF005A09D000CF0A0319D00A4F08003E4F
:10034800D9004030503DDA005A08D0005908CF0093
:10035800D036CF0CD036CF0CD036CF0C4F0821007A
:10036800B200200050082100B300200059080739C6
:10037800CF004F08EC0004306C02031CC729013081
:10038800CF004F08EC0703306C060319CF2908305B
:100398006C06031D08002100321C080001302000F3
:1003A800CF004F08EC0708002100BA0120005A08C6
:1003B800D0005908CF00D036CF0CD036CF0CD0366D
:1003C800CF0C4F082100B200200050082100B300D4
:1003D800200059080739CF004F08EC0004306C02A0
:1003E800031CFA290130CF004F08EC0704306C06D3
:1003F8000319022A08306C06031D08002100321C6C
:10040800080001302000CF004F08EC07080000303A
:100418002000C6000030C5000030C4000030C30012
:100428000030CA000030C9000030C8000030C700E2
:100438000030CE000030CD000030CC000030CB00C2
:10044800DA308F313827823120006D03031DE02A0E
:1004580021005E085006031DE92A21005A082000E1
:10046800B900BA0121005C082000BB00BC013B08B0
:10047800F3003C08F4001030F5000E30F600893126
:10048800BD21823173082000BD007408BE00210020
:100498005B082000BF00C0013F08F3004008F400DB
:1004A8003C30F5000030F6008931BD2182317308F7
:1004B80020003D07C10074083E3DC20039084107CD
:1004C800C7003A08423DC800C901C81BC90349080A
:1004D800CA0021004C082000B900BA0121004E08CA
:1004E8002000BB00BC013B08F3003C08F4001030BE
:1004F800F5000E30F6008931BD21823173082000E5
:10050800BD007408BE0021004D082000BF00C001D6
:100518003F08F3004008F4003C30F5000030F600D6
:100528008931BD218231730820003D07C10074085C
:100538003E3DC20039084107CB003A08423DCC0095
:10054800CD01CC1BCD034D08CE004708B9004808A3
:10055800BA004908BB004A08BC004B09BD004C0959
:10056800BE004D09BF004E09C000BD0A0319BE0AEE
:100578000319BF0A0319C00A3D08B9073E08BA3D66
:100588003F08BB3D4008BC3D3C08C6003B08C500D1
:100598003A08C4003908C300CC3086008701DA3035
:1005A8008400850107302000B90012001E00B90B35
:1005B800D92A20004308080003306D06031DA72B25
:1005C80021005E0857060319F82A8A31E32282318E
:1005D8008B31122382318731092782312100B601FC
:1005E800B7012000ED01A72B21005A082000B9000F
:1005F800BA0121005C082000BB00BC013B08F300E5
:100608003C08F4001030F5000E30F6008931BD21A9
:10061800823173082000BD007408BE0021005B0809
:100628002000BF00C0013F08F3004008F4003C3040
:10063800F5000030F6008931BD21823173082000B1
:100648003D07C10074083E3DC20039084107C70094
:100658003A08423DC800C901C81BC9034908CA0075
:10066800210053082000B900BA01210055082000D4
:10067800BB00BC013B08F3003C08F4001030F50057
:100688000E30F6008931BD21823173082000BD008B
:100698007408BE00210054082000BF00C0013F08B4
:1006A800F3004008F4003C30F5000030F6008931D2
:1006B800BD218231730820003D07C10074083E3D0A
:1006C800C20039084107CB003A08423DCC00CD01B1
:1006D800CC1BCD034D08CE004708B9004808BA0026
:1006E8004908BB004A08BC004B09BD004C09BE00C4
:1006F8004D09BF004E09C000BD0A0319BE0A0319FF
:10070800BF0A0319C00A3D08B9073E08BA3D3F08A9
:10071800BB3D4008BC3D3C08C6003B08C5003A0844
:10072800C4003908C300D33086008701DA3084005A
:10073800850107302000B90012001E00B90BA02B5C
:10074800200043080800003008002200E201E3010D
:10075800E401E001E1012100171097141711971126
:100768001716971264008831A62083313D30200087
:10077800E400E130E3007A30E200E20BC12BE30B46
:10078800C12BE40BC12B003220008D1ACE2B220086
:100798000C15D02B22000C118C11E301E401E201AD
:1007A800103062020318ED2B0B308931362183316A
:1007B800220063087307E3006408743DE400013015
:1007C8002000E20062082200E20710306202031CE7
:1007D800D82B630E0F39E300640EF039E304640E7E
:1007E8000F39E40003306402203003196302031850
:1007F800002C0C116400FE2B2200E201E301E4014D
:100808008F319C27833121008D1589316B218331EC
:1008180052308831BB20833128308831BB20833166
:1008280002308831BB20833106308831BB208331C8
:1008380011302000A0009030A1000430E2006208CE
:10084800A20000308B31A52383312000ED01EB019C
:100858002100B601B7012000E901EA01F801F90118
:100868002100B401B5012200E301E40100302100B8
:10087800AE002030AF008E31812683316400210024
:1008880017148B170B170B3089313621833122004F
:1008980063087307E3006408743DE4000130200036
:1008A800E20062082200E20710306206031D732C82
:1008B800E201630E0F39E300640EF039E304640EBD
:1008C8000F39E4000330640220300319630203186F
:1008D800702C0C1164006E2C2200E301E4018B31B2
:1008E800722383318531FD2583318E31D5268331BD
:1008F800630001302000E2006208ED0704306D0655
:1009080003198A2C0D306D02031C8B2CED0101306C
:10091800E20062082100B607833036020318B601E8
:1009280001302000E20062082100B7078330370257
:10093800031C472CB701472C2000AA0121003308CB
:100948002000AC00210032082000AB000030F3008A
:10095800F4000430F5000030F600E13089318621DA
:10096800843120002B082C040319342D0130200079
:10097800A9002908AA070A30A1000030A2002C0803
:10098800A4002B08A3008B31DA238431200022082D
:10099800AC002108AB00B52C6430A1000030A200E7
:1009A800210033082000A400210032082000A30001
:1009B8008B31DA2384312000220885002108840045
:1009C800003084079030853D0008A90029082100DF
:1009D800E1000A302000A1000030A2002100330805
:1009E800F6003208F5006430F3000030F4008A3174
:1009F800B622843174082000A4007308A3008B3148
:100A0800DA23843120002208850021088400003080
:100A180084079030853D0008A90029082100E200DC
:100A28000A30F3000030F40021003308F6003208E1
:100A3800F5008A31B6228431740885007308840071
:100A4800003084079030853D2D2D00308400903093
:100A5800850000082000A90029082100E300432D93
:100A680020002A08003A0319292D013A0319142DE8
:100A7800033A0319ED2C013A0319D02C432D210018
:100A88003A03031D4D2D20302000A900290821001C
:100A9800E10020006C08003E840090300318013EFD
:100AA800850000080838A90029082100E400E13081
:100AB8002000A0000030A1000430A9002908A200ED
:100AC80000308B31A523080021002B082000B60038
:100AD80021002A082000B500210029082000B400C0
:100AE800210028082000B300DA308F3138278531FB
:100AF8000A30F3000030F40021005C082000B00048
:100B0800B1013008F5003108F6008E312F26853105
:100B18007408850073088400003084079030853D90
:100B280000082000B2003208B300B3150A30F30001
:100B38000030F40021005C082000B000B10130084A
:100B4800F5003108F6008D310225853174088500DD
:100B580073088400003084079030853D0008200029
:100B6800B2003208B4000A30F3000030F40021006B
:100B78005B082000B000B1013008F5003108F6002C
:100B88008E312F2685317408850073088400003063
:100B980084079030853D00082000B2003208B50077
:100BA8000A30F3000030F40021005B082000B00098
:100BB800B1013008F5003108F6008D310225853184
:100BC8007408850073088400003084079030853DE0
:100BD80000082000B2003208B6003330A000003010
:100BE800A1000430B0003008A20000308B31A523EA
:100BF80008002000DF012100B8018A313D2285313B
:100C08002000DC005C08DF005F0803190800872E5D
:100C180064000330210038020318152E20008D1EB1
:100C28000C2E033021003802031C222E22000C1146
:100C38008C1504308831BB2085314A2E00302000C5
:100C4800E0001030E10013306102E830031960025F
:100C580003184A2E6108F4006008F30089311D2149
:100C6800853174082000DE007308DD005E088831D5
:100C78001320853120005D0888311320853101302B
:100C88002000E0070030E13D272E640020008D1A87
:100C98000800492E64000330210038020318572E3B
:100CA80020008C1F4E2E033021003802031C7A2EA0
:100CB80020006B08031D732E9731FA2785318B317D
:100CC800122385318731092785312100B601B70103
:100CD8002000E901EA01F801F901ED01822E9731BE
:100CE800EA2785318A31E3228531822E05302000BA
:100CF800DC005C08ED008B317223853120008C1BF1
:100D080008006400822E5F08013A03190D2E033A89
:100D180003194F2E902E080008002000A100A20100
:100D2800A20A8831EB208631D0308D319225863168
:100D38002000A0002008A2002208031D08002108A6
:100D48008D31922586312000A0002008A2002208BB
:100D5800031D08008831EB208631D1308D31922572
:100D680086312000A0002008A2002208031D0800E8
:100D780002307702031CE72E8A3160228631200078
:100D8800A0007608860087012008810022008D10C7
:100D98000D302000A000A00BCF2E22000D140D3026
:100DA8002000A000A00BD62E22000D100D30200030
:100DB800A000A00BDD2E01302000A0002008F607BF
:100DC8000130F702BC2E8A31602286312000A00053
:100DD8007608860087012008810022008D140D30D6
:100DE8002000A000A00BF62E22000D140D302000CC
:100DF800A000A00BFD2E22000D100D302000A00039
:100E0800A00B042F893104210800DA308F313827EC
:100E18008731CC3086008701DA30840085010730BD
:100E28002000B70012001E00B70B162FD330860023
:100E38008701DA308400850107302000B7001200EE
:100E48001E00B70B232F210060082000B700B8014F
:100E58003708B3003808B4008C310F2487312100DB
:100E68005F082000B700B8013708B3003808B4009D
:100E78008C310F24873121005E082000B700B801AB
:100E88003708B3003808B4008C310F2487312100AB
:100E98005C082000B700B8013708B3003808B40070
:100EA8008C310F24873121005B082000B700B8017E
:100EB8003708B3003808B4008C310F24873121007B
:100EC8005A082000B700B8013708B3003808B40042
:100ED8008C310F24873121005D082000B700B8014C
:100EE8003708B3003808B4008C310F240800E0300C
:100EF80020002005A6003F302105A70000308B1BED
:100F08000130A80027082106031D8C2F260820067B
:100F1800031D08008B132108F4002008F300893111
:100F2800A121873123001513151595162000A90155
:100F3800203029020318DD2F20082300910020000B
:100F4800210823009200200029352207A300230846
:100F5800860001308700010823009300200029350E
:100F68002207A3002308860001308700403FA40021
:100F7800413FA5002508230094001F3020002906C2
:100F8800031DC82F23009512553023009600AA3060
:100F9800960095140000000001302000A0070030E2
:100FA800A13D0130A3002308A90720302902031C12
:100FB800A02F230015112000280C031C8B130318E5
:100FC8008B1708002000A000003088316F2087317F
:100FD800F7007708FA003F30F7007708FA05200095
:100FE8002008F7007708FA047A08F7007708F40071
:080FF80080308831422008001E
:10100200240094013030950092010800FE00120085
:101012001E00FE0B08280034640080010131890B98
:101022000E280034F3002000111E14287308230038
:101032009A000800013021009D00E3309E009B01D0
:101042009C010800F3002400951373089100141CFE
:10105200282811080800013450342334023408349B
:1010620007341634003400340034483023009F0023
:1010720080309D0026309E00A0309B0001309C00F5
:101082000800F50022008C1275088831232088316F
:1010920074088831232022008C1608000030883121
:1010A2006F208831F7007708FA00FA147A08F700FF
:1010B2007708F400803088314220080021001508AA
:1010C200C039173895006430200095006430F30071
:1010D20073082100EF000B118B160800F5002200A7
:1010E2008C127508883123208831FF308831232003
:1010F200F4007408F60022008C1676080800F60048
:10110200F501761C88287308F4007408F5070310AB
:10111200F30D0310F60C7608031D822875080800EB
:10112200F7000F3077052000A0000A30A100210847
:10113200F3007708A2000430A236890B9D2822080A
:10114200883180202000200708009731EF2788315E
:101152008A311B228831883101208831883136203A
:10116200883188311B2088319731E62788318831D0
:101172005F2008002000A10022000E100430200091
:10118200A0002008F30080308931DB21883108304B
:101192002000A0002008F30021088931DB21220071
:1011A2000E1408002000A70022008C12200027083D
:1011B20088312320883120002408A5002508F40066
:1011C2002308A6002608F50000308D31DE25220016
:1011D2008C16080022008D140D30F300F30BEF285B
:1011E20022000D140D30F300F30BF52822008D10B0
:1011F2000D30F300F30BFB2822000D100D30F3002D
:10120200F30B0129080022000D100D30F300F30B3F
:10121200082922008D100D30F300F30B0E29220055
:101222000D140D30F300F30B142922008D140D3030
:10123200F300F30B1A29080000308B1B0130F50074
:101242008B13730823009100740892001513151470
:1012520000000000750C031C8B1303188B1723006E
:101262001408F4001308F3000800F6007608F500ED
:10127200F50DF50D21001D087506833975069D00D3
:101282001D140630F500F50B4429000021009D14C1
:101292009D1849291C08F4001B08F30008000B11D3
:1012A20021006F08200095000130F1007108210033
:1012B200B9070130AC070030AD3D00302D0264307B
:1012C20003192C02031C08009731F4272100AC01FA
:1012D200AD010800E5308600003087002730840029
:1012E200003085000A302000A50016001A00A50B68
:1012F20076292730A5002508F6000730A600260823
:10130200F70000308C31452408002000A00020089E
:10131200F7007708A1000130F5020030F63B750AAC
:101322000319760A031908007308F70021088600DA
:101332008701770881000130F7007708A1078C291F
:1013420000308B1B0130F5008B13730823009100D2
:101352007408920015131516151555309600AA300B
:10136200960095140000000023001511750C031C53
:101372008B1303188B1708002000A001A101731C16
:10138200C72975082000A0077608A13D0130F53570
:10139200F60D890BC8290130F436F30C890BCD29DF
:1013A20073087404031DC02920002108F4002008DA
:1013B200F3000800F600F70173087702031808002B
:1013C200F61BE62922000E11E82922000E158E10C6
:1013D2000630F5003030F400F40BED29F50BED2961
:1013E200000022008E140310F60D0130F400740880
:1013F200F707DD29F600F7017308770203180800E2
:101402007618062A22000E11082A22000E158E10C6
:101412000630F5003030F400F40B0D2AF50B0D2ADE
:10142200000022008E140310F60C0130F400740840
:10143200F707FD297B3022008C00803021008C00D0
:1014420023008C0122008D01FC3021008D00103020
:1014520023008D002C3024008D00073022008E00E6
:10146200D03021008E0023008E0124009001210043
:10147200951322009D010800FF30F3007308F50068
:1014820020008C1F462A8D1A5E2A3430F400F13077
:10149200F300F30B4A2AF40B4A2A003220008C1F75
:1014A200542A8D1A5E2A8D1A582AF501F50A8C1BC8
:1014B2005E2A0230F3007308F50075080800F40193
:1014C20022008D14F501083075020318882A0310D2
:1014D200F40D22000D140D30F300F30B6E2A2100DF
:1014E2008D1420008D1C782A21008D107414210087
:1014F2008D1022000D100D30F300F30B7E2A013007
:10150200F3007308F50708307502031C692A740892
:101512000800210027082000AA0021002608200038
:10152200A900210025082000A8002100240820008D
:10153200A70010308400903085000008A60026081D
:10154200A8000C308400903085000008A600260810
:10155200A9002730A0000030A1000430A600260810
:10156200A20000308B31A52308007308740403190C
:10157200DE2A2000A001A00AF41BC92A0130F3359B
:10158200F40D890BC02A0130F7007708A007BD2AA5
:1015920074087602031DCF2A73087502031CD52A2C
:1015A2007308F5027408F63B0130F436F30C890B2C
:1015B200D62A0130A002031DC92A7608F400750854
:1015C200F300080021002F082000AB0021002E08A4
:1015D2002000AA002030F7007708AC005530AD009B
:1015E2005530AE008C31BD248A3101302100AE0766
:1015F2000030AF3D2F082000AB0021002E08200054
:10160200AA002030F7007708AC005530AD00553005
:10161200AE008C31BD2401302100AE070030AF3D59
:10162200080021002F082000AB0021002E08200016
:10163200AA002030F7007708AC00AA30AD00AA302B
:10164200AE008C31BD248B3101302100AE07003059
:10165200AF3D2F082000AB0021002E082000AA0079
:101662002030F7007708AC00AA30AD00AA30AE00F7
:101672008C31BD2401302100AE070030AF3D08009F
:101682002000AB00210023082000AA00210022082C
:101692002000A900210021082000A8002100200824
:1016A2002000A70000308400903085000008A600CA
:1016B2002608A8002B08003E840090300318013E43
:1016C20085000008A6002608A9002730A0000030E7
:1016D200A1000430A6002608A20000308B31A52309
:1016E2000800922B01308B3141238B3122008C1464
:1016F2000C140C108D31482508008C318024080010
:1017020002308B3141238B3122000C148C148C104B
:101712008D31482508008C318024080085316825E8
:10172200080020006D08003A0319732B013A0319CF
:101732007E2B033A0319812B013A03198C2B063AAB
:1017420003198F2BA42B08002000A40022000E10E6
:1017520003302000A3002308F300A0308931DB21ED
:101762008B3106302000A3002308F30024088931BE
:10177200DB218B312000A501220825020318D72B7B
:101782000830A3002308F300200884002108850004
:1017920000088931FB218B3101302000A30023088E
:1017A200A5070130A0070030A13DBD2B22000E1479
:1017B20008002000A701A8012108220403190A2C0D
:1017C200A601A60AA21BEF2B0130A135A20D890B9F
:1017D200E62B0130A5002508A607E32B0130A7352B
:1017E200A80D890BF02B22082402031DFA2B2108D5
:1017F2002302031C012C2108A3022208A43B271464
:101802000130A236A10C890B022C0130A602031D65
:10181200EF2B2808A2002708A1000800FF302000B3
:101822003305B5003F303405B600350A3F300319A1
:101832003606031D2D2C21002F082000AB002100AD
:101842002E082000AA002030B5003508AC00FE307A
:10185200AD003F30AE003D2C21002F082000AB0030
:1018620021002E082000AA002030B5003508AC0067
:101872003408AE003308AD008C31BD2401302100A4
:10188200AE070030AF3D08002000A200A401A40A68
:101892008831EB208C31D0308D3192258C31200073
:1018A200A0002008A4002408031D080022088D318E
:1018B20092258C312000A0002008A4002408031DDA
:1018C2000800A3017708230203187D2C230876075A
:1018D200A00020088600870101088D3192258C31F5
:1018E2002000A1002108A4002408031D08000130E3
:1018F200A0002008A307632C8931042108002100DD
:101902004308031D992C80313F208C318431A0245F
:101912008C3120006D03031D912C2100B4010800BD
:10192200033020006D06031D08002100B5010800E8
:1019320020006D03031DA12C2100B401B40AA92CBF
:10194200033020006D06031DA92C2100B501B50A44
:101952008A318A228C31FF302000DB005B08F400E0
:101962008230883142208C3188314F208C31F40111
:101972008230883142200800E03020002A05B00081
:101982003F302B05B1002A081F39F6007608AF0058
:10199200B201203032020318EC2C32083007F30077
:1019A20031080318310AF40089311D218C312000DD
:1019B20032352C07F600760886000130870073085E
:1019C200C03F7408C13F0130F6007608B2072030EC
:1019D2003202031CCE2C2F352C07F6007608860027
:1019E200013087002D08C03F2E08C13F3108A100F9
:1019F2003008A0002C08F6007608A20087317B2769
:101A020008002000A101F61F0D2DF509F609F50ABF
:101A12000319F60AA101A10AF41F142DF309F4090E
:101A2200F30A0319F40A7308740403193B2DA00185
:101A3200A00AF41B262D0130F335F40D890B1D2D60
:101A42000130F7007708A0071A2D74087602031DEB
:101A52002C2D73087502031C322D7308F5027408CD
:101A6200F63B0130F436F30C890B332D0130A00222
:101A7200031D262D21080319432DF509F609F50A40
:101A82000319F60A7608F4007508F30008004030DE
:101A92008731E6278D312100B901502D64002000E5
:101AA2008D1D582D1F3021003902031C4F2D1F3070
:101AB20021003902031C602DC301C30A0800C4308F
:101AC2002000A8002808A3000630A9002908A400C5
:101AD2000A308831D320210044082000A8002808B9
:101AE2002100BC0045082000A80028082100BD00F4
:101AF20046082000A80028082100BF00470820004F
:101B0200A80028082100C10048082000A8002808D1
:101B12002100C00049082000A80028082100C300B5
:101B22000800F400F501083075020318B92DF41FFE
:101B32009D2D22008D149F2D22008D100D30F3005B
:101B4200F30BA12D22000D140D30F300F30BA72D82
:101B52000310F40D22000D100D30F300F30BAF2D26
:101B62000130F3007308F50708307502031C982D45
:101B720022008D140D30F300F30BBD2D22000D1445
:101B82000D30F300F30BC32D21008D1420008D1CAA
:101B9200CE2D21008D100130080021008D10220071
:101BA2000D100D30F300F30BD42D22008D100D30EB
:101BB200F300F30BDA2D00300800F600F701740889
:101BC200031908007608031D102E152E7508031D33
:101BD200F62D770876072000A000200886008701EE
:101BE2000108883123208D310B2E770876072000DB
:101BF200A0002008860087010108883123208D314A
:101C02002000A10077087507A2002208860087013C
:101C12002108810001302000A0002008F707740885
:101C2200770203180800E72D7508031908007408E5
:101C32007702031808000030883123208D312000FC
:101C4200A00077087507A1002108860087012008F7
:101C520081000130A0002008F707182E2000A10102
:101C6200F41F3A2EF309F409F30A0319F40AA10145
:101C7200A10AF61F452EF509F609F50A0319F60A17
:101C82000130F7007708A106A201A30173087404CA
:101C92000319742EA001A00AF41B592E0130F3354A
:101CA200F40D890B502E0130F7007708A0074D2E56
:101CB2000130A235A30D890B5A2E74087602031D3A
:101CC200642E73087502031C6B2E7308F5027408E8
:101CD200F63B22140130F436F30C890B6C2E0130E2
:101CE200A002031D592E210803197C2EA209A30963
:101CF200A20A0319A30A2308F4002208F300080029
:101D02002000B701B801B501B601B4010030B70037
:101D12002030B8004030380200300319370203186F
:101D220008003808F4003708F30089311D218E318C
:101D320074082000B6007308B5005530350615301A
:101D420003193606031DAA2E0130B3003308B40767
:101D5200CF2E350A3F3003193606031DBC2E023042
:101D62003402031CBC2E38082100AF0020003708C3
:101D72002100AE0008002000350A3F300319360664
:101D8200031DCD2E38082100AF00200037082100A6
:101D9200AE008A31E32208002000B40101302000A5
:101DA200B7070030B83D8B2E2000D101D2016D0360
:101DB200031D072F6B03031D072F79302100360205
:101DC200031C080082310B228E312000CF00D0018B
:101DD2004F08D1005008D200521421003403031DD1
:101DE200F42E20005215200052165208B400510859
:101DF200B3008C310F248E3120006A08B4006908C8
:101E0200B3008C310F242100B601080003302000FA
:101E12006D06031D08006B03031D080079302100C5
:101E22003702031C080082310B228E312000CF00C2
:101E3200D0014F08D1005008D200D214210035033E
:101E4200031D252F2000D215200052165208B4007F
:101E52005108B3008C310F248E3179082000B40070
:101E62007808B3008C310F242100B701080020004C
:101E7200AF002530A3002308F6000730A400240891
:101E8200F7000030863191268F31200025087F39F6
:101E9200883191208F312000A3002F08860087010E
:101EA2002308810026087F39883191208F31200054
:101EB200A3002F0A860087012308810027083F39E3
:101EC200883191208F312000A3002F08023E860026
:101ED2008701230881002808883191208F31200052
:101EE200A3002F08033E86008701230881002908EA
:101EF200883191208F312000A3002F08043E8600F4
:101F02008701230881002A08883191208F3120001F
:101F1200A3002F08053E86008701230881002B08B5
:101F2200883191202000A3002F08063E86008701F9
:101F32002308810008001530F6007608FA000F30F9
:101F4200F60076082100BE050730F6007608BE04CA
:101F5200C2017A08F6007608F40080308831422007
:101F62008F3121003E08F6007608F4008130883176
:101F720042208F3121004208F6007608F4008230B8
:101F8200883142208F317F30F6007608F4008330AA
:101F9200883142208F31C030F6007608F400843058
:101FA200883142208F317F30F6007608F400853088
:101FB200883142208F31FF30F6007608F4008630F7
:101FC200883142208F318030F6007608F400873065
:101FD200883142208F31F4018830883142208F319C
:101FE200F4018930883142208F31F4018A308831FE
:101FF20042208F31F4018B30883142200800D734DF
:102002005034B534F1347234E334E7345134F734B4
:10201200F3347734E6348734F434A734273457342E
:08202200203420342034203466
:102FCC0082302200970008002000EB0122000C1632
:102FDC0008007830210099009A0108000130F000B7
:102FEC0070082100B80708002000EB01EB0A220052
:042FFC000C120800AB
:020000040001F9
:04000E00ECFFFFDF25
:00000001FF
