:1000000080312728B034E5347E14803120007F0809
:10001000A0008B1A0B1D1028883100208031222867
:100020002100911E1A282000911E1A288C31632469
:10003000803122282100111E22282000111E222892
:100040009431C82420002008FF007E100900803170
:100050002928E501E601E701E801E901EA012100BB
:10006000EE01EF0120308400013085004C309331E7
:100070003A238031A030840001308500383093313C
:100080003A238031203084000230850040309331A3
:100090003A2380312200803102208031EE0080310D
:1000A0000320EF007E1020008431072C2000D401B3
:1000B000D501D801D901D201D301D601D701003031
:1000C0002200A7000030A6000030A5000030A400E8
:1000D0003F3046052000CE004E08D00022004808E0
:1000E0002000CF00500DD00CCF0C4F082200A400F0
:1000F000200050082200A500890D893B8909A6002F
:10010000A700C61BA51625082000D9002200240838
:100110002000D8006A03031D38296703031D38290E
:1001200022002B082000D30022002A082000D20041
:1001300020305906580403199F280130A0280030A8
:10014000CE00CF0122002A0820004E05D000220058
:100150002B0820004F05D100D11A04292200AB1E24
:10016000C4282A092000CE0022002B092000CF003D
:10017000CE0A0319CF0A4E08003E2200AA004030E2
:1001800020004F3D2200AB002000D91ED428580982
:10019000CE005909CF00CE0A0319CF0A4E08003EFF
:1001A000D80040304F3DD900590822002B02031DD2
:1001B000DD282000580822002A020318EE282A0908
:1001C0002000CE0022002B092000CF00CE0A031908
:1001D000CF0A58084E07D4005908FE2820005809B5
:1001E000CE005909CF00CE0A0319CF0A22002A08EF
:1001F00020004E07D40022002B0820004F3DD500E0
:100200005408550403192F298231652280312000BA
:10021000CE00CF014E08D6004F08D7005714220059
:100220003403031D1529200057152000D716570841
:10023000A7005608A6008E313F26803122002508EF
:100240002000A700220024082000A6008E313F26AF
:1002500080312200B6012508AB0024083629200091
:1002600053082200AB00200052082200AA00E72910
:10027000033020006A06031DE7296703031DE729F1
:1002800022002D082000D30022002C082000D200DC
:1002900020305906580403194F29013050290030E5
:1002A000CE00CF0122002C0820004E05D0002200F5
:1002B0002D0820004F05D100D11AB4292200AD1E0F
:1002C00074292C092000CE0022002D092000CF0027
:1002D000CE0A0319CF0A4E08003E2200AC0040307F
:1002E00020004F3D2200AD002000D91E842958096E
:1002F000CE005909CF00CE0A0319CF0A4E08003E9E
:10030000D80040304F3DD900590822002D02031D6E
:100310008D292000580822002C0203189E292C0940
:100320002000CE0022002D092000CF00CE0A0319A4
:10033000CF0A58084E07D4005908AE2920005809A2
:10034000CE005909CF00CE0A0319CF0A22002C088B
:1003500020004E07D40022002D0820004F3DD5007C
:10036000540855040319DF298231652280312000A9
:10037000CE00CF014E08D6004F08D700D714220078
:100380003503031DC5292000D7152000D7165708AF
:10039000A7005608A6008E313F268031220025088E
:1003A0002000A700220024082000A6008E313F264E
:1003B00080312200B7012508AD002408E62920007D
:1003C00053082200AD00200052082200AC00220099
:1003D00025082000D900220024082000D80022008F
:1003E000C61F322AC101C10A20005809CE0059098E
:1003F000CF00CE0A0319CF0A4E08003ED800403085
:100400004F3DD9005908CF005808CE00CF36CE0C4A
:10041000CF36CE0CCF36CE0C4E082200B2002000D4
:100420004F082200B300200058080739CE004E08BC
:10043000E90004306902031C212A0130CE004E0875
:10044000E907033069060319292A08306906031DE4
:1004500008002200321C080001302000CE004E08A7
:10046000E90708002200C10120005908CF00580800
:10047000CE00CF36CE0CCF36CE0CCF36CE0C4E08BB
:100480002200B20020004F082200B30020005808CC
:100490000739CE004E08E90004306902031C542AD3
:1004A0000130CE004E08E9070430690603195C2AC2
:1004B00008306906031D08002200321C08000130C4
:1004C0002000CE004E08E907080000302000C500DB
:1004D0000030C4000030C3000030C2000030C9004A
:1004E0000030C8000030C7000030C6000030CD002A
:1004F0000030CC000030CB000030CA0061308B31BE
:10050000F823823120006A03031D3C2B220065087A
:100510005706031D452B220061082000B800B901D1
:10052000220063082000BA00BB013A08A1003B0882
:10053000A2001030A3000E30A40094315624823162
:1005400020002108BC002208BD0022006208200013
:10055000BE00BF013E08A1003F08A2003C30A3003E
:100560000030A400943156248231200021083C0739
:10057000C00022083D3DC10038084007C6003908C8
:10058000413DC700C801C71BC8034808C900220075
:1005900053082000B800B901220055082000BA0015
:1005A000BB013A08A1003B08A2001030A3000E30A6
:1005B000A40094315624823120002108BC00220876
:1005C000BD00220054082000BE00BF013E08A1006B
:1005D0003F08A2003C30A3000030A4009431562410
:1005E0008231200021083C07C00022083D3DC100A7
:1005F00038084007CA003908413DCB00CC01CB1B6D
:10060000CC034C08CD004608B8004708B90048089C
:10061000BA004908BB004A09BC004B09BD004C099F
:10062000BE004D09BF00BC0A0319BD0A0319BE0A6A
:100630000319BF0A3C08B8073D08B93D3E08BA3D5A
:100640003F08BB3D3B08C5003A08C4003908C30059
:100650003808C200533086000130870061308400C2
:100660000130850007302000B80012001E00B80BD2
:10067000352B20004208080003306A06031D052CB4
:10068000220065085E060319542B9731CA27823170
:1006900088311B2082318C31D72482312200B6016F
:1006A000B7012000EA01052C220061082000B800F3
:1006B000B901220063082000BA00BB013A08A1007A
:1006C0003B08A2001030A3000E30A4009431562441
:1006D000823120002108BC002208BD0022006208EF
:1006E0002000BE00BF013E08A1003F08A2003C3030
:1006F000A3000030A4009431562482312000210848
:100700003C07C00022083D3DC10038084007C60034
:100710003908413DC700C801C71BC8034808C900C4
:1007200022005A082000B800B90122005C0820000D
:10073000BA00BB013A08A1003B08A2001030A30098
:100740000E30A40094315624823120002108BC00D0
:100750002208BD0022005B082000BE00BF013E0849
:10076000A1003F08A2003C30A3000030A400943157
:1007700056248231200021083C07C00022083D3D5C
:10078000C10038084007CA003908413DCB00CC0100
:10079000CB1BCC034C08CD004608B8004708B90075
:1007A0004808BA004908BB004A09BC004B09BD0013
:1007B0004C09BE004D09BF00BC0A0319BD0A03194C
:1007C000BE0A0319BF0A3C08B8073D08B93D3E08F8
:1007D000BA3D3F08BB3D3B08C5003A08C400390894
:1007E000C3003808C2005A308600013087006130EB
:1007F00084000130850007302000B80012001E0080
:10080000B80BFE2B2000420808000030080023002F
:10081000DA01DB01DC01D801D9012100171097149E
:10082000171197111716971264009331F52384312D
:1008300010302000E3003930E2001B30E100E10B12
:100840001F2CE20B1F2CE30B1F2C003220008D1AF3
:100850002C2C22000C152E2C22000C118C112300A4
:10086000DB01DC01DA0110305A020318502C0B3086
:100870009431E624843123005B0820002107230003
:10088000DB005C082000223D2300DC00013020005A
:10089000E10061082300DA0710305A02031C372CEC
:1008A0005B0E0F39DB005C0EF039DB045C0E0F3998
:1008B000DC0003305C02203003195B020318642C57
:1008C00022000C116400622C2300DA01DB01DC0140
:1008D00021008D15523094310A248431283094310E
:1008E0000A248431023094310A2484310630943150
:1008F0000A24843111302000A5009830A60004306D
:10090000E1006108A70000309731602784312000A2
:10091000EA01E7012200B601B701AA01AB01AC016F
:10092000AD01B401B5012000E8012200BA01BB010C
:10093000B801AE01AF012300DB01DC010030200073
:10094000E5002030E6008931CD21843164002100AA
:1009500017148B170B170B309431E62484312300C6
:100960005B08200021072300DB005C082000223DFB
:100970002300DC0001302000E10061082300DA07D9
:1009800010305A06031DDC2CDA015B0E0F39DB0038
:100990005C0EF039DB045C0E0F39DC0003305C02C6
:1009A000203003195B020318D92C22000C116400BB
:1009B000D72C2300DB01DC018831512084318631C2
:1009C000E52684318B318F23843193319523843113
:1009D00020006703031D332D22002E08003E200057
:1009E000E100E03022002F3D2000E20000306202F2
:1009F0001030031961020318092D6509E100660929
:100A0000E200E10A0319E20A6108003EE300403017
:100A1000242D22002F0820006602031D132D220022
:100A20002E08200065020318332D6509E1006609D0
:100A3000E200E10A0319E20A22002E082000610701
:100A4000E30022002F082000623DE4000030640231
:100A50001030031963020318332D9331242384319A
:100A60009731CA27843122003B08031DAB2C9531F6
:100A700004258431AB2C2100E801E901ED01EA01F4
:100A8000EB01EC0123003D082000AB00AC0123008A
:100A90003C082000AD00AE012D08AE00AD012B08D2
:100AA0002D042100E80020002C082E042100E9007C
:100AB00023003E082000AB002B082100ED00690850
:100AC0002000A500210068082000A40021006D0876
:100AD0002000AB002B08A60020309531432585313E
:100AE000FE302000AB002B082100A000FE302000CB
:100AF000AB002B082100A100A201A20A6D08200072
:100B0000AB002B082100A300EC016D086C02031858
:100B1000B62D6C35203E860002308700403F200015
:100B2000AB00413FAC002C08AD0021006C35043E09
:100B3000A03E8600870120002D08810021006C3531
:100B4000203E86000230870001082000AB00210013
:100B50006C35053EA03E8600870120002B088100F1
:100B60000130AB002B082100EC07852D6D08073EF6
:100B70002000AB002B08A100A0308D31C5258531A8
:100B8000200022082100EB00200021082100EA00BB
:100B90006A082000AB0021006D35043EA03E8600AF
:100BA000870120002B08810021006B082000AB008A
:100BB00021006D35053EA03E8600870120002B08F0
:100BC0008100BB30AB0021006D35063EA03E8600A3
:100BD000870120002B0881002100EC016D08200016
:100BE000AB00AC01AB35AC0D2B08073EAD000030BF
:100BF0002C3DAE002E08803A803C031D022E2D08AD
:100C000021006C020318080021006C08A03E860039
:100C10008701010893315423853101302000AB0056
:100C20002B082100EC07EE2D2000B0012200330834
:100C30002000B200220032082000B1000030A100E4
:100C4000A2000430A3000030A400683094313A249C
:100C500086312000310832040319B12E0130200002
:100C6000AF002F08B0070A30A7000030A8003208F4
:100C7000AA003108A900973195278631200028085D
:100C8000B2002708B100292E6430A7000030A80068
:100C9000220033082000AA00220032082000A90008
:100CA0009731952786312000280885002708840081
:100CB000003084079830853D0008AF002F082200DF
:100CC000E8000A302000A7000030A8002200330806
:100CD0002000A400220032082000A3006430A100FC
:100CE0000030A2009631A426863120002208AA00F6
:100CF0002108A90097319527863120002808850012
:100D000027088400003084079830853D0008AF0034
:100D10002F082200E9000A302000A1000030A200C4
:100D2000220033082000A400220032082000A30083
:100D30009631A426863120002208850021088400EF
:100D4000003084079830853D0008AC2E00308400C8
:100D50009830850000082000AF002F082200EA002C
:100D6000C02E20003008003A0319A62E013A0319BC
:100D70008B2E033A0319612E013A0319442EC02E1B
:100D800022004103031DCA2E20302000AF002F088F
:100D90002200E80020006908003E84009830031813
:100DA000013E850000080838AF002F082200EB0044
:100DB00068302000A5000130A6000430AF002F08E5
:100DC000A70000309731602708002000DE012100D5
:100DD000EE019631072686312000DB005B08DE003D
:100DE0005E080319080022008C1120006703031D10
:100DF0009E2F22000C129E2F6400033021006E02F1
:100E00000318052F20008D1EFC2E033021006E02DA
:100E1000031C122F22000C118C15043094310A246B
:100E20008631432F171000302000DF002030E00013
:100E300023306002E83003195F020318402F600876
:100E4000A2005F08A10095312325863120002208E9
:100E5000DD002108DC005D08933154238631200039
:100E60005C0893315423863101302000DF070030C5
:100E7000E03D23306002E83003195F02031C1F2F9E
:100E800021001714640020008D1A08006400432F0D
:100E90006400033021006E020318512F20008C1FC4
:100EA000482F033021006E02031C912F2000670899
:100EB000031D8A2F3F306602E13003196502031CCF
:100EC000652F0030A10020306B2F20006508203EE8
:100ED000A1000030663DA200953183258631933113
:100EE0002E238631200066082200AF00200065080E
:100EF0002200AE0088311B2086318C31D724863108
:100F00002200B601B701AA01AB01AC01AD0120007E
:100F1000EA01992F9331242386319731CA278631EC
:100F2000992F05302000DB005B08EA008831512052
:100F3000863120008C1B08006400992F20005E0879
:100F4000013A0319FD2E033A0319492FA82F08006F
:100F500008002000A200A301083023020318D62FA6
:100F6000A21FB52F22008D14B72F22008D10033041
:100F70002000A100A10BBA2F22000D140330200085
:100F8000A100A10BC12F03102000A20D22000D1003
:100F900003302000A100A10BCB2F01302000A100C5
:100FA0002108A30708302302031CB02F22008D1450
:100FB00003302000A100A10BDB2F22000D14033011
:100FC0002000A100A10BE22F21008D1420008D1C18
:100FD000ED2F21008D100130080021008D1022001E
:100FE0000D1003302000A100A10BF42F22008D1062
:0E0FF00003302000A100A10BFB2F00300800F1
:101000000B1122006D08200095000130F1007108DD
:101010002200B9070130A8070030A93D003029029D
:10102000643003192802031C080093318423220032
:10103000A801A901080020006608A2006508A10017
:10104000AA30A300AA30A40096314D268831403042
:10105000200066066504031D32280030E5002030BC
:10106000E60036280130E5070030E63D6608A200BC
:101070006508A100AA30A300AA30A40096314D262D
:1010800088314030200066066504031D4C2800307E
:10109000E5002030E60008000130E5070030E63DBD
:1010A00008007528013097312F27883122008C14D1
:1010B0000C140C108931832122000C140800883193
:1010C000FF200800023097312F27883122000C14AE
:1010D0008C148C108931832122008C1408008831F3
:1010E000FF2008008E31C626080020006A08003A5A
:1010F00003195228013A03195F28033A0319622899
:10110000013A03196F28063A031972288728080044
:101110002000A800AA01AA0A94318E248831D03078
:101120008731A92788312000A6002608AA002A08AE
:10113000031D080028088731A92788312000A60050
:101140002608AA002A08031D0800A901250829026B
:101150000318C02829082407A6002608860087014E
:1011600001088731A92788312000A7002708AA0095
:101170002A08031D08000130A6002608A907A62892
:101180009431AB24080023003C082000BF003F0836
:101190002200E70023003D082000BF003F08220096
:1011A000E60023003E082000BF003F082200E500C3
:1011B00023003F082000BF003F082200E300230077
:1011C00040082000BF003F082200E2002300410841
:1011D0002000BF003F082200E10023004208200059
:1011E000BF003F082200E40061308A31BF2288310D
:1011F00061308B31F82388318B312623080022009F
:101200004A08031D1829803156208831863114265A
:10121000883120006A03031D10292200B401080050
:10122000033020006A06031D08002200B5010800F3
:1012300020006A03031D20292200B401B40A2829D2
:10124000033020006A06031D28292200B501B50AD3
:10125000963178268831FF302000DA005A08A20043
:1012600082309331642388319331B8238831200050
:10127000A20182309331642308002000A701A41F3B
:101280004829A309A409A30A0319A40AA701A70AC4
:10129000A21F4F29A109A209A10A0319A20A210824
:1012A000220403197629A601A60AA21B612901308E
:1012B000A135A20D890B58290130A5002508A607E4
:1012C000552922082402031D672921082302031C33
:1012D0006D292108A3022208A43B0130A236A10CEB
:1012E000890B6E290130A602031D61292708031905
:1012F0007E29A309A409A30A0319A40A2408A200A9
:101300002308A1000800403095316325893122006F
:10131000B9018B29640020008D1D93291F30220004
:101320003902031C8A291F3022003902031C9B2921
:10133000CA01CA0A08004B302000AE002E08A900DE
:101340000630AF002F08AA000A3094312224220070
:101350004B082000AE002E082200C3004C082000DD
:10136000AE002E082200C4004D082000AE002E085A
:101370002200C6004E082000AE002E082200C80041
:101380004F082000AE002E082200C70050082000A1
:10139000AE002E082200CA0008002000AA01AB01FE
:1013A000A801A901A7010030AA002030AB004030FD
:1013B0002B02003003192A02031808002B08A20090
:1013C0002A08A10095312325893120002208A9008F
:1013D0002108A80055302806153003192906031DD9
:1013E000F6290130A6002608A707142A280A3F304C
:1013F00003192906031D052A02302702031C052AAA
:101400002B08E6002A08E5000800280A3F300319E7
:101410002906031D122A2B08E6002A08E500973149
:10142000CA2708002000A70101302000AA070030C9
:10143000AB3DD7292000A701A21F252AA109A20997
:10144000A10A0319A20AA701A70AA41F302AA30907
:10145000A409A30A0319A40A0130A5002508A706B8
:10146000A801A9012108220403195F2AA601A60ADE
:10147000A21B442A0130A135A20D890B3B2A013061
:10148000A5002508A607382A0130A835A90D890B23
:10149000452A22082402031D4F2A21082302031C87
:1014A000562A2108A3022208A43B28140130A236A0
:1014B000A10C890B572A0130A602031D442A2708D4
:1014C0000319672AA809A909A80A0319A90A29085A
:1014D000A2002808A10008002000A700A8012208F7
:1014E000031908002708031D9F2AA42A2308031DA7
:1014F000842A28082707A4002408860087010108F9
:10150000933148238A319A2A200028082707A4000B
:101510002408860087010108933148238A3120007E
:10152000A50028082307A6002608860001308700AA
:101530002508810001302000A4002408A807220803
:10154000280203180800762A230803190800220835
:101550002802031808000030933148238A31200004
:10156000A40028082307A50025088600013087006D
:10157000240881000130A4002408A807A72A20001D
:10158000BE003E0886000130870001089631D12652
:101590008A312000B2003208B4003E0A86000130D1
:1015A000870001089631D1268A312000B200320826
:1015B000B5003E08023E86000130870001089631E2
:1015C000D1268A312000B2003208B6003E08033E20
:1015D00086000130870001089631D1268A3120002B
:1015E000B2003208B7003E08043E86000130870092
:1015F00001089631D1268A312000B2003208B800A5
:101600003E08053E86000130870001089631D1264C
:101610008A312000B2003208B9003E08063E86003A
:101620000130870001089631D1268A312000B200AE
:101630003208BA003430B2003208A4000730B300D8
:101640003308A50000308831882008002000BC0144
:10165000BD01FE30AB002B08AC00FE30AB002B0808
:10166000AD000230AB002B08AE000730AB002B08FA
:10167000AF00220067082000AB002B08B00022005A
:1016800066082000AB002B08B1002200650820008E
:10169000AB002B08B200220063082000AB002B082F
:1016A000B300220062082000AB002B08B400220027
:1016B00061082000AB002B08B50022006408200060
:1016C000AB002B08B6000E30AB002B08A1002C306D
:1016D0008D31C5258B3120002208BD002108BC00BA
:1016E0003C08AB002B08B7003D08AB002B08B80046
:1016F000BB30AB002B08B900BE010E303E02031810
:1017000008003E082C3E86008701010893315423CF
:101710008B3101302000AB002B08BE077D2B200051
:10172000D001D1016A03031DC42B6703031DC42B21
:10173000793022003602031C0800823165228B3189
:101740002000CE00CF014E08D0004F08D100511428
:1017500022003403031DAE2B20005115200051162A
:101760005108A7005008A6008E313F268B31220079
:101770002B082000A70022002A082000A6008E3196
:101780003F262200B6010800033020006A06031D30
:1017900008006703031D0800793022003702031C8C
:1017A0000800823165228B312000CE00CF014E0827
:1017B000D0004F08D100D11422003503031DE22BC5
:1017C0002000D115200051165108A7005008A6008E
:1017D0008E313F268B3122002D082000A7002200E9
:1017E0002C082000A6008E313F262200B7010800F9
:1017F0002000B5002B30A9002908A4000730AA005A
:101800002A08A50000308D314D258B3120002B0892
:101810007F399331CB238B312000A9003508860016
:1018200001308700290881002C087F399331CB23B0
:101830008B312000A900350A860001308700290875
:1018400081002D083F399331CB238B312000A90033
:101850003508023E860001308700290881002E08E5
:101860009331CB238B312000A9003508033E86003D
:1018700001308700290881002F089331CB238B3159
:101880002000A9003508043E8600013087002908A1
:10189000810030089331CB238B312000A90035081B
:1018A000053E860001308700290881003108933108
:1018B000CB232000A9003508063E860001308700B2
:1018C00029088100080023009D1C682C1D121D168C
:1018D0001908FB007B08FD007D08FB00200068085C
:1018E000B83E8600013087007B0881000130FB0094
:1018F0007B08E8070A30FB007B082200BB002100C0
:10190000171020006803031D8B2CFE307D06031981
:101910000800E801080002306806031D952CFE301F
:101920007D0603190800E801080004306806031D5D
:101930009F2C08307D02031C0800E80108000F30CE
:101940006802031CA52CE801080023003B08073EA1
:10195000FB00003003180130FC00200068087B0603
:101960007C04031D0800BB307D06031D08006808C9
:10197000FB007B08F000B8308F315C278C31003AD7
:10198000031DCB2CD42C2200B801B80AD42C220081
:10199000BA01BA0AD42C23003A08013A0319C32C1D
:1019A000033A0319C72CD42C2000E8010800613049
:1019B0008B31F8238C315330860001308700613041
:1019C00084000130850007302000B60012001E00A0
:1019D000B60BE62C5A308600013087006130840057
:1019E0000130850007302000B60012001E00B60B43
:1019F000F52C220067082000B600B7013608A600C3
:101A00003708A7008E313F268C312200660820005F
:101A1000B600B7013608A6003708A7008E313F266A
:101A20008C31220065082000B600B7013608A600F8
:101A30003708A7008E313F268C3122006308200032
:101A4000B600B7013608A6003708A7008E313F263A
:101A50008C31220062082000B600B7013608A600CB
:101A60003708A7008E313F268C3122006108200004
:101A7000B600B7013608A6003708A7008E313F260A
:101A80008C31220064082000B600B7013608A60099
:101A90003708A7008E313F2608002000A700A801C4
:101AA000A80A94318E248D31D0308731A9278D3109
:101AB0002000A6002608A8002808031D0800270803
:101AC0008731A9278D312000A6002608A800280804
:101AD000031D080094318E248D31D1308731A92720
:101AE0008D312000A6002608A8002808031D080044
:101AF00002302502031CA32D9631FF268D312000D4
:101B0000A6002408860087012608810022008D1087
:101B100003302000A600A60B8B2D22000D140330ED
:101B20002000A600A60B922D22000D1003302000ED
:101B3000A600A60B992D01302000A6002608A407B8
:101B40000130A502782D9631FF268D312000A600A8
:101B50002408860087012608810022008D140330A6
:101B60002000A600A60BB22D22000D140330200089
:101B7000A600A60BB92D22000D1003302000A600F0
:101B8000A60BC02D9431AB2408002000A700A801AB
:101B9000A901AA010230A3002308A8002108FD3EE4
:101BA000A300FF3003180030A4002408803A803CD2
:101BB000031DDC2D230828020318392E20002908D4
:101BC000A400A3012A08A6002908A5002608A5004C
:101BD000A60123082504A90024082604AA00280831
:101BE0002707A3002308860087010108A400A50198
:101BF0002408A9062508AA062A08A4002908A30083
:101C00000430A436A30C890B012E0F302305A50048
:101C100000302405A6002508A9062608AA062908DA
:101C2000A400A301A30EA40EF030A40523080F39CD
:101C3000A404F030A3052308A9062408AA06FF304F
:101C40002905A30000302A05A400A30EA40EF0303D
:101C5000A40523080F39A404F030A305A335A40D6F
:101C60002308A9062408AA060130A3002308A80710
:101C7000CE2D20002A08A2002908A10008001F304C
:101C800020006505A80000306605A9002808290481
:101C9000031D952EE03065063F3003196606031DCF
:101CA000662E22002E08003E2000A800E030220010
:101CB0002F3D2000A90000302902213003192802FD
:101CC000031C952E0030A1002030912E20006608C4
:101CD00022002F02031D702E2000650822002E0214
:101CE000031C8B2E20006509A8006609A900A80A1C
:101CF0000319A90A22002E0820002807AA002200A2
:101D00002F082000293DAB0000302B024130031981
:101D10002A02031C952E20006508203EA1000030F9
:101D2000663DA200953183258E31FF3020002605C7
:101D3000A8003F302705A900280A3F3003192906CB
:101D4000031DAB2E6608A2006508A100FE30A300AB
:101D50003F30A400B42E20006608A2006508A10050
:101D60002708A4002608A30096314D268E310130A5
:101D70002000E5070030E63D403066066504031D9F
:101D800008000030E5002030E60008002300370896
:101D90002000BC00230036082000BB0023003508CB
:101DA0002000BA00230034082000B90061308B31D4
:101DB000F8238E310A302000A1000030A20022005A
:101DC00063082000B600B7013608A3003708A40056
:101DD0008A311A228E3120002208850021088400D1
:101DE000003084079830853D0008B8003808B900F5
:101DF000B9150A30A1000030A200220063082000BB
:101E0000B600B7013608A3003708A40089313D2188
:101E10008E312000220885002108840000308407CC
:101E20009830853D0008B8003808BA000A30A10093
:101E30000030A200220062082000B600B701360878
:101E4000A3003708A4008A311A228E31200022080C
:101E5000850021088400003084079830853D000803
:101E6000B8003808BB000A30A1000030A2002200F0
:101E700062082000B600B7013608A3003708A400A6
:101E800089313D218E3120002208850021088400FF
:101E9000003084079830853D0008B8003808BC0041
:101EA0003930A5000030A6000430B6003608A7007F
:101EB0000030973160270800F800F701F901FA01B6
:101EC000F501F6010230F1007108F7007008FD3EDF
:101ED000F100FF3003180030F2007208803A803CB5
:101EE000031D742F710877020318D12F7908F200AF
:101EF000F1017A08F4007908F3007408F300F401A2
:101F000071087304F90072087404FA0077087807FE
:101F1000F10071088600013087000108F200F3012A
:101F20007208F9067308FA067A08F2007908F100D7
:101F30000430F236F10C890B992F0F307105F30044
:101F400000307205F4007308F9067408FA0679087F
:101F5000F200F101F10EF20EF030F20571080F39C6
:101F6000F204F030F1057108F9067208FA06FF3044
:101F70007905F10000307A05F200F10EF20EF03032
:101F8000F20571080F39F204F030F105F135F20D68
:101F90007108F9067208FA060130F1007108F707B6
:101FA000662F7008FE3E7807F10071088600013048
:101FB00087000108F200F3017208F5007308F600CB
:101FC0000830F535F60D890BE12F7008FD3E7807D6
:101FD000F10071088600013087000108F200F3016A
:101FE0007208F5047308F60476087A06031DFA2FC2
:101FF00075087906031DFE2F013008000030080027
:1026400082302200970008002000E70122000C16CB
:1026500008006830210099009A0108002000E70175
:10266000E70A22000C120800240094013030950083
:1026700092010800640080010131890B3B2B00347A
:10268000013021009D00C3309E009B019C01080089
:102690002000A100240095132000210824009100AF
:1026A000141C502B110808002000A1002108230051
:1026B0009A002000111200002000111A08000000EA
:1026C0000000000000005C2B2000A30022008C1200
:1026D00020002308933148239331200022089331AE
:1026E000482322008C16080021001508C03917382D
:1026F0009500D93020009500D930A1002108220092
:10270000ED000B118B1608000130F000700821005D
:10271000EE0722003B0803198F2B0130BB023B0858
:10272000031D080021001714080022003A03031DAE
:102730009E2B8831C32093312200BA013803031D38
:10274000080085313B252200B80108002000A400C4
:10275000A301241CAF2B2108A2002208A307031009
:10276000A10D0310A40C2408031DA92B23080800A5
:1027700000309331E02393312000A500250821008B
:10278000EF00EF146F082000A5002508A20080309C
:102790009331642308002000A8000F302805A5000D
:1027A0000A30A6002608A1002808A7000430A73692
:1027B000890BD72B27089331A62320002507080073
:1027C0002000A30022008C1220002308933148230C
:1027D0009331FF30933148232000A2002208A40047
:1027E00022008C16200024080800933129239331FD
:1027F0009531E5259331933134239331943172240B
:10280000933193314023933193312023933193318A
:10281000742308002000A60022000E1004302000BF
:10282000A5002508A10080309531A32594310830FA
:102830002000A5002508A10026089531A325220027
:102840000E1408002000AD0022008C1220002D087C
:1028500093314823943120002A08AB002B08A200B2
:102860002908AC002C08A30000308A316C22220019
:102870008C1608002000A6002608A5002508A70041
:102880000130A3020030A43B230A0319240A0319D0
:1028900008002108A50027088600013087002508C8
:1028A00081000130A5002508A707402C2000A501C4
:1028B000A601211C5F2C2308A5072408A63D013092
:1028C000A335A40D890B602C0130A236A10C890B15
:1028D000652C21082204031D592C2608A200250876
:1028E000A1000800210091121112483023009F001E
:1028F00090309D0026309E0033309B009C012200CA
:10290000BF01C00108302000A10021082200EC0016
:10291000BD01BE01BC0121009116080022008D14EA
:1029200003302000A100A10B932C22000D140330D2
:102930002000A100A10B9A2C22008D100330200052
:10294000A100A10BA12C22000D1003302000A1003A
:10295000A10BA82C080022000D1003302000A100BC
:10296000A10BB02C22008D1003302000A100A10B80
:10297000B72C22000D1403302000A100A10BBE2CA7
:1029800022008D1403302000A100A10BC52C0800EB
:10299000083022006C020318E32C4008A83E860091
:1029A00001308700010823009A000130F000700810
:1029B0002200C007083040020318C0010130F000B7
:1029C0007008EC0708002100111208002000A40084
:1029D0002408A300A30DA30D21001D082000230639
:1029E0008339230621009D001D14003200320000AF
:1029F00021009D149D18FA2C1C082000A200210023
:102A00001B082000A100080022008C150C160C14D5
:102A10008C140E140E150C178E140D148D146300E7
:102A200020006A080319182D02306A06031D202DA4
:102A300022008C1120006703031D202D22000C12A0
:102A400096312A26080000308B1B01302000A3009D
:102A50008B132108230091002000220823009200FC
:102A600015131514000000002000230C031C8B1309
:102A700003188B17230014082000A200230013085A
:102A80002000A10008002000A80026080319080063
:102A90002508A2002408A1009531232595312000A6
:102AA00028088600023087002108C03F2208C13F65
:102AB0000130A4070030A53D0230A7002708A80771
:102AC0000130A602452D2000A60000309331E023FE
:102AD00095312000A50025082100EF003F3020009F
:102AE000A50025082100EF0520002608A5002508DF
:102AF0002100EF046F082000A5002508A200803007
:102B000093316423080000308B1B01302000A300A8
:102B10008B1321082300910020002208230092003B
:102B200015131516151555309600AA3096009514F4
:102B300000000000230015112000230C031C8B1340
:102B400003188B1708002000A300A4012108240209
:102B500003180800A31BAF2D22000E11B12D220077
:102B60000E158E10F9302000A2000000A20BB52D2A
:102B70000032000022008E1403102000A30D01304B
:102B8000A2002208A407A62D2000A300A40121086A
:102B90002402031808002318D02D22000E11D22D74
:102BA00022000E158E10F9302000A2000000A20BAA
:102BB000D62D0032000022008E1403102000A30C3A
:102BC0000130A2002208A407C72D7B3022008C0010
:102BD000803021008C0023008C0122008D01FC300C
:102BE00021008D00103023008D002C3024008D003A
:102BF000073022008E00D03021008E0023008E018D
:102C0000240090012100951322009D010800FF304F
:102C10002000A1002108A3008C1F102E8D1A282E41
:102C20000D30A200FB30A100A10B142EA20B142E1C
:102C3000003220008C1F1E2E8D1A282E8D1A222E57
:102C4000A301A30A8C1B282E0230A1002108A30097
:102C50002308080001302000A1002108EA07043001
:102C60006A060319372E0D306A02031C382EEA015A
:102C70000130A10021082200B60783303602031874
:102C8000B60101302000A10021082200B7078330DF
:102C90003702031C0800B701080000308B1B01300D
:102CA0002000A5008B132300151315159516200081
:102CB0002108230091002000220823009200200018
:102CC0002308230093002000240823009400951279
:102CD00055309600AA30960095140000000023009D
:102CE00015112000250C031C8B1303188B170800EB
:102CF000230033082000AF00230032082000AE007C
:102D0000230031082000AD00230030082000AC0073
:102D100010308400983085000008AB002B08AD000F
:102D20000C308400983085000008AB002B08AE0002
:102D30002C30A5000030A6000430AB002B08A70003
:102D40000030973160270800200021082204031971
:102D5000CC2EA601A60AA21BB72E0130A135A20DCA
:102D6000890BAE2E0130A5002508A607AB2E220840
:102D70002402031DBD2E21082302031CC32E21089B
:102D8000A3022208A43B0130A236A10C890BC42E59
:102D90000130A602031DB72E2408A2002308A100BB
:102DA00008002000B1000A30A1000030A200310864
:102DB000AA00AB012A08A3002B08A40089313D21F9
:102DC000963120002108AC002208AD000A30A10095
:102DD0000030A2003108AE00AF012E08A3002F087A
:102DE000A4008A311A22963120002108B000033055
:102DF000B035FF3E031DF82E30352C0708002000AB
:102E0000A20122008D142000A30108302302031820
:102E10002D2F0310A20D22000D1403302000A1005D
:102E2000A10B102F21008D1420008D1C1B2F2100C1
:102E30008D102000221421008D1022000D1003306F
:102E40002000A100A10B222F01302000A1002108A9
:102E5000A30708302302031C0A2F220808002000C1
:102E6000B000220023082000AF002200220820002A
:102E7000AE00220021082000AD0022002008200022
:102E8000AC0000308400983085000008AB002B08AF
:102E9000AD003008003E840098300318013E8500E4
:102EA0000008AB002B08AE002C30A5000030A600B7
:102EB0000430AB002B08A7000030973160270800D2
:102EC0002000A90022000E1003302000A8002808CE
:102ED000A100A0309531A325973106302000A8002D
:102EE0002808A10029089531A32597312000AA01BF
:102EF00027082A020318922F0830A8002808A100EA
:102F0000250884002608850000089531C4259731DE
:102F100001302000A8002808AA070130A5070030CA
:102F2000A63D782F22000E1408002000AD01AE014E
:102F3000270828040319C52FAC01AC0AA81BAA2F27
:102F40000130A735A80D890BA12F0130AB002B084C
:102F5000AC079E2F0130AD35AE0D890BAB2F280885
:102F60002A02031DB52F27082902031CBC2F27089E
:102F7000A9022808AA3B2D140130A836A70C890BFA
:102F8000BD2F0130AC02031DAA2F2E08A8002D086A
:102F9000A700080020006608A2006508A1005530BF
:102FA000A3005530A40096314D26973140302000C3
:102FB00066066504031DE12F0030E5002030E600C1
:102FC000E52F0130E5070030E63D6608A200650800
:102FD000A1005530A3005530A40096314D269731FD
:102FE0004030200066066504031DFB2F0030E5001D
:102FF0002030E60008000130E5070030E63D08001B
:10300000D7345034B534F1347234E334E7345134C6
:10301000F734F3347734E6348734F434A734273480
:0A30200057342034203420342034CB
:020000040001F9
:04000E00ECFFFFDF25
:00000001FF
