:040000008031132810
:100008007E14803120007F08F2008B1A0B1D0E2809
:100018008931962172082000FF007E100900803186
:100028001528F801F901FA016530840000308500CF
:100038000930883139208031A030840000308500B3
:1000480045308831392080312030840001308500E6
:10005800403088313920803158308400883085001C
:10006800E5308600003087000A30883133207E1062
:1000780020008431712C2000D501D601D901DA0184
:10008800D301D401D701D8010030E8000030E700DF
:100098000030E6000030E5003F3021003F05200039
:1000A800CF004F08D100210041082000D000510D99
:1000B800D10CD00C5008E5005108E600890D893BA9
:1000C8008909E700E8002100BF1F6C282000E61618
:1000D80020006608DA006508D9006D03031D0129B0
:1000E8006B03031D01296A08D4006908D300203076
:1000F8005A06590403198228013083280030CF009A
:10010800D00169084F05D1006A085005D200D21AFB
:10011800D328EA1E9C286909CF006A09D000CF0AB3
:100128000319D00A4F08003EE9004030503DEA006C
:10013800DA1EAB285909CF005A09D000CF0A031993
:10014800D00A4F08003ED9004030503DDA005A0826
:100158006A02031DB128590869020318BF286909F2
:10016800CF006A09D000CF0A0319D00A59084F07EF
:10017800D5005A08CA285909CF005A09D000CF0A11
:100188000319D00A69084F07D5006A08503DD60000
:1001980000305602053003195502031CFC28823131
:1001A8000B2280312000CF00D0014F08D700500823
:1001B800D800581421003403031DE42820005815E2
:1001C8002000D8165808B4005708B3008C31AD2465
:1001D800803120006608B4006508B3008C31AD2476
:1001E80080312100B60120006608EA006508FF2872
:1001F8005408EA005308E900912903306D06031DED
:1002080091296B03031D91297908D4007808D3003C
:1002180020305A06590403191329013014290030D3
:10022800CF00D00178084F05D10079085005D200D9
:10023800D21A6429F91E2D297809CF007909D0002E
:10024800CF0A0319D00A4F08003EF8004030503D4D
:10025800F900DA1E3C295909CF005A09D000CF0A03
:100268000319D00A4F08003ED9004030503DDA004B
:100278005A087902031D422959087802031850299F
:100288007809CF007909D000CF0A0319D00A590894
:100298004F07D5005A085B295909CF005A09D000E1
:1002A800CF0A0319D00A78084F07D5007908503DBE
:1002B800D60000305602053003195502031C8D295B
:1002C80082310B2280312000CF00D0014F08D700A7
:1002D8005008D800D81421003503031D75292000C3
:1002E800D8152000D8165808B4005708B3008C3128
:1002F800AD24803120006608B4006508B3008C3155
:10030800AD2480312100B70120006608F900650896
:1003180090295408F9005308F8006608DA006508BF
:10032800D9002100BF1FD829BA01BA0A20005909EB
:10033800CF005A09D000CF0A0319D00A4F08003E4F
:10034800D9004030503DDA005A08D0005908CF0093
:10035800D036CF0CD036CF0CD036CF0C4F0821007A
:10036800B200200050082100B300200059080739C6
:10037800CF004F08EC0004306C02031CC729013081
:10038800CF004F08EC0703306C060319CF2908305B
:100398006C06031D08002100321C080001302000F3
:1003A800CF004F08EC0708002100BA0120005A08C6
:1003B800D0005908CF00D036CF0CD036CF0CD0366D
:1003C800CF0C4F082100B200200050082100B300D4
:1003D800200059080739CF004F08EC0004306C02A0
:1003E800031CFA290130CF004F08EC0704306C06D3
:1003F8000319022A08306C06031D08002100321C6C
:10040800080001302000CF004F08EC07080000303A
:100418002000C6000030C5000030C4000030C30012
:100428000030CA000030C9000030C8000030C700E2
:100438000030CE000030CD000030CC000030CB00C2
:10044800DA308F313827823120006D03031DE02A0E
:1004580021005E085006031DE92A21005A082000E1
:10046800B900BA0121005C082000BB00BC013B08B0
:10047800F3003C08F4001030F5000E30F6008A3125
:100488000322823173082000BD007408BE002100D9
:100498005B082000BF00C0013F08F3004008F400DB
:1004A8003C30F5000030F6008A31032282317308AF
:1004B80020003D07C10074083E3DC20039084107CD
:1004C800C7003A08423DC800C901C81BC90349080A
:1004D800CA0021004C082000B900BA0121004E08CA
:1004E8002000BB00BC013B08F3003C08F4001030BE
:1004F800F5000E30F6008A3103228231730820009D
:10050800BD007408BE0021004D082000BF00C001D6
:100518003F08F3004008F4003C30F5000030F600D6
:100528008A3103228231730820003D07C100740814
:100538003E3DC20039084107CB003A08423DCC0095
:10054800CD01CC1BCD034D08CE004708B9004808A3
:10055800BA004908BB004A08BC004B09BD004C0959
:10056800BE004D09BF004E09C000BD0A0319BE0AEE
:100578000319BF0A0319C00A3D08B9073E08BA3D66
:100588003F08BB3D4008BC3D3C08C6003B08C500D1
:100598003A08C4003908C300CC3086008701DA3035
:1005A8008400850107302000B90012001E00B90B35
:1005B800D92A20004308080003306D06031DA72B25
:1005C80021005E0857060319F82A8B314E23823121
:1005D8008B317D2382318631DB2682312100B601C1
:1005E800B7012000ED01A72B21005A082000B9000F
:1005F800BA0121005C082000BB00BC013B08F300E5
:100608003C08F4001030F5000E30F6008A31032261
:10061800823173082000BD007408BE0021005B0809
:100628002000BF00C0013F08F3004008F4003C3040
:10063800F5000030F6008A31032282317308200069
:100648003D07C10074083E3DC20039084107C70094
:100658003A08423DC800C901C81BC9034908CA0075
:10066800210053082000B900BA01210055082000D4
:10067800BB00BC013B08F3003C08F4001030F50057
:100688000E30F6008A310322823173082000BD0043
:100698007408BE00210054082000BF00C0013F08B4
:1006A800F3004008F4003C30F5000030F6008A31D1
:1006B80003228231730820003D07C10074083E3DC3
:1006C800C20039084107CB003A08423DCC00CD01B1
:1006D800CC1BCD034D08CE004708B9004808BA0026
:1006E8004908BB004A08BC004B09BD004C09BE00C4
:1006F8004D09BF004E09C000BD0A0319BE0A0319FF
:10070800BF0A0319C00A3D08B9073E08BA3D3F08A9
:10071800BB3D4008BC3D3C08C6003B08C5003A0844
:10072800C4003908C300D33086008701DA3084005A
:10073800850107302000B90012001E00B90BA02B5C
:10074800200043080800003008002000AA0121000A
:1007580033082000AC00210032082000AB00003034
:10076800F300F4000430F5000030F600E130893180
:10077800CC21833120002B082C0403193D2C013097
:100788002000A9002908AA070A30A1000030A20009
:100798002C08A4002B08A3008C3178248331200076
:1007A8002208AC002108AB00BE2B6430A100003049
:1007B800A200210033082000A400210032082000F4
:1007C800A3008C3178248331200022088500210879
:1007D8008400003084079030853D0008A90029086E
:1007E8002100E1000A302000A1000030A200210011
:1007F8003308F6003208F5006430F3000030F400E6
:100808008B312123833174082000A4007308A300CE
:100818008C31782483312000220885002108840047
:10082800003084079030853D0008A9002908210080
:10083800E2000A30F3000030F40021003308F6002B
:100848003208F5008B312123833174088500730841
:100858008400003084079030853D362C00308400B9
:100868009030850000082000A90029082100E30035
:100878004C2C20002A08003A0319322C013A03199B
:100888001D2C033A0319F62B013A0319D92B4C2CCA
:1008980021003A03031D562C20302000A900290806
:1008A8002100E10020006C08003E8400903003180D
:1008B800013E850000080838A90029082100E40045
:1008C800E1302000A0000030A1000430A900290870
:1008D800A20000308C31432408002200E201E30129
:1008E800E401E001E1018831D22084313D3020006B
:1008F800E400E130E3007A30E200E20B812CE30B04
:10090800812CE40B812C003220008D1A8E2C2200C1
:100918000C15902C22000C118C11E301E401E2016A
:10092800103062020318AD2C0B30893162218431FA
:10093800220063087307E3006408743DE400013093
:100948002000E20062082200E20710306202031C65
:10095800982C630E0F39E300640EF039E304640E3B
:100968000F39E400033064022030031963020318CE
:10097800BF2C0C11BE2C2200E201E301E4018F31EF
:100988009C27843121008D158931B1218431523061
:100998008831E720843128308831E72084310230DB
:1009A8008831E720843106308831E72084311130DE
:1009B8002000A0009030A1000430E2006208A200EC
:1009C80000308C31432484312000ED01EB012100FB
:1009D800B601B7012000E901EA01F801F901210097
:1009E800B401B5012200E301E40100302100AE00AA
:1009F8002030AF008C31102484318B170B170B304B
:100A0800893162218431220063087307E300640896
:100A1800743DE40001302000E20062082200E20791
:100A280010306206031D2E2DE201630E0F39E3001C
:100A3800640EF039E304640E0F39E40003306402F5
:100A480020300319630203182B2D0C112A2D2200C4
:100A5800E301E4018B31DD2384318531382584318C
:100A68008E31D5268431032D2000DF012100B80105
:100A78008A31832285312000DC005C08DF005F08B2
:100A880003190800C42D03302100380203184F2D24
:100A980020008D1E472D033021003802031C5C2DD9
:100AA80022000C118C1504308831E7208531892DFE
:100AB80000302000E0002030E10023306102E830FF
:100AC800031960020318892D6108F4006008F30017
:100AD80089314921853174082000DE007308DD0062
:100AE8005E0888313F20853120005D0888313F202D
:100AF800853101302000E0070030E13D23306102FC
:100B0800E83003196002031C682D20008D1A0800C4
:100B1800892D0330210038020318952D20008C1FE1
:100B28008D2D033021003802031CB82D20006B08DE
:100B3800031DB12D8831272085318B317D238531E7
:100B48008631DB2685312100B601B7012000E90195
:100B5800EA01F801F901ED01C02D88311D20853128
:100B68008B314E238531C02D05302000DC005C0818
:100B7800ED008B31DD23853120008C1B0800C02D52
:100B88005F08013A0319472D033A03198D2DCD2D1E
:100B98000800080021002B082000B60021002A08C0
:100BA8002000B500210029082000B40021002808F1
:100BB8002000B300DA308F31382785310A30F3004E
:100BC8000030F40021005C082000B000B1013008BA
:100BD800F5003108F6008E318326853174088500CA
:100BE80073088400003084079030853D0008200099
:100BF800B2003208B300B3150A30F3000030F40035
:100C080021005C082000B000B1013008F50031086F
:100C1800F6008D31A025853174088500730884009D
:100C2800003084079030853D00082000B20032086B
:100C3800B4000A30F3000030F40021005B08200003
:100C4800B000B1013008F5003108F6008E31832676
:100C5800853174088500730884000030840790305B
:100C6800853D00082000B2003208B5000A30F300C4
:100C78000030F40021005B082000B000B10130080A
:100C8800F5003108F6008D31A025853174088500FE
:100C980073088400003084079030853D00082000E8
:100CA800B2003208B6003330A0000030A100043092
:100CB800B0003008A20000308C3143240800200026
:100CC800A100A201A20A893117218631D0308D31C5
:100CD800E62586312000A0002008A2002208031D76
:100CE800080021088D31E62586312000A000200863
:100CF800A2002208031D0800893117218631D1304E
:100D08008D31E62586312000A0002008A2002208A7
:100D1800031D080002307702031CB92E8A31CB224A
:100D280086312000A000760886008701200881000F
:100D380022008D100D302000A000A00BA12E220053
:100D48000D140D302000A000A00BA82E22000D10BD
:100D58000D302000A000A00BAF2E01302000A00015
:100D68002008F6070130F7028E2E8A31CB22863111
:100D78002000A00076088600870120088100220054
:100D88008D140D302000A000A00BC82E22000D14D9
:100D98000D302000A000A00BCF2E22000D100D302A
:100DA8002000A000A00BD62E893130210800DA30AF
:100DB8008F3138278631CC3086008701DA308400BD
:100DC800850107302000B70012001E00B70BE82E7F
:100DD800D33086008701DA3084008501073020008F
:100DE800B70012001E00B70BF52E21006008200086
:100DF800B700B8013708B3003808B4008C31AD2407
:100E0800863121005F082000B700B8013708B30019
:100E18003808B4008C31AD24863121005E082000EA
:100E2800B700B8013708B3003808B4008C31AD24D6
:100E3800863121005C082000B700B8013708B300EC
:100E48003808B4008C31AD24863121005B082000BD
:100E5800B700B8013708B3003808B4008C31AD24A6
:100E6800863121005A082000B700B8013708B300BE
:100E78003808B4008C31AD24863121005D0820008B
:100E8800B700B8013708B3003808B4008C31AD2476
:100E98000800E03020002005A6003F302105A7000B
:100EA80000308B1B0130A80027082106031D5E2F88
:100EB80026082006031D08008B132108F4002008CB
:100EC800F3008931E721873123001513151595168D
:100ED8002000A901203029020318AF2F2008230081
:100EE80091002000210823009200200029352207C4
:100EF800A30023088600013087000108230093001F
:100F0800200029352207A300230886000130870026
:100F1800403FA400413FA5002508230094001F304E
:100F280020002906031D9A2F23009512553023000F
:100F38009600AA30960095140000000001302000A9
:100F4800A0070030A13D0130A3002308A9072030E5
:100F58002902031C722F230015112000280C031CE2
:100F68008B1303188B170800403089317C21873197
:100F78002100B90120008D1DC62F1F302100390224
:100F8800031CBE2F1F3021003902031CCE2FC301C2
:100F9800C30A0800C4302000A8002808A3000630AF
:100FA800A9002908A4000A308831FF20210044083C
:100FB8002000A80028082100BC0045082000A8003F
:100FC80028082100BD0046082000A80028082100A4
:100FD800BF0047082000A80028082100C1004808D1
:100FE8002000A80028082100C00049082000A80007
:080FF80028082100C3000800D5
:1010320082302200970008002000EB0122000C16EB
:1010420008007830210099009A0108002000EB0185
:10105200EB0A22000C1208002400940130309500A3
:1010620092010800FE0012001E00FE0B342800341C
:10107200640080010131890B3A280034F30020001A
:10108200111E4028730823009A0008000130210035
:101092009D00E3309E009B019C010800F3002400A8
:1010A200951373089100141C542811080800013488
:1010B20050342334023408340734163400340034F4
:1010C2000034483023009F0080309D0026309E006F
:1010D200A0309B0001309C000800F50022008C1219
:1010E200750888314F208831740888314F202200DA
:1010F2008C160800003088319B208831F700770871
:10110200FA00FA147A08F7007708F4008030883180
:101112006E20080021001508C03917389500643088
:10112200200095006430F30073082100EF000B11DA
:101132008B160800F50022008C12750888314F20AA
:101142008831FF3088314F20F4007408F600220005
:101152008C1676080800F600F501761CB428730890
:10116200F4007408F5070310F30D0310F60C76086B
:10117200031DAE2875080800F7000F307705200020
:10118200A0000A30A1002108F3007708A200043071
:10119200A236890BC92822088831AC2020002007FA
:1011A20008008831222088318A31612288318831D1
:1011B2002D2088318831622088318831472088315A
:1011C20088318B2088318831192008002000A10045
:1011D20022000E1004302000A0002008F30080300E
:1011E2008A312122883108302000A0002008F30033
:1011F20021088A31212222000E1408002000A700B3
:1012020022008C122000270888314F2088312000CC
:101212002408A5002508F4002308A6002608F500E6
:1012220000308E31322622008C16080022008D14E6
:101232000D30F300F30B1B2922000D140D30F300C7
:10124200F30B212922008D100D30F300F30B272917
:1012520022000D100D30F300F30B2D29080022009F
:101262000D100D30F300F30B342922008D100D30D8
:10127200F300F30B3A2922000D140D30F300F30BA7
:10128200402922008D140D30F300F30B462908008B
:1012920000308B1B0130F5008B1373082300910083
:1012A200740892001513151400000000750C031C3D
:1012B2008B1303188B1723001408F4001308F30090
:1012C2000800F6007608F500F50DF50D21001D0861
:1012D2007506833975069D001D140630F500F50B61
:1012E2007029000021009D149D1875291C08F40026
:1012F2001B08F30008002000A000003088319B206A
:101302008931F7007708FA003F30F7007708FA05CD
:1013120020002008F7007708FA047A08F700770817
:10132200F400803088316E2008000B1121006F0814
:10133200200095000130F10071082100B907013049
:10134200AC070030AD3D00302D02323003192C02C3
:10135200031C08008A31A6222100AC01AD0108005D
:10136200E530860000308700273084000030850099
:101372000A302000A50016001A00A50BBC29273050
:10138200A5002508F6000730A6002608F700003061
:101392008C31E32408002000A0002008F700770821
:1013A200A1000130F5020030F63B750A0319760AF6
:1013B200031908007308F7002108860087017708DF
:1013C20081000130F7007708A107D22900308B1B7A
:1013D2000130F5008B13730823009100740892000A
:1013E20015131516151555309600AA30960095144A
:1013F2000000000023001511750C031C8B13031849
:101402008B1708002000A001A101731C0D2A75088A
:101412002000A0077608A13D0130F535F60D890BB5
:101422000E2A0130F436F30C890B132A7308740464
:10143200031D062A20002108F4002008F3000800FA
:10144200F600F7017308770203180800F61B2C2A2E
:1014520022000E112E2A22000E158E100630F500E3
:101462003030F400F40B332AF50B332A000022004B
:101472008E140310F60D0130F4007408F707232AC6
:10148200F600F701730877020318080076184C2A51
:1014920022000E114E2A22000E158E100630F50083
:1014A2003030F400F40B532AF50B532A00002200CB
:1014B2008E140310F60C0130F4007408F707432A67
:1014C2007B3022008C00803021008C0023008C01B4
:1014D20022008D01FC3021008D00103023008D0090
:1014E2002C3024008D00073022008E00D0302100E5
:1014F2008E0023008E01240090012100951322000A
:101502009D010800FF30F3007308F50020008C1FD6
:101512008C2A8D1AA42A3430F400F130F300F30B34
:10152200902AF40B902A003220008C1F9A2A8D1ADE
:10153200A42A8D1A9E2AF501F50A8C1BA42A0230D0
:10154200F3007308F500750808000130F000700818
:101552002000ED0704306D060319B32A0D306D0229
:10156200031CB42AED010130F00070082100B80715
:101572000130F0007008B607833036020318B60156
:101582000130F0007008B70783303702031C0800EF
:10159200B7010800F40122008D14F501083075022C
:1015A2000318F32A0310F40D22000D140D30F3007A
:1015B200F30BD92A21008D1420008D1CE32A21006F
:1015C2008D10741421008D1022000D100D30F300C7
:1015D200F30BE92A0130F3007308F50708307502AE
:1015E200031CD42A74080800210027082000AA003E
:1015F200210026082000A900210025082000A800BB
:10160200210024082000A7001030840090308500BB
:101612000008A6002608A8000C308400903085003F
:101622000008A6002608A9002730A0000030A1006B
:101632000430A6002608A20000308C3143240800A2
:10164200730874040319492B2000A001A00AF41B9B
:10165200342B0130F335F40D890B2B2B0130F700BD
:101662007708A007282B74087602031D3A2B73080B
:101672007502031C402B7308F5027408F63B013017
:10168200F436F30C890B412B0130A002031D342BDD
:101692007608F4007508F300080021002F082000E6
:1016A200AB0021002E082000AA002030F7007708A6
:1016B200AC005530AD005530AE008D315B258B311D
:1016C20001302100AE070030AF3D2F082000AB00F3
:1016D20021002E082000AA002030F7007708AC0075
:1016E2005530AD005530AE008D315B250130210003
:1016F200AE070030AF3D080021002F082000AB00EC
:1017020021002E082000AA002030F7007708AC0044
:10171200AA30AD00AA30AE008D315B258B3101308D
:101722002100AE070030AF3D2F082000AB002100A2
:101732002E082000AA002030F7007708AC00AA305B
:10174200AD00AA30AE008D315B2501302100AE071D
:101752000030AF3D08002000AB002100230820002C
:10176200AA00210022082000A9002100210820004F
:10177200A800210020082000A7000030840090303B
:1017820085000008A6002608A8002B08003E840059
:1017920090300318013E85000008A6002608A90023
:1017A2002730A0000030A1000430A6002608A200C5
:1017B20000308C3143240800FD2B01308B31AC23E7
:1017C2008B3122008C140C140C108731B8270800BE
:1017D2008D311E25080002308B31AC238B31220063
:1017E2000C148C148C108731B82708008D311E25FB
:1017F20008008531CE25080020006D08003A031943
:10180200DE2B013A0319E92B033A0319EC2B013AB7
:101812000319F72B063A0319FA2B0F2C08002000A4
:10182200B601B701B401B501B3010030B6002030F2
:10183200B70040303702003003193602031808009F
:101842003708F4003608F300893149218C317408D5
:101852002000B5007308B400340A3F30031935067E
:10186200031D3D2C37082100AF002000360821005F
:10187200AE008B314E23080001302000B607003045
:10188200B73D1A2C2000A40022000E1003302000C5
:10189200A3002308F300A0308A3121228C310630C4
:1018A2002000A3002308F30024088A3121228C316E
:1018B2002000A501220825020318752C0830A30078
:1018C2002308F300200884002108850000088A31DB
:1018D20041228C3101302000A3002308A5070130EA
:1018E200A0070030A13D5B2C22000E14080020004E
:1018F200A701A801210822040319A82CA601A60AFF
:10190200A21B8D2C0130A135A20D890B842C013034
:10191200A5002508A607812C0130A735A80D890B43
:101922008E2C22082402031D982C21082302031C5A
:101932009F2C2108A3022208A43B27140130A236BF
:10194200A10C890BA02C0130A602031D8D2C2808A6
:10195200A2002708A1000800FF3020003305B500CF
:101962003F303405B600350A3F3003193606031DF1
:10197200CB2C21002F082000AB0021002E082000D4
:10198200AA002030B5003508AC00FE30AD003F3073
:10199200AE00DB2C21002F082000AB0021002E0816
:1019A2002000AA002030B5003508AC003408AE0093
:1019B2003308AD008D315B2501302100AE070030C8
:1019C200AF3D08002000A200A401A40A893117211A
:1019D2008C31D0308D31E6258C312000A0002008DA
:1019E200A4002408031D080022088D31E6258C314D
:1019F2002000A0002008A4002408031D0800A30161
:101A02007708230203181B2D23087607A00020085D
:101A12008600870101088D31E6258C312000A10066
:101A22002108A4002408031D08000130A00020089A
:101A3200A307012D89313021080021004308031D2D
:101A4200372D80313F208D318331A9238D31200004
:101A52006D03031D2F2D2100B40108000330200067
:101A62006D06031D08002100B501080020006D036A
:101A7200031D3F2D2100B401B40A472D033020007D
:101A82006D06031D472D2100B501B50A8A31F522E5
:101A92008D31FF302000DB005B08F400823088319A
:101AA2006E208D3188317B208D31F4018230883176
:101AB2006E200800E03020002A05B0003F302B05E0
:101AC200B1002A081F39F6007608AF00B2012030B3
:101AD200320203188A2D32083007F3003108031846
:101AE200310AF400893149218D31200032352C0729
:101AF200F60076088600013087007308C03F74083C
:101B0200C13F0130F6007608B20720303202031CD2
:101B12006C2D2F352C07F6007608860001308700E1
:101B22002D08C03F2E08C13F3108A1003008A00097
:101B32002C08F6007608A20087314D270800200005
:101B4200A101F61FAB2DF509F609F50A0319F60AEC
:101B5200A101A10AF41FB22DF309F409F30A031932
:101B6200F40A730874040319D92DA001A00AF41B06
:101B7200C42D0130F335F40D890BBB2D0130F70074
:101B82007708A007B82D74087602031DCA2D7308C2
:101B92007502031CD02D7308F5027408F63B013060
:101BA200F436F30C890BD12D0130A002031DC42D94
:101BB20021080319E12DF509F609F50A0319F60AB8
:101BC2007608F4007508F3000800F400F501083007
:101BD200750203180D2EF41FF12D22008D14F32D22
:101BE20022008D100D30F300F30BF52D22000D14A1
:101BF2000D30F300F30BFB2D0310F40D22000D103A
:101C02000D30F300F30B032E0130F3007308F507D8
:101C120008307502031CEC2D22008D140D30F300E8
:101C2200F30B112E22000D140D30F300F30B172EBF
:101C320021008D1420008D1C222E21008D100130D8
:101C4200080021008D1022000D100D30F300F30B5F
:101C5200282E22008D100D30F300F30B2E2E0030B3
:101C62000800F600F7017408031908007608031D3E
:101C7200642E692E7508031D4A2E77087607200008
:101C8200A000200886008701010888314F208E318C
:101C92005F2E770876072000A000200886008701C3
:101CA200010888314F208E312000A1007708750786
:101CB200A20022088600870121088100013020004D
:101CC200A0002008F70774087702031808003B2ECB
:101CD2007508031908007408770203180800003019
:101CE20088314F208E312000A00077087507A100AF
:101CF200210886008701200881000130A000200809
:101D0200F7076C2E2000A101F41F8E2EF309F409AF
:101D1200F30A0319F40AA101A10AF61F992EF50983
:101D2200F609F50A0319F60A0130F7007708A10649
:101D3200A201A301730874040319C82EA001A00A0A
:101D4200F41BAD2E0130F335F40D890BA42E0130B6
:101D5200F7007708A007A12E0130A235A30D890B49
:101D6200AE2E74087602031DB82E73087502031C8A
:101D7200BF2E7308F5027408F63B22140130F436C4
:101D8200F30C890BC02E0130A002031DAD2E2108D9
:101D92000319D02EA209A309A20A0319A30A230830
:101DA200F4002208F30008002000D101D2016D03E3
:101DB200031D072F6B03031D072F79302100360205
:101DC200031C080082310B228E312000CF00D0018B
:101DD2004F08D1005008D200521421003403031DD1
:101DE200F42E20005215200052165208B400510859
:101DF200B3008C31AD248E3120006A08B40069082A
:101E0200B3008C31AD242100B6010800033020005C
:101E12006D06031D08006B03031D080079302100C5
:101E22003702031C080082310B228E312000CF00C2
:101E3200D0014F08D1005008D200D214210035033E
:101E4200031D252F2000D215200052165208B4007F
:101E52005108B3008C31AD248E3179082000B400D2
:101E62007808B3008C31AD242100B70108002000AE
:101E7200AF002530A3002308F6000730A400240891
:101E8200F7000030863163268F31200025087F3924
:101E92008831BD208F312000A3002F0886008701E2
:101EA2002308810026087F398831BD208F31200028
:101EB200A3002F0A860087012308810027083F39E3
:101EC2008831BD208F312000A3002F08023E8600FA
:101ED20087012308810028088831BD208F31200026
:101EE200A3002F08033E86008701230881002908EA
:101EF2008831BD208F312000A3002F08043E8600C8
:101F02008701230881002A088831BD208F312000F3
:101F1200A3002F08053E86008701230881002B08B5
:101F22008831BD202000A3002F08063E86008701CD
:101F32002308810008001530F6007608FA000F30F9
:101F4200F60076082100BE050730F6007608BE04CA
:101F5200C2017A08F6007608F400803088316E20DB
:101F62008F3121003E08F6007608F4008130883176
:101F72006E208F3121004208F6007608F40082308C
:101F820088316E208F317F30F6007608F40083307E
:101F920088316E208F31C030F6007608F40084302C
:101FA20088316E208F317F30F6007608F40085305C
:101FB20088316E208F31FF30F6007608F4008630CB
:101FC20088316E208F318030F6007608F400873039
:101FD20088316E208F31F401883088316E208F3144
:101FE200F401893088316E208F31F4018A308831D2
:101FF2006E208F31F4018B3088316E200800D73487
:102002005034B534F1347234E334E7345134F734B4
:10201200F3347734E6348734F434A734273457342E
:08202200203420342034203466
:020000040001F9
:04000E00E4FFFFDF2D
:00000001FF
