:1000000080312728B034E5347E14803120007F0809
:10001000A0008B1A0B1D10289431DD24803122287A
:100020002100911E1A282000911E1A288D31D925F1
:10003000803122282100111E22282000111E222892
:100040009531862520002008FF007E1009008031B0
:10005000292861308400003085000A309331D22392
:1000600080312100EE01EF01203084000130850055
:100070004B309331D2238031A03084000130850091
:1000800034309331D2238031203084000230850017
:1000900040309331D22380312200803102208031E0
:1000A000EE0080310320EF007E1020008431E32C2D
:1000B0002000D401D501D801D901D201D301D60144
:1000C000D7010030E4000030E3000030E2000030EF
:1000D000E1003F30220045052000CE004E08D00050
:1000E000220047082000CF00500DD00CCF0C4F0845
:1000F000E1005008E200890D893B8909E300E40032
:100100002200C51F85282000E21620006208D900C1
:100110006108D8006A03031D3B296703031D3B29BF
:1001200022002B082000D30022002A082000D20041
:1001300020305906580403199F280130A0280030A8
:10014000CE00CF0122002A0820004E05D000220058
:100150002B0820004F05D100D11A07292200AB1E21
:10016000C4282A092000CE0022002B092000CF003D
:10017000CE0A0319CF0A4E08003E2200AA004030E2
:1001800020004F3D2200AB002000D91ED428580982
:10019000CE005909CF00CE0A0319CF0A4E08003EFF
:1001A000D80040304F3DD900590822002B02031DD2
:1001B000DD282000580822002A020318EE282A0908
:1001C0002000CE0022002B092000CF00CE0A031908
:1001D000CF0A58084E07D4005908FE2820005809B5
:1001E000CE005909CF00CE0A0319CF0A22002A08EF
:1001F00020004E07D40022002B0820004F3DD500E0
:1002000000305502043003195402031C3229823194
:10021000682280312000CE00CF014E08D6004F0862
:10022000D700571422003403031D18292000571546
:100230002000D7165708A7005608A6008631892641
:10024000803120006208A7006108A6008631892657
:1002500080312200B601200062082200AB0020009D
:1002600061083829200053082200AB002000520802
:100270002200AA00ED29033020006A06031DED29A3
:100280006703031DED2922002D082000D300220062
:100290002C082000D2002030590658040319522996
:1002A000013053290030CE00CF0122002C0820005D
:1002B0004E05D00022002D0820004F05D100D11A94
:1002C000BA292200AD1E77292C092000CE00220079
:1002D0002D092000CF00CE0A0319CF0A4E08003E98
:1002E0002200AC00403020004F3D2200AD00200035
:1002F000D91E87295809CE005909CF00CE0A031903
:10030000CF0A4E08003ED80040304F3DD900590872
:1003100022002D02031D90292000580822002C02E3
:100320000318A1292C092000CE0022002D0920004D
:10033000CF00CE0A0319CF0A58084E07D400590837
:10034000B12920005809CE005909CF00CE0A03195F
:10035000CF0A22002C0820004E07D40022002D08CE
:1003600020004F3DD50000305502043003195402DF
:10037000031CE5298231682280312000CE00CF01A4
:100380004E08D6004F08D700D71422003503031DAE
:10039000CB292000D7152000D7165708A7005608EC
:1003A000A60086318926803120006208A7006108F6
:1003B000A6008631892680312200B701200062081C
:1003C0002200AD0020006108EB2920005308220024
:1003D000AD00200052082200AC0020006208D900C5
:1003E0006108D8002200C51F352AC001C00A2000BC
:1003F0005809CE005909CF00CE0A0319CF0A4E087A
:10040000003ED80040304F3DD9005908CF00580871
:10041000CE00CF36CE0CCF36CE0CCF36CE0C4E081B
:100420002200B20020004F082200B300200058082C
:100430000739CE004E08E90004306902031C242A63
:100440000130CE004E08E9070330690603192C2A53
:1004500008306906031D08002200321C0800013024
:100460002000CE004E08E90708002200C00120004D
:100470005908CF005808CE00CF36CE0CCF36CE0C60
:10048000CF36CE0C4E082200B20020004F082200CA
:10049000B300200058080739CE004E08E9000430A8
:1004A0006902031C572A0130CE004E08E9070430C8
:1004B000690603195F2A08306906031D0800220037
:1004C000321C080001302000CE004E08E907080069
:1004D00000302000C5000030C4000030C3000030F0
:1004E000C2000030C9000030C8000030C700003032
:1004F000C6000030CD000030CC000030CB00003012
:10050000CA0060308C317C24823120006A03031DD4
:100510003F2B220064085606031D482B220060086A
:100520002000B800B901220062082000BA00BB0117
:100530003A08A1003B08A2001030A3000E30A4002E
:1005400095311425823120002108BC002208BD000D
:10055000220061082000BE00BF013E08A1003F0844
:10056000A2003C30A3000030A40095311425823154
:10057000200021083C07C00022083D3DC10038088A
:100580004007C6003908413DC700C801C71BC80362
:100590004808C900220052082000B800B901220012
:1005A00054082000BA00BB013A08A1003B08A20091
:1005B0001030A3000E30A4009531142582312000A4
:1005C0002108BC002208BD00220053082000BE0004
:1005D000BF013E08A1003F08A2003C30A30000304C
:1005E000A400953114258231200021083C07C00069
:1005F00022083D3DC10038084007CA003908413D86
:10060000CB00CC01CB1BCC034C08CD004608B80076
:100610004708B9004808BA004908BB004A09BC00AD
:100620004B09BD004C09BE004D09BF00BC0A0319AF
:10063000BD0A0319BE0A0319BF0A3C08B8073D08E2
:10064000B93D3E08BA3D3F08BB3D3B08C5003A08EE
:10065000C4003908C3003808C20052308600013097
:100660008700603084000130850007302000B8002A
:1006700012001E00B80B382B20004208080003307F
:100680006A06031D082C220064085D060319572B17
:100690009431042482319431142482318E315626CF
:1006A00082312200B601B7012000EA01082C2200A5
:1006B00060082000B800B901220062082000BA00DA
:1006C000BB013A08A1003B08A2001030A3000E3085
:1006D000A40095311425823120002108BC00220895
:1006E000BD00220061082000BE00BF013E08A1003D
:1006F0003F08A2003C30A3000030A400953114252F
:100700008231200021083C07C00022083D3DC10085
:1007100038084007C6003908413DC700C801C71B5B
:10072000C8034808C900220059082000B800B901D0
:1007300022005B082000BA00BB013A08A1003B0878
:10074000A2001030A3000E30A40095311425823190
:1007500020002108BC002208BD0022005A08200009
:10076000BE00BF013E08A1003F08A2003C30A3002C
:100770000030A400953114258231200021083C0767
:10078000C00022083D3DC10038084007CA003908B2
:10079000413DCB00CC01CB1BCC034C08CD0046081F
:1007A000B8004708B9004808BA004908BB004A0920
:1007B000BC004B09BD004C09BE004D09BF00BC0A7E
:1007C0000319BD0A0319BE0A0319BF0A3C08B8077A
:1007D0003D08B93D3E08BA3D3F08BB3D3B08C5005A
:1007E0003A08C4003908C3003808C20059308600EE
:1007F0000130870060308400013085000730200020
:10080000B80012001E00B80B012C2000420808009E
:10081000003008002100E801E901ED01EA01EB01E7
:10082000EC01230039082000AB00AC01230038089C
:100830002000AD00AE012D08AE00AD012B082D0447
:100840002100E80020002C082E042100E9002300EC
:100850003A082000AB002B082100ED0069082000B9
:10086000A500210068082000A40021006D082000D8
:10087000AB002B08A60020309531E3258431FE30F3
:100880002000AB002B082100A000FE302000AB00B0
:100890002B082100A100A201A20A6D082000AB00D4
:1008A0002B082100A300EC016D086C020318852CB5
:1008B0006C35203E860002308700403F2000AB00B0
:1008C000413FAC002C08AD0021006C35043EA03E39
:1008D0008600870120002D08810021006C35203E14
:1008E00086000230870001082000AB0021006C3533
:1008F000053EA03E8600870120002B0881000130C4
:10090000AB002B082100EC07542C6D08073E20009B
:10091000AB002B08A100A0308D315F258431200071
:1009200022082100EB00200021082100EA006A08CB
:100930002000AB0021006D35043EA03E86008701FB
:1009400020002B08810021006B082000AB00210053
:100950006D35053EA03E8600870120002B088100F2
:10096000BB30AB0021006D35063EA03E86008701FE
:1009700020002B0881002100EC016D082000AB0055
:10098000AC01AB35AC0D2B08073EAD0000302C3D63
:10099000AE002E08803A803C031DD12C2D0821008A
:1009A0006C020318080021006C08A03E8600870135
:1009B00001089331E423843101302000AB002B087F
:1009C0002100EC07BD2C2300D601D701D801D401AA
:1009D000D50114302000DD005D082200EB0021006D
:1009E0001710971417119711171697126400883172
:1009F0000020843110302000DF003930DE001B3051
:100A0000DD00DD0B012DDE0B012DDF0B012D003292
:100A100020008D1A0E2D22000C15102D22000C1115
:100A20008C1121008D15523094319424843128305A
:100A300094319424843102309431942484310630EA
:100A400094319424843111302000A5009830A60000
:100A50000430DD005D08A7000030883115208431A6
:100A60002000EA01E7012200B601B701AA01AB01AB
:100A7000AC01AD01B401B5012000E8012200BA01CA
:100A8000EB01B801AE01AF012300D701D80100305E
:100A90002000E5002030E6008931FB21843164002C
:100AA0002100171420008D1A572D6400522D8B172A
:100AB0000B1788317F2084318E31D82684318C31D8
:100AC0001324843194313424843120006703031DBE
:100AD000B02D22002E08003E2000DD00E030220074
:100AE0002F3D2000DE0000305E02203003195D0241
:100AF0000318862D6509DD006609DE00DD0A03198D
:100B0000DE0A5D08FF3EDF003F30A12D22002F08E6
:100B100020006602031D902D22002E082000650291
:100B20000318B02D6509DD006609DE00DD0A031932
:100B3000DE0A22002E0820005D07DF0022002F08B9
:100B400020005E3DE00000306002203003195F02AB
:100B50000318B02D9331BC238431943104248431A3
:100B600022006B08031D592D9531A4258431592D80
:100B70002000B001220033082000B2002200320819
:100B80002000B1000030A100A2000430A30000301A
:100B9000A40067309431F8248531200031083204F4
:100BA0000319552E01302000AF002F08B0070A307E
:100BB000A7000030A8003208AA003108A900883137
:100BC0004A20853120002808B2002708B100CD2D29
:100BD0006430A7000030A800220033082000AA00DB
:100BE000220032082000A90088314A2085312000E7
:100BF0002808850027088400003084079830853D48
:100C00000008AF002F082200E7000A302000A700EC
:100C10000030A800220033082000A400220032087F
:100C20002000A3006430A1000030A20097314427C7
:100C3000853120002208AA002108A90088314A2015
:100C400085312000280885002708840000308407AB
:100C50009830853D0008AF002F082200E8000A30D8
:100C60002000A1000030A200220033082000A400D0
:100C7000220032082000A30097314427853120004C
:100C80002208850021088400003084079830853DC3
:100C90000008502E003084009830850000082000A5
:100CA000AF002F082200E900642E20003008003A2F
:100CB00003194A2E013A03192F2E033A0319052E60
:100CC000013A0319E82D642E22004003031D6E2E05
:100CD00020302000AF002F082200E7002000690824
:100CE000003E840098300318013E85000008083853
:100CF000AF002F082200EA0067302000A500013075
:100D0000A6000430AF002F08A7000030883115205E
:100D100008001F3020006505A80000306605A90006
:100D20002808290403199F2E1F306505A8000030EC
:100D30006605A900103028062904031D212FDF3085
:100D400065063F3003196606031DD42E22002E08C7
:100D5000003E2000A800E03022002F3D2000A90026
:100D600000302902213003192802031C212F1F30D3
:100D70006505A80000306605A900280829040319A4
:100D8000D02E10302000A1002030A2009531C325C4
:100D900086312000210A3F30031922060319212F32
:100DA0000030A10020301D2F2000660822002F02F5
:100DB000031DDE2E2000650822002E02031CF92EE2
:100DC00020006509A8006609A900A80A0319A90A54
:100DD00022002E0820002807AA0022002F08200049
:100DE000293DAB0000302B02413003192A02031CBD
:100DF000212F1F3020006505A80000306605A900DE
:100E000028082904031D072F6508203E1A2F2000FB
:100E10006508203EA1000030663DA2009531C32543
:100E200086312000210A3F30031922060319212FA1
:100E30006508103EA1000030663DA20096312326D1
:100E40008631FF3020002605A8003F302705A90085
:100E5000280A3F3003192906031D372F6608A20010
:100E60006508A100FE30A3003F30A400402F200001
:100E70006608A2006508A1002708A4002608A300B0
:100E80009631ED2686312000650A3F30031966064B
:100E9000031D4F2F0030E5002030E6000800013030
:100EA000E5070030E63D0800F800F701F901FA0116
:100EB000F501F6010230F1007108F7007008FD3EFF
:100EC000F100FF3003180030F2007208803A803CD5
:100ED000031D6C2F710877020318C92F7908F200DF
:100EE000F1017A08F4007908F3007408F300F401C2
:100EF00071087304F90072087404FA00770878071F
:100F0000F10071088600013087000108F200F3014A
:100F10007208F9067308FA067A08F2007908F100F7
:100F20000430F236F10C890B912F0F307105F3006C
:100F300000307205F4007308F9067408FA0679089F
:100F4000F200F101F10EF20EF030F20571080F39E6
:100F5000F204F030F1057108F9067208FA06FF3064
:100F60007905F10000307A05F200F10EF20EF03052
:100F7000F20571080F39F204F030F105F135F20D88
:100F80007108F9067208FA060130F1007108F707D6
:100F90005E2F7008FE3E7807F10071088600013070
:100FA00087000108F200F3017208F5007308F600EB
:100FB0000830F535F60D890BD92F7008FD3E7807FE
:100FC000F10071088600013087000108F200F3018A
:100FD0007208F5047308F60476087A06031DF22FEA
:100FE00075087906031DF62F01300800003008004F
:100FF000013021009D00C3309E009B019C01080030
:101000009331C12388319631852688319331CC23A1
:1010100088319531302588318731F82788319331EF
:10102000B82388319431242408002000A90022002C
:101030000E1003302000A8002808A100A03096312F
:101040004326883106302000A8002808A10029087E
:101050009631432688312000AA0127082A02031866
:1010600047280830A8002808A10025088400260881
:101070008500000896316426883101302000A800E0
:101080002808AA070130A5070030A63D2D28220018
:101090000E1408002000AD01AE0127082804031932
:1010A0007A28AC01AC0AA81B5F280130A735A80D2F
:1010B000890B56280130AB002B08AC0753280130B0
:1010C000AD35AE0D890B602828082A02031D6A2859
:1010D00027082902031C71282708A9022808AA3B0F
:1010E0002D140130A836A70C890B72280130AC02F0
:1010F000031D5F282E08A8002D08A7000800A328BC
:1011000001309731CF27883122008C140C140C1039
:101110008931B12122000C14080089312D210800E9
:1011200002309731CF27883122000C148C148C1098
:101130008931B12122008C14080089312D21080049
:101140008F316A27080020006A08003A03198028B6
:10115000013A03198D28033A03199028013A03191B
:101160009D28063A0319A028B52808002000A800E9
:10117000AA01AA0A95314C258831D0308A31ED2256
:1011800088312000A6002608AA002A08031D0800AE
:1011900028088A31ED2288312000A6002608AA00FE
:1011A0002A08031D0800A901250829020318EE28B2
:1011B00029082407A60026088600870101088A312D
:1011C000ED2288312000A7002708AA002A08031D65
:1011D00008000130A6002608A907D4289531692502
:1011E0000800230038082000BF003F082200E60066
:1011F000230039082000BF003F082200E50023003B
:101200003A082000BF003F082200E40023003B080A
:101210002000BF003F082200E20023003C0820001D
:10122000BF003F082200E10023003D082000BF006E
:101230003F082200E00023003E082000BF003F08D6
:101240002200E30060308B314323883160308C31E1
:101250007C2488318B31AA23080022004908031D11
:1012600046298031582089318531B82589312000BF
:101270006A03031D3E292200B40108000330200048
:101280006A06031D08002200B501080020006A0359
:10129000031D4E292200B401B40A56290330200050
:1012A0006A06031D56292200B501B50A9731182791
:1012B0008931FF302000DA005A08A20082309331D1
:1012C000F42389319431572489312000A2018230DE
:1012D0009331F42308002000A701A41F7629A30955
:1012E000A409A30A0319A40AA701A70AA21F7D291A
:1012F000A109A209A10A0319A20A210822040319BB
:10130000A429A601A60AA21B8F290130A135A20D8E
:10131000890B86290130A5002508A6078329220804
:101320002402031D952921082302031C9B2921085F
:10133000A3022208A43B0130A236A10C890B9C29F0
:101340000130A602031D8F2927080319AC29A30920
:10135000A409A30A0319A40A2408A2002308A100CF
:10136000080040309631032689312200B901B9299D
:10137000640020008D1DC1291F3022003902031C8A
:10138000B8291F3022003902031CC929C901C90A22
:1013900008004A302000AE002E08A9000630AF0039
:1013A0002F08AA000A309431AC2422004A082000F9
:1013B000AE002E082200C2004B082000AE002E080E
:1013C0002200C3004C082000AE002E082200C500F9
:1013D0004D082000AE002E082200C7004E08200055
:1013E000AE002E082200C6004F082000AE002E08D6
:1013F0002200C90008002000B001B101AE01AF0118
:10140000AD010030B0002030B1003F303102FF307C
:1014100003193002031808003108A2003008A100A7
:101420009531C325893120002208AF002108AE0084
:1014300055302E06153003192F06031D242A0130BE
:10144000AC002C08AD07422A2E0A3F3003192F06A4
:10145000031D332A02302D02031C332A3108E60013
:101460003008E50008002E0A3F3003192F06031D3F
:10147000402A3108E6003008E500943104240800D1
:101480002000AD0101302000B0070030B13D052A39
:101490002000A701A21F532AA109A209A10A03192A
:1014A000A20AA701A70AA41F5E2AA309A409A30AE6
:1014B0000319A40A0130A5002508A706A801A9015F
:1014C0002108220403198D2AA601A60AA21B722A4A
:1014D0000130A135A20D890B692A0130A50025082C
:1014E000A607662A0130A835A90D890B732A2208A0
:1014F0002402031D7D2A21082302031C842A2108BB
:10150000A3022208A43B28140130A236A10C890BA7
:10151000852A0130A602031D722A27080319952A7D
:10152000A809A909A80A0319A90A2908A2002808D4
:10153000A10008002000A700A80122080319080044
:101540002708031DCD2AD22A2308031DB22A280802
:101550002707A40024088600870101089331D823B7
:101560008A31C82A200028082707A40024088600FA
:10157000870101089331D8238A312000A50028086B
:101580002307A60026088600013087002508810071
:1015900001302000A4002408A8072208280203180C
:1015A0000800A42A230803190800220828020318A7
:1015B000080000309331D8238A312000A400280885
:1015C0002307A50025088600013087002408810034
:1015D0000130A4002408A807D52A2000A200A301F6
:1015E0000830230203181A2BA21FF92A22008D1497
:1015F000FB2A22008D1003302000A100A10BFE2A3F
:1016000022000D1403302000A100A10B052B0310B4
:101610002000A20D22000D1003302000A100A10B1C
:101620000F2B01302000A1002108A307083023025E
:10163000031CF42A22008D1403302000A100A10B0A
:101640001F2B22000D1403302000A100A10B262B1C
:1016500021008D1420008D1C312B21008D100130B4
:10166000080021008D1022000D1003302000A10081
:10167000A10B382B22008D1003302000A100A10BFC
:101680003F2B003008002000BE003E0886000130DD
:1016900087000108973171278B312000B200320892
:1016A000B4003E0A86000130870001089731712797
:1016B0008B312000B2003208B5003E08023E8600A1
:1016C000013087000108973171278B312000B2006B
:1016D0003208B6003E08033E86000130870001084C
:1016E000973171278B312000B2003208B7003E08D5
:1016F000043E8600013087000108973171278B3145
:101700002000B2003208B8003E08053E86000130D5
:1017100087000108973171278B312000B200320811
:10172000B9003E08063E8600013087000108973167
:1017300071278B312000B2003208BA003430B20079
:101740003208A4000730B3003308A5000030883108
:10175000B62008002000BC01BD01FE30AB002B0804
:10176000AC00FE30AB002B08AD000230AB002B0804
:10177000AE000730AB002B08AF0022006608200047
:10178000AB002B08B000220065082000AB002B083E
:10179000B100220064082000AB002B08B200220038
:1017A00062082000AB002B08B30022006108200073
:1017B000AB002B08B400220060082000AB002B080F
:1017C000B500220063082000AB002B08B6000E30E5
:1017D000AB002B08A1002C308D315F258B31200010
:1017E0002208BD002108BC003C08AB002B08B70054
:1017F0003D08AB002B08B800BB30AB002B08B9008C
:10180000BE010E303E02031808003E082C3E860042
:10181000870101089331E4238B3101302000AB00B4
:101820002B08BE07012C2000D001D1016A03031D43
:10183000482C6703031D482C793022003602031C14
:101840000800823168228C312000CE00CF014E0882
:10185000D0004F08D100511422003403031D322C54
:1018600020005115200051165108A7005008A6006D
:10187000863189268C3122002B082000A700220007
:101880002A082000A600863189262200B601080019
:10189000033020006A06031D08006703031D0800CB
:1018A000793022003702031C0800823168228C3113
:1018B0002000CE00CF014E08D0004F08D100D11437
:1018C00022003503031D662C2000D115200051167F
:1018D0005108A7005008A600863189268C312200C5
:1018E0002D082000A70022002C082000A600863129
:1018F00089262200B70108002000B5002B30A9007E
:101900002908A4000730AA002A08A50000308C315D
:10191000E7248C3120002B087F3994316A248C31E4
:101920002000A900350886000130870029088100C1
:101930002C087F3994316A248C312000A900350AA3
:10194000860001308700290881002D083F39943135
:101950006A248C312000A9003508023E860001303F
:101960008700290881002E0894316A248C312000D8
:10197000A9003508033E8600013087002908810050
:101980002F0894316A248C312000A9003508043EC8
:1019900086000130870029088100300894316A24CC
:1019A0008C312000A9003508053E860001308700F3
:1019B00029088100310894316A242000A9003508E3
:1019C000063E8600013087002908810008002000BB
:1019D000A700A801A80A95314C258C31D0308A3156
:1019E000ED228C312000A6002608A8002808031D3F
:1019F000080027088A31ED228C312000A600260835
:101A0000A8002808031D080095314C258C31D130E1
:101A10008A31ED228C312000A6002608A800280873
:101A2000031D080002302502031C3D2D97319F271E
:101A30008C312000A600240886008701260881003A
:101A400022008D1003302000A600A60B252D2200B9
:101A50000D1403302000A600A60B2C2D22000D1023
:101A600003302000A600A60B332D01302000A60075
:101A70002608A4070130A502122D97319F278C312B
:101A80002000A60024088600870126088100220085
:101A90008D1403302000A600A60B4C2D22000D143F
:101AA00003302000A600A60B532D22000D1003309A
:101AB0002000A600A60B5A2D9531692508002000AC
:101AC000A700A801A901AA010230A3002308A800C9
:101AD0002108FD3EA300FF3003180030A4002408B5
:101AE000803A803C031D762D230828020318D32D4D
:101AF00020002908A400A3012A08A6002908A5009F
:101B00002608A500A60123082504A9002408260408
:101B1000AA0028082707A3002308860087010108D8
:101B2000A400A5012408A9062508AA062A08A400DD
:101B30002908A3000430A436A30C890B9B2D0F3079
:101B40002305A50000302405A6002508A9062608BF
:101B5000AA062908A400A301A30EA40EF030A40530
:101B600023080F39A404F030A3052308A90624088C
:101B7000AA06FF302905A30000302A05A400A30E01
:101B8000A40EF030A40523080F39A404F030A305F7
:101B9000A335A40D2308A9062408AA060130A30032
:101BA0002308A807682D20002A08A2002908A10000
:101BB000080023009D1CDE2D1D121D161908FB00B8
:101BC0007B08FD007D08FB0020006808B43E86000D
:101BD000013087007B0881000130FB007B08E807AB
:101BE0006803031D092EFE307D060319F92DE80157
:101BF00008000A30FB007B082200EB0021001710D0
:101C000097101715971517169712640021001714CF
:101C10000800023020006806031D142EFE307D06E9
:101C200003190800E801080004306806031D1E2E91
:101C300008307D02031C0800E80108000F3068022C
:101C4000031C242EE801080023003708073EFB0090
:101C5000003003180130FC00200068087B067C047B
:101C6000031D0800BB307D06031D08006808FB004B
:101C70007B08F000B430873154278D31003A031DC2
:101C80004A2E532E2200B801B80A532E2200BA0160
:101C9000BA0A532E23003608013A0319422E033A9A
:101CA0000319462E532E2000E801080060308C31C5
:101CB0007C248E31523086000130870060308400F1
:101CC0000130850007302000B60012001E00B60B60
:101CD000652E593086000130870060308400013065
:101CE000850007302000B60012001E00B60B742ECF
:101CF000220066082000B600B7013608A6003708A3
:101D0000A700863189268E31220065082000B600A2
:101D1000B7013608A6003708A700863189268E311C
:101D2000220064082000B600B7013608A600370874
:101D3000A700863189268E31220062082000B60075
:101D4000B7013608A6003708A700863189268E31EC
:101D5000220061082000B600B7013608A600370847
:101D6000A700863189268E31220060082000B60047
:101D7000B7013608A6003708A700863189268E31BC
:101D8000220063082000B600B7013608A600370815
:101D9000A700863189268E31220063082000B60014
:101DA000B7013608A6003708A70086318926080043
:101DB0002000DC012100EE019631A7268E312000A3
:101DC000DB005B08DC005C080319080022008C11B2
:101DD00020006703031D5F2F22000C125F2F640099
:101DE000033021006E020318F82E20008D1EEF2E06
:101DF000033021006E02031C042F22000C118C15ED
:101E00000430943194248E3120008D1A080064002F
:101E1000042F6400033021006E020318122F2000EB
:101E20008C1F092F033021006E02031C522F20004B
:101E30006708031D4B2F3F306602E030031965022F
:101E4000031C262F0030A10020302C2F2000650815
:101E5000203EA1000030663DA200963123268E313F
:101E60009331C6238E31200066082200AF00200087
:101E700065082200AE00943114248E318E3156262E
:101E80008E312200B601B701AA01AB01AC01AD0150
:101E90002000EA015A2F9331BC238E31943104245F
:101EA0008E315A2F05302000DB005B08EA008831B4
:101EB0007F208E3120008C1B080064005A2F2000E8
:101EC0005C08013A0319F02E033A03190A2F692F0F
:101ED00008000800230033082000BC00230032085B
:101EE0002000BB00230031082000BA002300300886
:101EF0002000B90060308C317C248F310A30200002
:101F0000A1000030A200220062082000B600B70144
:101F10003608A3003708A4008A3148228F312000F8
:101F20002208850021088400003084079830853D10
:101F30000008B8003808B900B9150A30A10000300F
:101F4000A200220062082000B600B7013608A300F4
:101F50003708A40089316B218F31200022088500C9
:101F600021088400003084079830853D0008B800BF
:101F70003808BA000A30A1000030A200220061082F
:101F80002000B600B7013608A3003708A4008A3144
:101F900048228F312000220885002108840000306B
:101FA00084079830853D0008B8003808BB000A3027
:101FB000A1000030A200220061082000B600B70195
:101FC0003608A3003708A40089316B218F31200027
:101FD0002208850021088400003084079830853D60
:101FE0000008B8003808BC003930A5000030A60051
:101FF0000430B6003608A7000030883115200800EC
:1027700082302200970008002000E70122000C169A
:1027800008006830210099009A0108002000E70144
:10279000E70A22000C120800240094013030950052
:1027A00092010800640080010131890BD32B0034B1
:1027B0002000A1002400951320002108240091008E
:1027C000141CE02B110808002000A10021082300A0
:1027D0009A002000111200002000111A08000000C9
:1027E000000000000000EC2B2000A30022008C124F
:1027F000200023089331D8239331200022089331FD
:10280000D82322008C16080055302000A600553031
:10281000A70086318926943155302000A600553016
:10282000A700863189260800AA302000A600AA3019
:10283000A700863189269431AA302000A600AA304C
:10284000A70086318926080021001508C0391738ED
:102850009500D93020009500D930A1002108220030
:10286000ED000B118B16080022003A03031D3D2CCE
:102870008831F12094312200BA013803031D080089
:1028800084310A242200B80108002000A400A3011A
:10289000241C4E2C2108A2002208A3070310A10D1E
:1028A0000310A40C2408031D482C23080800003042
:1028B00094317F2494312000A50025082100EF00E9
:1028C000EF146F082000A5002508A2008030933186
:1028D000F42308002000A8000F302805A5000A30C6
:1028E000A6002608A1002808A7000430A736890BF7
:1028F000762C270894314524200025070800200065
:10290000A30022008C12200023089331D823943195
:10291000FF309331D8232000A2002208A400220017
:102920008C162000240808002000A60022000E10AB
:1029300004302000A5002508A100803096314326F0
:10294000943108302000A5002508A1002608963102
:10295000432622000E1408002000AD0022008C1235
:1029600020002D089331D823943120002A08AB0091
:102970002B08A2002908AC002C08A30000308A31E3
:102980009A2222008C1608000130F0007008210005
:10299000EE0722006B080319CF2C0130EB026B0805
:1029A000031D08002100171097141711971117160F
:1029B000971264002100171408000B1122006D0803
:1029C000200095000130F10071082200B9070130A4
:1029D000A8070030A93D00302902643003192802FD
:1029E000031C08009431C4242200A801A901080096
:1029F0002000A6002608A5002508A7000130A30294
:102A00000030A43B230A0319240A031908002108F3
:102A1000A5002708860001308700250881000130C5
:102A2000A5002508A707FE2C2000A501A601211C52
:102A30001D2D2308A5072408A63D0130A335A40DAC
:102A4000890B1E2D0130A236A10C890B232D2108E4
:102A50002204031D172D2608A2002508A100080046
:102A6000210091121112483023009F0090309D00E8
:102A700026309E0033309B009C012200BE01BF0126
:102A800008302000A10021082200EC00BC01BD019B
:102A9000BB0121009116080022008D140330200094
:102AA000A100A10B512D22000D1403302000A10024
:102AB000A10B582D22008D1003302000A100A10B86
:102AC0005F2D22000D1003302000A100A10B662D08
:102AD000080022000D1003302000A100A10B6E2D74
:102AE00022008D1003302000A100A10B752D2200C3
:102AF0000D1403302000A100A10B7C2D22008D14A9
:102B000003302000A100A10B832D08000830220013
:102B10006C020318A12D3F08A83E860001308700F3
:102B2000010823009A000130F00070082200BF075E
:102B300008303F020318BF010130F0007008EC07B5
:102B4000080021001112080022008C150C160C142C
:102B50008C140E140E150C178E140D148D146300A6
:102B600020006A080319B82D02306A06031DC02D23
:102B700022008C1120006703031DC02D22000C12BF
:102B80009631CA26080000308B1B01302000A300BC
:102B90008B132108230091002000220823009200BB
:102BA00015131514000000002000230C031C8B13C8
:102BB00003188B17230014082000A2002300130819
:102BC0002000A10008002000A80026080319080022
:102BD0002508A2002408A1009531C32595312000C5
:102BE00028088600023087002108C03F2208C13F24
:102BF0000130A4070030A53D0230A7002708A80730
:102C00000130A602E52D2000A600003094317F247B
:102C100096312000A50025082100EF003F3020005C
:102C2000A50025082100EF0520002608A50025089D
:102C30002100EF046F082000A5002508A2008030C5
:102C40009331F423080000308B1B01302000A300D7
:102C50008B132108230091002000220823009200FA
:102C600015131516151555309600AA3096009514B3
:102C700000000000230015112000230C031C8B13FF
:102C800003188B1708002000A300A40121082402C8
:102C900003180800A31B4F2E22000E11512E2200F4
:102CA0000E158E10F9302000A2000000A20B552E48
:102CB0000032000022008E1403102000A30D01300A
:102CC000A2002208A407462E2000A300A401210888
:102CD0002402031808002318702E22000E11722EF1
:102CE00022000E158E10F9302000A2000000A20B69
:102CF000762E0032000022008E1403102000A30C58
:102D00000130A2002208A407672E7B3022008C002D
:102D1000803021008C0023008C0122008D01FC30CA
:102D200021008D00103023008D002C3024008D00F8
:102D3000073022008E00D03021008E0023008E014B
:102D4000240090012100951322009D010800FF300E
:102D50002000A1002108A3008C1FB02E8D1AC82EC0
:102D60000D30A200FB30A100A10BB42EA20BB42E9B
:102D7000003220008C1FBE2E8D1AC82E8D1AC22E36
:102D8000A301A30A8C1BC82E0230A1002108A300B6
:102D90002308080001302000A1002108EA070430C0
:102DA0006A060319D72E0D306A02031CD82EEA01D9
:102DB0000130A10021082200B60783303602031833
:102DC000B60101302000A10021082200B70783309E
:102DD0003702031C0800B701080000308B1B0130CC
:102DE0002000A5008B132300151315159516200040
:102DF00021082300910020002208230092002000D7
:102E00002308230093002000240823009400951237
:102E100055309600AA30960095140000000023005B
:102E200015112000250C031C8B1303188B170800A9
:102E3000220027082000AF00220026082000AE0054
:102E4000220025082000AD00220024082000AC004C
:102E500010308400983085000008AB002B08AD00CE
:102E60000C308400983085000008AB002B08AE00C1
:102E70002C30A5000030A6000430AB002B08A700C2
:102E80000030883115200800200021082204031991
:102E90006C2FA601A60AA21B572F0130A135A20D47
:102EA000890B4E2F0130A5002508A6074B2F2208BD
:102EB0002402031D5D2F21082302031C632F210818
:102EC000A3022208A43B0130A236A10C890B642F77
:102ED0000130A602031D572F2408A2002308A100D9
:102EE00008002000B1000A30A1000030A200310823
:102EF000AA00AB012A08A3002B08A40089316B218A
:102F0000973120002108AC002208AD000A30A10052
:102F10000030A2003108AE00AF012E08A3002F0838
:102F2000A4008A314822973120002108B0000330E4
:102F3000B035FF3E031D982F30352C0708002000C8
:102F4000A20122008D142000A301083023020318DF
:102F5000CD2F0310A20D22000D1403302000A1007C
:102F6000A10BB02F21008D1420008D1CBB2F210040
:102F70008D102000221421008D1022000D1003302E
:102F80002000A100A10BC22F01302000A1002108C8
:102F9000A30708302302031CAA2F220808002000E0
:102FA000B000220023082000AF00220022082000E9
:102FB000AE00220021082000AD00220020082000E1
:102FC000AC0000308400983085000008AB002B086E
:102FD000AD003008003E840098300318013E8500A3
:102FE0000008AB002B08AE002C30A5000030A60076
:102FF0000430AB002B08A7000030883115200800F2
:10300000D7345034B534F1347234E334E7345134C6
:10301000F734F3347734E6348734F434A734273480
:0A30200057342034203420342034CB
:020000040001F9
:04000E00ECFFFFDF25
:00000001FF
