:040000008031132810
:100008007E14803120007F08F1008B1A0B1D0E280A
:100018008531AC2571082000FF007E100900803171
:100028001528FA01FB0120308400003085003330A8
:1000380086312D268031A030840000308500403084
:1000480086312D267E10200081317929003020004C
:10005800A7000030A6000030A5000030A4003F3003
:100068007B05F2007208F4004408F300740DF40CE8
:10007800F30C7308A4007408A500890D893B89094D
:10008800A600A700FB1BA516FB1FA228BD01BD0AE1
:100098000030F2004030F3000030F4000030F5008A
:1000A8002409F6002509F7002609F8002709F900B0
:1000B800F60A0319F70A0319F80A0319F90A760860
:1000C800F2077708F33D7808F43D7908F53D75089F
:1000D800A7007408A6007308A5007208A4002408E5
:1000E800F2002508F3002608F4002708F50003307D
:1000F800F536F40CF30CF20C890B7C287308B90064
:100108007208B80024080739F2007208BC000430ED
:100118003C02031C93280130F2007208BC0703302C
:100128003C0603199B2808303C06031D0800381CB0
:1001380008000130F2007208BC070800BD0124085D
:10014800F2002508F3002608F4002708F50003301C
:10015800F536F40CF30CF20C890BAC287308B900D3
:100168007208B80024080739F2007208BC0004308D
:100178003C02031CC3280130F2007208BC0704309B
:100188003C060319CB2808303C06031D0800381C20
:1001980008000130F2007208BC0708002000DB01EB
:1001A8003908DD003808DC000030F200F3000430C4
:1001B800F4000030F5004F308531072580312000EC
:1001C8005C085D040319532901302000DA005A083D
:1001D800DB070A30D3000030D4005D08D6005C0885
:1001E800D50083314D23803120005408DD005308A9
:1001F800DC00E3286430D3000030D4003908D6008E
:100208003808D50083314D238031200054088500FB
:1002180053088400823084078530853D0008DA0061
:100228005A08CF000A30D3000030D4003908F5004E
:100238003808F4006430F2000030F3008331EA2318
:10024800803173082000D6007208D50083314D2311
:1002580080312000540885005308840082308407C8
:100268008530853D0008DA005A08D0000A30F200CF
:100278000030F3003908F5003808F4008331EA2328
:1002880080317308850072088400823084078530C5
:10029800853D00082000DA005A08D1005E295B0875
:1002A800013A03193A29033A03191629013A03199D
:1002B800FE285E293D030319CF153C08823E8400C1
:1002C80085300318013E850000080838DA005A080E
:1002D800D2004F30F7000030F8000430DA005A0836
:1002E800F90000308331822308002000E401E50191
:1002F8008531C12581313D302000E300E130E20045
:100308007A30E100E10B8629E20B8629E30B862986
:10031800003220008D1A932922000C1595292200FD
:100328000C118C110B308531212581317308200087
:10033800E5007208E40001306502E1300319640247
:100348000318A92922000C11A8298131E92181313A
:1003580021008D155230853197258131283085311E
:1003680097258131023085319725813106308531D5
:10037800972581319330F7008530F800043020004C
:10038800E1006108F90000308331822381312000C7
:10039800BE018B170B170B3085312125813173086E
:1003A8002000E5007208E40001306502E13003191D
:1003B80064020318E22922000C11E1298331B723D2
:1003C8008131823199228131CF291530F5007508A4
:1003D800FA000F30F50075082000C2050730F50057
:1003E8007508C204C5017A08F5007508F300803065
:1003F80086310326813120004208F5007508F30094
:10040800813086310326813120004508F5007508C2
:10041800F30082308631032681317F30F50075087C
:10042800F3008330863103268131C030F50075082A
:10043800F30084308631032681317F30F50075085A
:10044800F3008530863103268131FF30F5007508C9
:10045800F30086308631032681318030F500750837
:10046800F3008730863103268131F30188308631E5
:1004780003268131F3018930863103268131F30166
:100488008A30863103268131F3018B308631032689
:100498000800F800F9017308031908007808031D1B
:1004A8007B2A802A7408031D642A79087807F500D6
:1004B800750886008701010886311C268231772A53
:1004C80079087807F50075088600870101088631E4
:1004D8001C268231F60079087407F7007708860031
:1004E8008701760881000130F5007508F90773085F
:1004F800790203180800562A7408031908007308BB
:10050800790203180800003086311C268231F50074
:1005180079087407F6007608860087017508810057
:100528000130F5007508F907832A2000E001BA01B7
:100538008431642482312000DF005F08E000600815
:1005480003190800D62A03303A020318AD2A8D1E73
:10055800A72A03303A02031CB82A22000C118C1572
:10056800043085319725823120008D1A0800B82A79
:1005780003303A020318C22A8C1FBC2A03303A02FD
:10058800031CCA2A103022008C06D22A053020000B
:10059800DF005F08BE008331B723823120008C1B47
:1005A8000800D22A6008013A0319A72A033A031956
:1005B800BC2ADF2A08000800403085313B258231FB
:1005C8002000BB018D1DEC2A03303B02031CE62AE8
:1005D80003303B02031CF32AC601C60A0800473051
:1005E800D8005808D3000630D9005908D4000A307A
:1005F8008531532520004708D8005808C00048080E
:10060800D8005808C1004908D8005808FB004A0813
:10061800D8005808C4004B08D8005808C3004C0834
:10062800D8005808C600080020002F08DA002E0855
:10063800D9002D08D8002C08D700913084008530C7
:1006480085000008D6005608D70091308400853010
:1006580085000008D6005608D800913084008530FF
:1006680085000008D6005608D900913084008530EE
:1006780085000008D6005608DA005730F700003029
:10068800F8000430D6005608F90000308331822380
:1006980008002000D801D9015308540403197D2B00
:1006A800D701D70AD41B622B0130D335D40D890B5F
:1006B800592B0130F8007808D707562B0130D83568
:1006C800D90D890B632B54085602031D6D2B530853
:1006D8005502031C742B5308D5025408D63B5814F2
:1006E8000130D436D30C890B752B0130D702031D8A
:1006F800622B5908D4005808D30008002000D40001
:1007080022000E1003302000D3005308F200A0305E
:100718008431C924833106302000D3005308F20005
:1007280054088431C92483312000D5017908550241
:100738000318B42B0830D3005308F200770884005C
:100748007808850000088431A9248331013020000D
:10075800D3005308D5070130F7070030F83D9A2B2E
:1007680022000E140800D72B01308431162483315F
:1007780022008C140C140C108231E0220800843101
:10078800E9240800023084311624833122000C1435
:100798008C148C108231E02208008431E92408008E
:1007A80083311823080020003E08003A0319B82BAB
:1007B800013A0319C32B033A0319C62B013A03194B
:1007C800D12B063A0319D42BE92B080072087304BD
:1007D8000319112CF701F70AF31BFC2B0130F23532
:1007E800F30D890BF32B0130F6007608F707F02B91
:1007F80073087502031D022C72087402031C082C6E
:100808007208F4027308F53B0130F336F20C890BD9
:10081800092C0130F702031DFC2B7508F30074083E
:10082800F20008002000DB002308DA002208D900C3
:100838002108D8002008D700823084008530850040
:100848000008D6005608D8005B08823E8400853030
:100858000318013E85000008D6005608D900573015
:10086800F7000030F8000430D6005608F9000030D0
:1008780083318223080020002B08DA002A08D900D7
:100888002908D8002808D7009230840085308500D0
:100898000008D6005608D8008E30840085308500C0
:1008A8000008D6005608D9005730F7000030F80085
:1008B8000430D6005608F90000308331822308003E
:1008C800FF30F2007208F40020008C1F6D2C8D1A86
:1008D800852C3430F300F130F200F20B712CF30B5D
:1008E800712C003220008C1F7B2C8D1A852C8D1AC0
:1008F8007F2CF401F40A8C1B852C0230F20072085C
:10090800F400740808007B3022008C00803021003D
:100918008C0023008C0122008D01FC3021008D0009
:10092800103023008D002C3024008D000730220069
:100938008E00D03021008E0023008E01240090010B
:100948002100951322009D010800F500F6017208A8
:100958007602031808007518B42C22000E11B62C64
:1009680022000E158E100630F4003030F300F30B21
:10097800BB2CF40BBB2C000022008E140310F50CCA
:100988000130F3007308F607AB2CF500F601720886
:10099800760203180800F51BD42C22000E11D62C61
:1009A80022000E158E100630F4003030F300F30BE1
:1009B800DB2CF40BDB2C000022008E140310F50D49
:1009C8000130F3007308F607CB2C20004608031DFE
:1009D800F32C80312A2084318031D22008008431E0
:1009E8003F248431FF302000DE005E08F3008230AF
:1009F8008631032684318531E4258431F301823040
:100A0800863103260800F7007708F6007608F80014
:100A18000130F4020030F53B740A0319750A031912
:100A280008007208F60078088600870176088100B9
:100A38000130F6007608F8070C2DF5007508F4006B
:100A4800F40DF40D21001D087406833974069D0009
:100A58001D140630F400F40B2F2D000021009D1406
:100A68009D18342D1C08F3001B08F2000800F7003D
:100A780000308531D3258531F6007608FA003F30FD
:100A8800F6007608FA057708F6007608FA047A0878
:100A9800F6007608F300803086310326080020002F
:100AA800D70022008C122000570886311C26853179
:100AB80020005408D5005508F3005308D6005608FE
:100AC800F400003082314D2222008C1608000130DB
:100AD800F00070082000BE0704303E060319782D88
:100AE80009303E02031C792DBE010130F000700868
:100AF800BA070130F0007008BB070800D73450343B
:100B0800B534F1347234E334E7345134F734F33420
:100B18007734E6348734F434A73427345734203410
:100B2800203420342034F80022000E100430F7005E
:100B38007708F20080308431C92485310830F70005
:100B48007708F20078088431C92422000E140800BE
:100B58000B112000660895000130B6070030B73D3C
:100B680000303702643003193602031C080085314F
:100B78006B252000B601B70108008631392685317A
:100B88008431872485318631332685318631102694
:100B980085318631252685318531F4250800F40014
:100BA80022008C12740886311C268531FF3086316C
:100BB8001C26F3007308F50022008C16750808003F
:100BC80000308531D3258531F6007608FA00FA140D
:100BD8007A08F6007608F30080308631032608008C
:100BE80021001508C0391738950064302000950099
:100BF8006430F2007208E6000B118B160800F4004E
:100C080022008C12740886311C26863173088631BE
:100C18001C2622008C160800483023009F008030D4
:100C28009D0026309E00A0309B0001309C000800EB
:100C3800F2002400951372089100141C212E11084B
:100C48000800013021009D00E0309E009B019C01BE
:100C58000800640080010131890B2E2E0034240025
:100C680094013030950092010800783021009900F5
:040C78009A010800D5
:020000040001F9
:04000E00E4FFFFDF2D
:00000001FF
