:040000008031132810
:100008007E14803120007F08F1008B1A0B1D0E280A
:100018008431FF2471082000FF007E100900803120
:100028001528FB01203084000030850028308531F8
:10003800A5258031A030840000308500403085310E
:10004800A5257E1020008331752B00302000A700E5
:100058000030A6000030A5000030A4003F307B052A
:10006800F2007208F4003908F300740DF40CF30C74
:100078007308A4007408A500890D893B8909A600A6
:10008800A700FB1BA516FB1FA128B301B30A00306C
:10009800F2004030F3000030F4000030F50024098D
:1000A800F6002509F7002609F8002709F900F60ADD
:1000B8000319F70A0319F80A0319F90A7608F20767
:1000C8007708F33D7808F43D7908F53D7508A700F1
:1000D8007408A6007308A5007208A4002408F2009A
:1000E8002508F3002608F4002708F5000330F53644
:1000F800F40CF30CF20C890B7B287308B10072081E
:10010800B00024080739F2007208B2000430320245
:10011800031C92280130F2007208B207033032063D
:1001280003199A2808303206031D0800301C0800FD
:100138000130F2007208B2070800B3012408F20087
:100148002508F3002608F4002708F5000330F536E3
:10015800F40CF30CF20C890BAB287308B10072088D
:10016800B00024080739F2007208B20004303202E5
:10017800031CC2280130F2007208B20704303206AC
:100188000319CA2808303206031D0800301C08006D
:100198000130F2007208B20708002000D0013108CF
:1001A800D2003008D1000030F200F3000430F4002F
:1001B8000030F50044308431892480312000510812
:1001C80052040319522901302000CF004F08D007EC
:1001D8000A30C8000030C9005208CB005108CA00D4
:1001E80083310B23803120004908D2004808D10010
:1001F800E2286430C8000030C9003108CB0030085C
:10020800CA0083310B238031200049088500480843
:100218008400143084078530853D0008CF004F08DE
:10022800C4000A30C8000030C9003108F5003008A1
:10023800F4006430F2000030F3008331A8238031E9
:1002480073082000CB007208CA0083310B23803169
:100258002000490885004808840014308407853048
:10026800853D0008CF004F08C5000A30F200003075
:10027800F3003108F5003008F4008331A8238031F9
:100288007308850072088400143084078530853D22
:1002980000082000CF004F08C6005D295008013A29
:1002A80003193929033A03191529013A0319FD28B5
:1002B8005D2933030319C4153208143E84008530C0
:1002C8000318013E850000080838CF004F08C70012
:1002D8004430F7000030F8000430CF004F08F90030
:1002E80000308331402308001530F5007508FA0006
:1002F8000F30F50075082000B7050730F5007508C0
:10030800B704BA017A08F5007508F3008030853122
:100318007B25813120003708F5007508F30081300E
:1003280085317B25813120003A08F5007508F300F6
:10033800823085317B2581317F30F5007508F300E7
:10034800833085317B258131C030F5007508F30095
:10035800843085317B2581317F30F5007508F300C5
:10036800853085317B258131FF30F5007508F30034
:10037800863085317B2581318030F5007508F300A2
:10038800873085317B258131F301883085317B25A4
:100398008131F301893085317B258131F3018A3040
:1003A80085317B258131F3018B3085317B25080030
:1003B8002000C901F31FE729F209F309F20A03191A
:1003C800F30AC901C90AF51FF229F409F509F40A63
:1003D8000319F50A0130F6007608C906CA01CB01EF
:1003E800720873040319212AC801C80AF31B062AD4
:1003F8000130F235F30D890BFD290130F60076083E
:10040800C807FA290130CA35CB0D890B072A7308AA
:100418007502031D112A72087402031C182A720837
:10042800F4027308F53B4A140130F336F20C890BD9
:10043800192A0130C802031D062A49080319292A66
:10044800CA09CB09CA0A0319CB0A4B08F3004A08A0
:10045800F2000800F800F901730803190800780889
:10046800031D5C2A612A7408031D452A7908780748
:10047800F5007508860087010108853194258231C9
:10048800582A79087807F500750886008701010859
:10049800853194258231F60079087407F7007708CA
:1004A80086008701760881000130F5007508F90794
:1004B8007308790203180800372A7408031908001A
:1004C80073087902031808000030853194258231B9
:1004D800F50079087407F600760886008701750824
:1004E80081000130F5007508F907642A2000D3005F
:1004F8002308D2002208D1002108D0002008CF000C
:100508000A30F2000030F3005308CC00CD014C084B
:10051800F4004D08F5008131DC2182317308850033
:1005280072088400143084078530853D0008200057
:10053800CE004E08CF000A30F2000030F300530816
:10054800CC00CD014C08F4004D08F5008231C622DC
:10055800823173088500720884001430840785305E
:10056800853D00082000CE004E08D0004F30F7002F
:100578000030F8000430CC004C08F900003083311A
:1005880040230800F801F51FD02AF409F509F40AF8
:100598000319F50AF801F80AF31FD72AF209F30933
:1005A800F20A0319F30A720873040319FE2AF70101
:1005B800F70AF31BE92A0130F235F30D890BE02A1B
:1005C8000130F6007608F707DD2A73087502031D67
:1005D800EF2A72087402031CF52A7208F4027308E1
:1005E800F53B0130F336F20C890BF62A0130F7029D
:1005F800031DE92A78080319062BF409F509F40AFA
:100608000319F50A7508F3007408F20008002000C1
:10061800CD01CE014808490403193B2BCC01CC0A73
:10062800C91B202B0130C835C90D890B172B013088
:10063800F8007808CC07142B0130CD35CE0D890B86
:10064800212B49084B02031D2B2B48084A02031C87
:10065800322B4808CA024908CB3B4D140130C93631
:10066800C80C890B332B0130CC02031D202B4E08FC
:10067800C9004D08C80008002000C90022000E105B
:1006880003302000C8004808F200A03084316924F3
:10069800833106302000C8004808F2004908843138
:1006A800692483312000CA0179084A020318722B91
:1006B8000830C8004808F2007708840078088500E8
:1006C800000884314924833101302000C8004808DB
:1006D800CA070130F7070030F83D582B22000E14E6
:1006E80008002000D501D60185313A258331220042
:1006F8008C110C1281317821833121008D155230F3
:100708008431EA24833128308431EA248331023069
:100718008431EA24833106308431EA248331243059
:10072800F7008530F80004302000D4005408F900A0
:1007380000308331402383312000B4018B170B171D
:10074800843100248331A42B720873040319CF2B3E
:10075800F701F70AF31BBA2B0130F235F30D890BB9
:10076800B12B0130F6007608F707AE2B7308750237
:10077800031DC02B72087402031CC62B7208F402F6
:100788007308F53B0130F336F20C890BC72B0130A7
:10079800F702031DBA2B7508F3007408F20008006D
:1007A80040308431A324833120008D19D82B3C306C
:1007B800CD004D08C8000630CE004E08C9000A30EA
:1007C8008431BB2420003C08CD004D08B5003D080D
:1007D800CD004D08B6003E08CD004D08FB003F088F
:1007E800CD004D08B9004008CD004D08B8004108BB
:1007F800CD004D08BB0008001B2C013082317A2245
:10080800843122000C108C148331D42308008431E5
:10081800D3240800023082317A22843122008C10DD
:100828000C148331D42308008431D3240800200019
:10083800340884000930040203180800853104359F
:10084800283E820008007F3022008C008030210082
:100858008C0023008C0122008D01FC3021008D00CA
:10086800103023008D002C3024008D00073022002A
:100878008E00D03021008E0023008E0124009001CC
:100888002100951322009D010800F500F601720869
:100898007602031808007518542C22000E11562CE5
:1008A80022000E158E100630F4003030F300F30BE2
:1008B8005B2CF40B5B2C000022008E140310F50C4B
:1008C8000130F3007308F6074B2CF500F6017208A7
:1008D800760203180800F51B742C22000E11762CE2
:1008E80022000E158E100630F4003030F300F30BA2
:1008F8007B2CF40B7B2C000022008E140310F50DCA
:100908000130F3007308F6076B2CF7007708F60040
:100918007608F8000130F4020030F53B740A031938
:10092800750A031908007208F6007808860087011E
:10093800760881000130F6007608F8078E2CF7005B
:10094800003085314C258431F6007608FA003F30B6
:10095800F6007608FA057708F6007608FA047A08A9
:10096800F6007608F300803085317B2508002000EA
:10097800CC0022008C1220004C088531942584314B
:1009880020004908CA004A08F3004808CB004B0871
:10099800F400003082312E2222008C16080020003C
:1009A8003B08031DDD2C8031292084318031D12082
:1009B80008002430F7008530F80004302000D30008
:1009C8005308F9000030833140230800F800220062
:1009D8000E100430F7007708F20080308431692463
:1009E80084310830F7007708F200780884316924E8
:1009F80022000E1408000B11200057089500013042
:100A0800AE070030AF3D00302F02C83003192E0268
:100A1800031C080085316C252000AE01AF010800D9
:100A2800D7345034B534F1347234E334E7345134C4
:100A3800F734F3347734E6348734F434A73427347E
:100A480020342034203420348431012C84310B2C80
:100A580084310E2C8431182C8431262C8431262C98
:100A68008431262C8431262C8431262C8531B125DD
:100A780085318431272485318531AB258531853110
:100A88008825853185319D25853185315D2508008D
:100A9800F40022008C127408853194258531FF30CA
:100AA80085319425F3007308F50022008C1675082B
:100AB800080021001508C039173895006430200057
:100AC80095006430F2007208D7000B118B160800ED
:100AD8000130F00070082000B40704303406031910
:100AE800792D09303402031C0800B4010800F40011
:100AF80022008C127408853194258531730885315C
:100B0800942522008C160800483023009F0080306E
:100B18009D0026309E00A0309B0001309C000800FC
:100B2800F2002400951372089100141C992D1108E5
:100B38000800013021009D0060309E009B019C014F
:100B48000800640080010131890BA62D00342400BF
:100B58009401303095009201080078302100990006
:040B68009A010800E6
:020000040001F9
:04000E00E4FFFFDF2D
:00000001FF
