:08000000803102288731EE2F48
:1007DE007830210099009A010800240094013030ED
:1007EE00950092010800640080010131890BFB2BFA
:1007FE000034F0002400951370089100141C052C91
:10080E0011080800483023009F0080309D002630DC
:10081E009E00A0309B0001309C0008008331EF2326
:10082E0084318431DC2484318331F4238431843166
:10083E0009240800F20022008C1272088431002470
:10084E00843171088431002422008C160800F200D5
:10085E0022008C127208843100248431FF308431DE
:10086E000024F1007108F30022008C1673080800B2
:10087E00F60022000E100430F5007508F0008030EE
:10088E0084319C2484310830F5007508F000760818
:10089E0084319C2422000E140800FC0022008C12CD
:1008AE007C088431002484317908FA007A08F1003A
:1008BE007808FB007B08F200003085318D25220080
:1008CE008C160800F500003084312E248431F4009B
:1008DE0074082000CC003F30F4007408CC05750875
:1008EE00F4007408CC044C08F4007408F100803055
:1008FE00843121240800F5007508F4007408F60010
:10090E000130F2020030F33B720A0319730A031925
:10091E0008007008F40076088600870174088100CC
:10092E000130F4007408F607872CF300F401700808
:10093E00740203180800F31BA72C22000E11A92C19
:10094E0022000E158E100630F2003030F100F10B41
:10095E00AE2CF20BAE2C000022008E140310F30D01
:10096E000130F1007108F4079E2CF300F4017008B9
:10097E007402031808007318C72C22000E11C92C1C
:10098E0022000E158E100630F2003030F100F10B01
:10099E00CE2CF20BCE2C000022008E140310F30C82
:1009AE000130F1007108F407BE2C7F3022008C005C
:1009BE00803021008C0023008C0122008D01FC3040
:1009CE0021008D00103023008D002C3024008D006E
:1009DE00073022008E00D03021008E0023008E01C1
:1009EE00240090012100951322009D01080070083B
:1009FE0071040319252DF501F50AF11B102D013097
:100A0E00F035F10D890B072D0130F4007408F50750
:100A1E00042D71087302031D162D70087202031C3B
:100A2E001C2D7008F2027108F33B0130F136F00C08
:100A3E00890B1D2D0130F502031D102D7308F100D9
:100A4E007208F0000800F80022000E100330F700C4
:100A5E007708F000A03084319C2485310630F700F1
:100A6E007708F000780884319C248531F9017608E6
:100A7E0079020318562D0830F7007708F000750834
:100A8E008600870101088431BC2485310130F700CE
:100A9E007708F9070130F7007708F5073E2D220099
:100AAE000E140800FB01FC01760877040319882D4B
:100ABE00FD01FD0AF71B6D2D0130F635F70D890B83
:100ACE00642D0130FA007A08FD07612D0130FB35E7
:100ADE00FC0D890B6E2D77087902031D782D760893
:100AEE007802031C7F2D7608F8027708F93B7B14F9
:100AFE000130F736F60C890B802D0130FD02031DF7
:100B0E006D2D7C08F7007B08F6000800F600F70153
:100B1E007108031908007608031DBB2DC02D72083D
:100B2E00031DA42D77087607F3007308860087014E
:100B3E000108843100248531B72D77087607F3003C
:100B4E007308860087010108843100248531F40082
:100B5E0077087207F5007508860087017408810012
:100B6E000130F3007308F7077108770203180800C5
:100B7E00962D7208031908007108770203180800F1
:100B8E000030843100248531F30077087207F400B9
:100B9E00740886008701730881000130F300730822
:100BAE00F707C32D2000CA01CB01843115248531EE
:100BBE0022008C110C120C1086313C26853121003E
:100BCE008D15523084313F248531283084313F24B5
:100BDE008531023084313F248531063084313F2403
:100BEE00853166302000C9007730C8002430C70038
:100BFE00C70BFF2DC80BFF2DC90BFF2D000040307A
:100C0E0084316924853120008D190A2E3630C700B3
:100C1E004708F8000630C8004808F9000A30843149
:100C2E005424853120003608C7004708AE00370827
:100C3E00C7004708AF003808C7004708B100390899
:100C4E00C7004708B3003A08C7004708B2003B0880
:100C5E00C7004708B5003508031DF82D8731462714
:100C6E0085318631A0268531F82D1530F3007308B5
:100C7E002000CC000F30F3007308B0050730F300EE
:100C8E007308B004B4014C08F3007308F10080300F
:100C9E0084312124863120003008F3007308F100DE
:100CAE00813084312124863120003408F30073080A
:100CBE00F10082308431212486317F30F3007308B5
:100CCE00F1008330843121248631C030F300730863
:100CDE00F10084308431212486317F30F300730893
:100CEE00F1008530843121248631FF30F300730802
:100CFE00F10086308431212486318030F300730870
:100D0E00F1008730843121248631F101883084311D
:100D1E0021248631F1018930843121248631F1017B
:100D2E008A30843121248631F1018B3084312124A3
:100D3E0008002000C4012B08C6002A08C500003098
:100D4E00F000F1000430F2000030F3003E30843148
:100D5E00822486312000450846040319202F0130D5
:100D6E002000C2004208C4070A30F6000030F70027
:100D7E004608F9004508F80085315925863177086F
:100D8E002000C6007608C500B12E6430F600003093
:100D9E00F7002B08F9002A08F8008531592586310D
:100DAE007708850076088400003084078830853DFA
:100DBE0000082000C2004208BE000A30F6000030D3
:100DCE00F7002B08F3002A08F2006430F000003020
:100DDE00F1008431FE2486317108F9007008F800A4
:100DEE0085315925863177088500760884000030D4
:100DFE0084078830853D00082000C2004208BF00ED
:100E0E000A30F0000030F1002B08F3002A08F2003F
:100E1E008431FE248631710885007008840000300C
:100E2E0084078830853D00082000C2004208C000BB
:100E3E002B2F4408013A0319072F033A0319E42E06
:100E4E00013A0319CC2E2B2F2D030319BE152C0896
:100E5E00003E840088300318013E850000080838E3
:100E6E00C2004208C1003E30C2004208F500043004
:100E7E00C3004308F600003085312A2508000030F3
:100E8E002000A3000030A2000030A1000030A0001E
:100E9E003F303105F0007008F2003308F100720D9A
:100EAE00F20CF10C7108A0007208A100890D893BAB
:100EBE008909A200A300B11BA116B11FBE2FAD015F
:100ECE00AD0A0030F0004030F1000030F20000308A
:100EDE00F3002009F4002109F5002209F600230988
:100EEE00F700F40A0319F50A0319F60A0319F70AAB
:100EFE007408F0077508F13D7608F23D7708F33D6A
:100F0E007308A3007208A2007108A1007008A00067
:100F1E002008F0002108F1002208F2002308F30057
:100F2E000330F336F20CF10CF00C890B982F71088C
:100F3E00AB007008AA0020080739F0007008AC005A
:100F4E0004302C02031CAF2F0130F0007008AC07E8
:100F5E0003302C060319B72F08302C06031D08008A
:100F6E002A1C08000130F0007008AC070800AD0123
:100F7E002008F0002108F1002208F2002308F300F7
:100F8E000330F336F20CF10CF00C890BC82F7108FC
:100F9E00AB007008AA0020080739F0007008AC00FA
:100FAE0004302C02031CDF2F0130F0007008AC0758
:100FBE0004302C060319E72F08302C06031D0800F9
:100FCE002A1C08000130F0007008AC070800203021
:100FDE0084000030850022308331FA238731A0301F
:100FEE0084000030850040308331FA2320008531A3
:100FFE00D92DD7345034B534F1347234E334E73468
:10100E005134F734F3347734E6348734F434A73478
:02101E00273475
:020000040001F9
:04000E00E4FFFFDF2D
:00000001FF
