:040000008031132810
:100008007E14803120007F08F2008B1A0B1D0E2809
:100018008E31D02672082000FF007E100900803142
:100028001528F801F901FA01203084000030850014
:1000380030308D31E9258031A030840000308500D2
:100048000F308D31E9258031203084000130850062
:1000580040308D31E9258031FF3084008D308500B6
:10006800AF308600003087000A308D31E3257E10DE
:10007800200080313F282100BB01BC01BD01B9012E
:10008800BA018E318B2680313D302000EB00E13003
:10009800EA007A30E900E90B4F28EA0B4F28EB0B0E
:1000A8004F28003220008D1A5C2822000C155E288B
:1000B80022000C118C112100BC01BD01BB011030C4
:1000C8003B0203187C280B308F3134278031210004
:1000D8003C087307BC003D08743DBD00013020009A
:1000E800E90069082100BB0710303B02031C6728A0
:1000F8003C0E0F39BC003D0EF039BC043D0E0F39E3
:10010800BD0003303D02203003193C0203188F283C
:1001180022000C118E282100BB01BC01BD018331D6
:100128007223803121008D158F316827803152303C
:100138008E31A026803128308E31A02680310230C1
:100148008E31A026803106308E31A02680311130C4
:100158002000D0009030D1000430E9006908D200B6
:100168000030863165268031F8012000B901B601DA
:100178002100BC01BD0100302000AE002030AF00DE
:100188008631CC26803120002F088D31EF25803133
:1001980020002E088D31EF2580318B170B170B307F
:1001A8008F313427803121003C087307BC003D089B
:1001B800743DBD0001302000E90069082100BB073B
:1001C80010303B06031DFF28BB013C0E0F39BC0055
:1001D8003D0EF039BC043D0E0F39BD0003303D0221
:1001E800203003193C020318FC2822000C11FB28BC
:1001F8002100BC01BD0186319A2680318431DD247D
:100208008031D32800302000A7000030A60000303D
:10021800A5000030A4003F307A05D0005008D20075
:100228004108D100520DD20CD10C5108A40052083B
:10023800A500890D893B8909A600A700FA1BA51608
:100248007803031D2C292508AB002408AA003429AB
:1002580003307806031D34292508AD002408AC00B6
:10026800FA1F8E29BB01BB0A0030D0004030D100F4
:100278000030D2000030D3002409D4002509D5006D
:100288002609D6002709D700D40A0319D50A031965
:10029800D60A0319D70A5408D0075508D13D56087D
:1002A800D23D5708D33D5308A7005208A60051086D
:1002B800A5005008A4002408D0002508D10026086D
:1002C800D2002708D3000330D336D20CD10CD00C7F
:1002D800890B68295108B3005008B200240807396F
:1002E800D0005008BA0004303A02031C7F290130BC
:1002F800D0005008BA0703303A0603198729083096
:100308003A06031D0800321C08000130D0005008CE
:10031800BA070800BB012408D0002508D100260828
:10032800D2002708D3000330D336D20CD10CD00C1E
:10033800890B98295108B3005008B20024080739DE
:10034800D0005008BA0004303A02031CAF2901302B
:10035800D0005008BA0704303A060319B729083004
:100368003A06031D0800321C08000130D00050086E
:10037800BA0708002000DA013308DC003208DB0085
:100388000030F300F4000430F5000030F6004C3083
:100398008F318327813120005B085C0403193F2AD1
:1003A80001302000D9005908DA070A30D10000309E
:1003B800D2005C08D4005B08D30086313026813136
:1003C80020005208DC005108DB00CF296430D1003E
:1003D8000030D2003308D4003208D30086313026EA
:1003E80081312000520885005108840000308407BC
:1003F8009030853D0008D9005908CC000A30D1005A
:100408000030D2003308F6003208F5006430F300FB
:100418000030F4008631FC26813174082000D400B5
:100428007308D300863130268131200052088500B8
:1004380051088400003084079030853D0008D900B9
:100448005908CD000A30F3000030F4003308F600F4
:100458003208F5008631FC2681317408850073085E
:100468008400003084079030853D00082000D900C2
:100478005908CE004A2A5A08013A0319262A033A8B
:100488000319022A013A0319EA294A2A3B030319E4
:10049800CC153A08003E840090300318013E8500D0
:1004A80000080838D9005908CF004C30D000003077
:1004B800D1000430D9005908D200003086316526B1
:1004C8000800210027082000E60021002608200057
:1004D800E500210025082000E40021002408200070
:1004E800E300A8308331D62382310A30F30000308C
:1004F800F40021002A082000E000E1016008F5006E
:100508006108F60084313A24823174088500730842
:100518008400003084079030853D00082000E20008
:100528006208E300E3150A30F3000030F40021000C
:100538002A082000E000E1016008F5006108F600E3
:10054800853177258231740885007308840000306E
:1005580084079030853D00082000E2006208E4002E
:100568000A30F3000030F400210029082000E000E0
:10057800E1016008F5006108F60084313A2482310F
:100588007408850073088400003084079030853D26
:1005980000082000E2006208E5000A30F30000309D
:1005A800F400210029082000E000E1016008F500BE
:1005B8006108F60085317725823174088500730853
:1005C8008400003084079030853D00082000E20058
:1005D8006208E6006330D0000030D1000430E0004B
:1005E8006008D20000308631652608002000D1005E
:1005F800D201D20A8E31E9268231D03085312B25BD
:1006080082312000D0005008D2005208031D080093
:10061800510885312B2582312000D0005008D200A6
:100628005208031D08008E31E9268231D130853108
:100638002B2582312000D0005008D2005208031D1B
:10064800080002307702031C502B87318127823142
:100658002000D0007608860087015008810022001B
:100668008D100D302000D000D00B382B22000D1437
:100678000D302000D000D00B3F2B22000D100D3084
:100688002000D000D00B462B01302000D0005008AD
:10069800F6070130F702252B8731812782312000A8
:1006A800D0007608860087015008810022008D144A
:1006B8000D302000D000D00B5F2B22000D140D3020
:1006C8002000D000D00B662B22000D100D3020002A
:1006D800D000D00B6D2B8F31022708001530F600A3
:1006E8007608F9000F30F60076082000BF050730BD
:1006F800F6007608BF04C2017908F6007608F4000F
:1007080080308E311526833120003F08F6007608A8
:10071800F40081308E311526833120004208F6001E
:100728007608F40082308E31152683317F30F6004A
:100738007608F40083308E3115268331C030F600F8
:100748007608F40084308E31152683317F30F60028
:100758007608F40085308E3115268331FF30F60097
:100768007608F40086308E31152683318030F60005
:100778007608F40087308E3115268331F4018830ED
:100788008E3115268331F40189308E311526833157
:10079800F4018A308E3115268331F4018B308E3185
:1007A800152608002000DF005530D3005308F60056
:1007B8000730D4005408F70000308231FA22833120
:1007C800200055087F398E31762683312000D300EA
:1007D8005F08860087015308810056087F398E31EB
:1007E800762683312000D3005F0A860087015308EC
:1007F800810057083F398E31762683312000D30097
:100808005F08023E860087015308810058088E3130
:10081800762683312000D3005F08033E86008701D7
:100828005308810059088E31762683312000D30081
:100838005F08043E86008701530881005A088E31FC
:10084800762683312000D3005F08053E86008701A5
:10085800530881005B088E3176262000D3005F089C
:10086800063E860087015308810008002000D10158
:10087800F41F452CF309F409F30A0319F40AD1010A
:10088800D10AF61F502CF509F609F50A0319F60ADC
:100898000130F7007708D106D201D3017308740438
:1008A80003197F2CD001D00AF41B642C0130F335D6
:1008B800F40D890B5B2C0130F7007708D007582C12
:1008C8000130D235D30D890B652C74087602031DCF
:1008D8006F2C73087502031C762C7308F5027408D4
:1008E800F63B52140130F436F30C890B772C0130A7
:1008F800D002031D642C51080319872CD209D3098F
:10090800D20A0319D30A5308F4005208F300080066
:10091800F600F7017408031908007608031DBE2CB9
:10092800C32C7508031DA42C770876072000D00077
:1009380050088600870101088731F7278431B92CD0
:10094800770876072000D000500886008701010844
:100958008731F72784312000D10077087507D20046
:100968005208860087015108810001302000D0001C
:100978005008F7077408770203180800952C7508C3
:10098800031908007408770203180800003087313B
:10099800F72784312000D00077087507D100510867
:1009A80086008701500881000130D0005008F70701
:1009B800C62C2000E801B7018731D42784312000F4
:1009C800E7006708E800680803190800212D0330CC
:1009D80037020318F12C8D1EEB2C03303702031C51
:1009E800FC2C22000C118C1504308E31A026843189
:1009F80020008D1A0800FC2C033037020318062D3E
:100A08008C1F002D03303702031C152D3908031DD8
:100A1800112D8D31D72584311D2D8D31CD25843172
:100A28001D2D05302000E7006708F80086319A265A
:100A3800843120008C1B08001D2D6808013A031919
:100A4800EB2C033A0319002D2A2D08000800F400A6
:100A5800F501083075020318522DF41F362D2200B7
:100A68008D14382D22008D100D30F300F30B3A2D24
:100A780022000D140D30F300F30B402D0310F40D7C
:100A880022000D100D30F300F30B482D0130F30058
:100A98007308F50708307502031C312D22008D14E8
:100AA8000D30F300F30B562D22000D140D30F3001A
:100AB800F30B5C2D21008D1420008D1C672D210067
:100AC8008D100130080021008D1022000D100D300E
:100AD800F300F30B6D2D22008D100D30F300F30B96
:100AE800732D003008002000D101F61F822DF50972
:100AF800F609F50A0319F60AD101D10AF41F892D5E
:100B0800F309F409F30A0319F40A730874040319BE
:100B1800B02DD001D00AF41B9B2D0130F335F40D14
:100B2800890B922D0130F7007708D0078F2D7408B4
:100B38007602031DA12D73087502031CA72D7308E7
:100B4800F5027408F63B0130F436F30C890BA82D36
:100B58000130D002031D9B2D51080319B82DF5094A
:100B6800F609F50A0319F60A7608F4007508F30081
:100B780008002000D200D401D40A8E31E92685313C
:100B8800D03085312B2585312000D0005008D40085
:100B98005408031D0800520885312B258531200093
:100BA800D0005008D4005408031D0800D30177086A
:100BB80053020318F52D53087607D0005008860015
:100BC8008701010885312B2585312000D100510886
:100BD800D4005408031D08000130D0005008D30782
:100BE800DB2D8F310227080040308F314E278531A9
:100BF8002000B8018D1D042E03303802031CFE2D81
:100C080003303802031C0B2EC301C30A080044300A
:100C1800D8005808D3000630D9005908D4000A3043
:100C28008E31B82620004408D8005808BD00450871
:100C3800D8005808BE004608D8005808FA004708E7
:100C4800D8005808C1004808D8005808C00049080A
:100C5800D8005808C30008002000D701D80151085F
:100C680052040319602ED601D60AD21B452E013034
:100C7800D135D20D890B3C2E0130D5005508D60749
:100C8800392E0130D735D80D890B462E520854021B
:100C9800031D502E51085302031C572E5108D3022E
:100CA8005208D43B57140130D236D10C890B582E38
:100CB8000130D602031D452E5808D2005708D1002E
:100CC80008002000D40022000E1003302000D300BA
:100CD8005308F300A0308F319E278631063020005C
:100CE800D3005308F30054088F319E278631200023
:100CF800D501520855020318972E0830D30053081F
:100D0800F300500884005108850000088F31BE2781
:100D1800863101302000D3005308D5070130D007B1
:100D28000030D13D7D2E22000E140800BA2E01306D
:100D38008731AB27863122008C140C140C108531B6
:100D4800F825080087312927080002308731AB27AA
:100D5800863122000C148C148C108531F82508007B
:100D68008731292708008231652208007808003A6F
:100D780003199B2E013A0319A62E033A0319A92E2B
:100D8800013A0319B42E063A0319B72ECB2E0800E0
:100D98002000D201D301D001D1010030D20020308F
:100DA800D3004030530200300319520203180800E0
:100DB8005308F4005208F3008F311B27863174085A
:100DC8002000D1007308D000500A3F3003195106A3
:100DD800031DF72E0130D2070030D33D5308AF0072
:100DE8005208AE0008000130D2070030D33DD52E9E
:100DF800730874040319242F2000D001D00AF41BAF
:100E08000F2F0130F335F40D890B062F0130F70051
:100E18007708D007032F74087602031D152F73086F
:100E28007502031C1B2F7308F5027408F63B01308A
:100E3800F436F30C890B1C2F0130D002031D0F2F41
:100E48007608F4007508F300080020004308031D25
:100E5800332F8131062187318131BE210800780383
:100E6800031D3A2F2000B401B40A412F033078063D
:100E7800031D412F2000B501B50A87315527873159
:100E8800FF302000DD005D08F40082308E31152629
:100E980087318E3131268731F40182308E31152623
:100EA8000800210023082000DA0021002208200081
:100EB800D900210021082000D800210020082000A6
:100EC800D70010308400903085000008D6005608FE
:100ED800D8000C308400903085000008D6005608F1
:100EE800D9005730D0000030D1000430D600560861
:100EF800D2000030863165260800F40122008D14E6
:100F0800F501083075020318A92F0310F40D22000B
:100F18000D140D30F300F30B8F2F21008D142000DA
:100F28008D1C992F21008D10741421008D10220022
:100F38000D100D30F300F30B9F2F0130F3007308F1
:100F4800F50708307502031C8A2F74080800200072
:100F5800DB002308DA002208D9002108D80020087D
:100F6800D70000308400903085000008D60056086D
:100F7800D8005B08003E840090300318013E8500CD
:100F88000008D6005608D9005730D0000030D100EC
:100F98000430D6005608D200003086316526080095
:100FA800FF30F3007308F50020008C1FDD2F8D1A29
:100FB800F52F3430F400F130F300F30BE12FF40B8C
:100FC800E12F003220008C1FEB2F8D1AF52F8D1A80
:100FD800EF2FF501F50A8C1BF52F0230F30073088B
:100FE800F50075080800F3002400951373089100B4
:080FF800141CFC2F1108080075
:101B920082302200970008002000B90122000C16B2
:101BA20008007830210099009A0108002000B9014C
:101BB200B90A22000C12080024009401303095006A
:101BC20092010800FE0012001E00FE0BE42D0034FC
:101BD200640080010131890BEA2D0034F3002000FA
:101BE200111EF02D730823009A0008000130210015
:101BF2009D00E3309E009B019C01080001344034AB
:101C020014340234043407341634003400340034FB
:101C1200483023009F0080309D0026309E00A03077
:101C22009B0001309C000800F50022008C12750810
:101C32008731F7278E3174088731F72722008C16F7
:101C4200080021001508C0391738950064302000BB
:101C520095006430F3007308EC000B118B1608003A
:101C620000308E3141268E31F7007708F900F914E1
:101C72007908F7007708F40080308E3115260800C5
:101C8200F50022008C1275088731F7278E31FF305C
:101C92008731F727F4007408F60022008C167608C4
:101CA2000800F600F501761C5A2E7308F400740839
:101CB200F5070310F30D0310F60C7608031D542EDE
:101CC200750808000130F0007008F8070430780643
:101CD20003196F2E09307802031C702EF8010130AF
:101CE200F00070082000B7070800F7000F307705F2
:101CF2002000D0000A30D1005108F3007708D2004A
:101D02000430D236890B822E52088E3152262000A0
:101D1200500708008D31D2258E318F31DE278E316A
:101D22008D31DD258E318E3109268E318D31F725AB
:101D32008E318E3122268E318D31C9250800200048
:101D4200D10022000E1004302000D0005008F30011
:101D520080308F319E278E3108302000D00050080D
:101D6200F30051088F319E2722000E140800200034
:101D7200D70022008C12200057088731F7278E31B6
:101D820020005408D5005508F4005308D600560820
:101D9200F500003084318C2422008C1608000B11CF
:101DA20020006C0895000130F1007108B80701307D
:101DB200A8070030A93D0030290264300319280227
:101DC200031C08008E3163262000A801A901080027
:101DD20022008D140D30F300F30BED2E22000D14B2
:101DE2000D30F300F30BF32E22008D100D30F300B3
:101DF200F30BF92E22000D100D30F300F30BFF2E22
:101E0200080022000D100D30F300F30B062F220004
:101E12008D100D30F300F30B0C2F22000D140D303A
:101E2200F300F30B122F22008D140D30F300F30B8D
:101E3200182F080000308B1B0130F5008B1373083C
:101E4200230091007408920015131514000000007D
:101E5200750C031C8B1303188B1723001408F40052
:101E62001308F3000800F6007608F500F50DF50DED
:101E720021001D087506833975069D001D14063064
:101E8200F500F50B422F000021009D149D18472FED
:101E92001C08F4001B08F30008002000D0000030EA
:101EA2008E3141268F31F7007708F9003F30F70075
:101EB2007708F90520005008F7007708F904790837
:101EC200F7007708F40080308E3115260800AF3015
:101ED20086000030870057308400003085000A30C9
:101EE2002000D50016001A00D50B732F5730D500ED
:101EF2005508F6000730D6005608F7000030853145
:101F0200BD2508002000D0005008F7007708D10056
:101F12000130F5020030F63B750A0319760A0319FF
:101F220008007308F70051088600870177088100CE
:101F32000130F7007708D107892FF600F7017308FF
:101F4200770203180800F61BA92F22000E11AB2FEF
:101F520022000E158E100630F5003030F400F40B1E
:101F6200B02FF50BB02F000022008E140310F60DD7
:101F72000130F4007408F707A02FF600F701730888
:101F82007702031808007618C92F22000E11CB2FF2
:101F920022000E158E100630F5003030F400F40BDE
:101FA200D02FF50BD02F000022008E140310F60C58
:101FB2000130F4007408F707C02F7B3022008C0038
:101FC200803021008C0023008C0122008D01FC3026
:101FD20021008D00103023008D002C3024008D0054
:101FE200073022008E00D03021008E0023008E01A7
:101FF200240090012100951322009D010800D7348E
:102002005034B534F1347234E334E7345134F734B4
:10201200F3347734E6348734F434A734273457342E
:08202200203420342034203466
:020000040001F9
:04000E00E4FFFFDF2D
:00000001FF
