:040000008031132810
:100008007E14803120007F08F2008B1A0B1D0E2809
:100018008A31482272082000FF007E1009008031D2
:100028001528F801F901FA015A30840000308500DA
:1000380014308831D6208031A0308400003085000B
:100048003A308831D6208031203084000130850054
:1000580040308831D6208031F530840088308500E2
:10006800DA308600003087000A308831D0207E10D0
:10007800200083316A2B2000CA01CB01CE01CF01B9
:10008800CC01CD010030DD000030DC000030DB00A9
:100098000030DA003F306D05C6004608C800210070
:1000A80036082000C700480DC80CC70C4708DA00FE
:1000B8004808DB00890D893B8909DC00DD00ED1B60
:1000C800DB165B08CF005A08CE006C03031DEC2832
:1000D8006A03031DEC2820304F064E0403197628C6
:1000E800013077280030C600C7015E084605C80001
:1000F8005F084705C900C91AC728DF1E90285E098E
:10010800C6005F09C700C60A0319C70A4608003EA9
:10011800DE004030473DDF00CF1E9F284E09C60055
:100128004F09C700C60A0319C70A4608003ECE0091
:100138004030473DCF004F085F02031DA5284E08F9
:100148005E020318B3285E09C6005F09C700C60A25
:100158000319C70A4E084607CA004F08BE284E09A9
:10016800C6004F09C700C60A0319C70A5E08460732
:10017800CA005F08473DCB0000304B020530031929
:100188004A02031CE7288131DD2180312000C600A6
:10019800C7014608CC004708CD004D146603031973
:1001A8004D15CD164D08B4004C08B30089316F21A8
:1001B800803120005B08B4005A08B30089316F21F0
:1001C80080312000E8015B08DF005A08DE006F2953
:1001D80003306C06031D6F296A03031D6F29203045
:1001E8004F064E040319FA280130FB280030C600D8
:1001F800C70160084605C80061084705C900C91A53
:100208004B29E11E14296009C6006109C700C60A06
:100218000319C70A4608003EE0004030473DE100A8
:10022800CF1E23294E09C6004F09C700C60A031965
:10023800C70A4608003ECE004030473DCF004F0871
:100248006102031D29294E08600203183729600935
:10025800C6006109C700C60A0319C70A4E0846073F
:10026800CA004F0842294E09C6004F09C700C60AEE
:100278000319C70A60084607CA006108473DCB0052
:1002880000304B02053003194A02031C6A298131E8
:10029800DD2180312000C600C7014608CC00470890
:1002A800CD00CD1467030319CD15CD164D08B40044
:1002B8004C08B30089316F21803120005B08B400FD
:1002C8005A08B30089316F218031F80120005B089A
:1002D800E1005A08E0005B08CF005A08CE00ED1F85
:1002E800B0292100B001B00A20004E09C6004F090C
:1002F800C700C60A0319C70A4608003ECE004030A8
:10030800473DCF004F08C7004E08C600C736C60C89
:10031800C736C60CC736C60C4608E4004708E500D1
:100328004E080739C6004608EB0004306B02031C70
:10033800A1290130C6004608EB0703306B060319F4
:10034800A92908306B06031D0800641C0800013049
:10035800C6004608EB0708002100B00120004F083E
:10036800C7004E08C600C736C60CC736C60CC73607
:10037800C60C4608E4004708E5004E080739C600E1
:100388004608EB0004306B02031CCE290130C6007E
:100398004608EB0704306B060319D62908306B06AC
:1003A800031D0800641C08000130C6004608EB075E
:1003B800080000302000BD000030BC000030BB0049
:1003C8000030BA000030C1000030C0000030BF006B
:1003D8000030BE000030C5000030C4000030C3004B
:1003E8000030C200CF308F319C27813120006C0350
:1003F800031DB12A210053084506031D682B4F0829
:100408002000B000B101210051082000B200B30162
:100418003208F3003308F4001030F5000E30F6000F
:100428008A31B522813173082000B4007408B50000
:10043800210050082000B600B7013608F30037083D
:10044800F4003C30F5000030F6008A31B5228131E5
:10045800730820003407B8007408353DB900300827
:100468003807BE003108393DBF00C001BF1BC003BB
:100478004008C100210041082000B000B10121005E
:1004880043082000B200B3013208F3003308F40037
:100498001030F5000E30F6008A31B522813173082C
:1004A8002000B4007408B500210042082000B600FE
:1004B800B7013608F3003708F4003C30F500003087
:1004C800F6008A31B5228131730820003407B8005C
:1004D8007408353DB90030083807C2003108393D85
:1004E800C300C401C31BC4034408C5003E08B000D0
:1004F8003F08B1004008B2004108B3004209B40007
:100508004309B5004409B6004509B700B40A031900
:10051800B50A0319B60A0319B70A3408B00735082B
:10052800B13D3608B23D3708B33D3308BD00320847
:10053800BC003108BB003008BA00C1308600870112
:10054800CF308400850107302000B00012001E0063
:10055800B00BAA2A20003A08080003306C06031DD5
:10056800682B210053084C06031D682B4F082000F8
:10057800B000B101210051082000B200B3013208D7
:10058800F3003308F4001030F5000E30F6008A311D
:10059800B522813173082000B4007408B500210029
:1005A80050082000B600B7013608F3003708F400F9
:1005B8003C30F5000030F6008A31B52281317308ED
:1005C80020003407B8007408353DB90030083807F2
:1005D800BE003108393DBF00C001BF1BC003400841
:1005E800C100210048082000B000B10121004A08DC
:1005F8002000B200B3013208F3003308F4001030D1
:10060800F5000E30F6008A31B522813173082000DA
:10061800B4007408B500210049082000B600B701ED
:100628003608F3003708F4003C30F5000030F600D7
:100638008A31B5228131730820003407B800740864
:10064800353DB90030083807C2003108393DC300CC
:10065800C401C31BC4034408C5003E08B0003F08DA
:10066800B1004008B2004108B3004209B400430990
:10067800B5004409B6004509B700B40A0319B50A1C
:100688000319B60A0319B70A3408B0073508B13D8B
:100698003608B23D3708B33D3308BD003208BC0008
:1006A8003108BB003008BA00C83086008701CF3057
:1006B8008400850107302000B00012001E00B00B36
:1006C800612B20003A080800003008002100E601EC
:1006D800E701E801E401E5018931842183313D30F6
:1006E8002000D900E130D8007A30D700D70B7A2B18
:1006F800D80B7A2BD90B7A2B003220008D1A872B36
:1007080022000C15892B22000C118C112100E70105
:10071800E801E601103066020318A72B0B308A3176
:1007280014228331210067087307E7006808743DC5
:10073800E80001302000D70057082100E6071030F4
:100748006602031C922B670E0F39E700680EF0391A
:10075800E704680E0F39E8000330680220300319F7
:1007680067020318BA2B22000C11B92B2100E601ED
:10077800E701E80187316227833121008D158A312D
:10078800632283315230893199218331283089316C
:100798009921833102308931992183310630893199
:1007A8009921833111302000A0009030A10004303D
:1007B800D7005708A20000308C31E524833120008F
:1007C800EC01EA01E801F801DE01DF01E001E101E5
:1007D800E601E7012100E701E80100302000E2001E
:1007E8002030E3008C31512483318B170B170B30E9
:1007F8008A3114228331210067087307E7006808EB
:10080800743DE80001302000D70057082100E607B2
:1008180010306606031D272CE601670E0F39E70026
:10082800680EF039E704680E0F39E80003306802F3
:100838002030031967020318242C22000C11232CE2
:100848002100E701E8018C31B22483318531852507
:1008580083318F3145278331FB2B2000AA0165089E
:10086800AC006408AB000030F300F4000430F5007D
:100878000030F600D6308A317E22843120002B08E1
:100888002C040319BC2C01302000A9002908AA0750
:100898000A30A1000030A2002C08A4002B08A300F5
:1008A8008D311A25843120002208AC002108AB00C4
:1008B800422C6430A1000030A2006508A40064083E
:1008C800A3008D311A2584312000220885002108D3
:1008D8008400003084079030853D0008A90029086D
:1008E8002100D6000A302000A1000030A2006508CF
:1008F800F6006408F5006430F3000030F4008C3131
:100908002424843174082000A4007308A3008D31C6
:100918001A2584312000220885002108840000302F
:1009280084079030853D0008A90029082100D700D8
:100938000A30F3000030F40020006508F60064086F
:10094800F5008C31242484317408850073088400F0
:10095800003084079030853DB52C003084009030FD
:10096800850000082000A90029082100D800CB2C08
:1009780020002A08003A0319B12C013A03199C2CCB
:10098800033A0319762C013A03195D2CCB2C21006C
:100998003003031DD52C20302000A9002908210090
:1009A800D60020006B08003E840090300318013EFA
:1009B800850000080838A90029082100D900D63088
:1009C8002000A0000030A1000430A9002908A200DE
:1009D80000308C31E524080021002B082000B600E7
:1009E80021002A082000B500210029082000B400B1
:1009F800210028082000B300CF308F319C27843194
:100A08000A30F3000030F400210051082000B00043
:100A1800B1013008F5003108F6008E31F326843133
:100A28007408850073088400003084079030853D81
:100A380000082000B2003208B300B3150A30F300F2
:100A48000030F400210051082000B000B101300846
:100A5800F5003108F6008E311026843174088500BF
:100A680073088400003084079030853D000820001A
:100A7800B2003208B4000A30F3000030F40021005C
:100A880050082000B000B1013008F5003108F60028
:100A98008E31F32684317408850073088400003091
:100AA80084079030853D00082000B2003208B50068
:100AB8000A30F3000030F400210050082000B00094
:100AC800B1013008F5003108F6008E311026843166
:100AD8007408850073088400003084079030853DD1
:100AE80000082000B2003208B6003330A000003001
:100AF800A1000430B0003008A20000308C31E52499
:100B080008002000D401E9018B313523853120000C
:100B1800D1005108D400540803190800032E0330EB
:100B280069020318992D8D1E932D03306902031C49
:100B3800A52D22000C118C1504308931992185319D
:100B4800D22D00302000D5002030D60023305602A8
:100B5800E830031955020318D22D5608F400550839
:100B6800F3008931FB21853174082000D300730814
:100B7800D20053088831DC208531200052088831A2
:100B8800DC20853101302000D5070030D63D2330E8
:100B98005602E83003195502031CB12D20008D1AA6
:100BA8000800D22D033069020318DC2D8C1FD62DC6
:100BB80003306902031CF72D6A08031DF02D8831E4
:100BC800C42085318B31A523853186318526853131
:100BD8002000E801F801FF2D8831BA2085318B31DA
:100BE8007C238531FF2D05302000D1005108EC0011
:100BF8008C31B224853120008C1B0800FF2D54084D
:100C0800013A0319932D033A0319D62D0C2E080027
:100C180008002000A100A201A20A8931C921863159
:100C2800D0308E31562686312000A0002008A20040
:100C38002208031D080021088E315626863120001F
:100C4800A0002008A2002208031D08008931C9213C
:100C58008631D1308E31562686312000A0002008FA
:100C6800A2002208031D080002307702031C632E2D
:100C78008B31CE2386312000A000760886008701BC
:100C88002008810022008D100D302000A000A00B4C
:100C98004B2E22000D140D302000A000A00B522E68
:100CA80022000D100D302000A000A00B592E01309D
:100CB8002000A0002008F6070130F702382E8B31FB
:100CC800CE2386312000A000760886008701200800
:100CD800810022008D140D302000A000A00B722E80
:100CE80022000D140D302000A000A00B792E220048
:100CF8000D100D302000A000A00B802E8931E221BC
:100D08000800CF308F319C278631C130860087019B
:100D1800CF308400850107302000B50012001E0086
:100D2800B50B922EC83086008701CF30840085012C
:100D380007302000B50012001E00B50B9F2E2100C1
:100D480055082000B500B6013508B3003608B400D0
:100D580089316F218631210054082000B500B60181
:100D68003508B3003608B40089316F218631210077
:100D780053082000B500B6013508B3003608B400A2
:100D880089316F218631210051082000B500B60154
:100D98003508B3003608B40089316F218631210047
:100DA80050082000B500B6013508B3003608B40075
:100DB80089316F21863121004F082000B500B60126
:100DC8003508B3003608B40089316F218631210017
:100DD80052082000B500B6013508B3003608B40043
:100DE80089316F210800E03020002005A6003F303F
:100DF8002105A70000308B1B0130A8002708210619
:100E0800031D082F26082006031D08008B13210840
:100E1800F4002008F3008A31992286312300151343
:100E2800151595162000A901203029020318592FFD
:100E380020082300910020002108230092002000B0
:100E480029352207A30023088600013087000108FE
:100E580023009300200029352207A30023088600D9
:100E680001308700403FA400413FA500250823002A
:100E780094001F3020002906031D442F23009512DB
:100E8800553023009600AA30960095140000000003
:100E980001302000A0070030A13D0130A300230845
:100EA800A90720302902031C1C2F2300151120003C
:100EB800280C031C8B1303188B1708001530F60039
:100EC8007608FA000F30F60076082100B4050730DE
:100ED800F6007608B404B7017A08F6007608F4003C
:100EE800803089310B21873121003408F6007608DB
:100EF800F400813089310B21873121003708F60051
:100F08007608F400823089310B2187317F30F60072
:100F18007608F400833089310B218731C030F60020
:100F28007608F400843089310B2187317F30F60050
:100F38007608F400853089310B218731FF30F600BF
:100F48007608F400863089310B2187318030F6002D
:100F58007608F400873089310B218731F401883015
:100F680089310B218731F401893089310B2187318F
:100F7800F4018A3089310B218731F4018B308931B2
:100F88000B21080021003808031DDC2F80313F2089
:100F9800873184313124873120006C03031DD62F1B
:100FA800E601080003306C06031D0800E70108008D
:100FB80020006C03031DE32FE601E60AE92F033046
:100FC8006C06031DE92FE701E70A8B31F823873107
:100FD800FF302000D0005008F400823089310B2106
:100FE8008731893118218731F401823089310B2109
:020FF8000800EF
:10116C0082302200970008002000EA0122000C16B1
:10117C0008007830210099009A0108002000EA014B
:10118C00EA0A22000C120800240094013030950069
:10119C0092010800FE0012001E00FE0BD128003444
:1011AC00640080010131890BD7280034F300200042
:1011BC00111EDD28730823009A000800013021005D
:1011CC009D00E3309E009B019C010800F30024006D
:1011DC00951373089100141CF128110808000134B0
:1011EC0040341434023404340734163400340034DC
:1011FC000034483023009F0080309D0026309E0034
:10120C00A0309B0001309C000800F50022008C12DD
:10121C0075088831EC20893174088831EC20220063
:10122C008C1608000030893149218931F700770884
:10123C00FA00FA147A08F7007708F4008030893144
:10124C000B21080021001508C039173895006430AF
:10125C00200095006430F30073082100E9000B11A5
:10126C008B160800F600F501761C40297308F40073
:10127C007408F5070310F30D0310F60C7608031D24
:10128C003A2975080800F50022008C12750888317F
:10129C00EC208931FF308831EC20F4007408F60022
:1012AC0022008C1676080800F7000F307705200016
:1012BC00A0000A30A1002108F3007708A200043036
:1012CC00A236890B66292208893138212000200793
:1012DC00080020006308AB006208AA002030F70069
:1012EC007708AC003408AE003308AD008D31CB2547
:1012FC0001302000E2070030E33D08008831BF20B8
:10130C0089318B31132389318831CA208931883155
:10131C00FF2089318831E4208931893128218931B4
:10132C008831B62008002000A10022000E100430E5
:10133C002000A0002008F30080308A31D3228931AC
:10134C0008302000A0002008F30021088A31D322A5
:10135C0022000E1408002000A70022008C1220008E
:10136C0027088831EC20893120002408A5002508A5
:10137C00F4002308A6002608F50000308E31A226C2
:10138C0022008C16080022008D140D30F300F30B94
:10139C00CD2922000D140D30F300F30BD3292200BC
:1013AC008D100D30F300F30BD92922000D100D30E8
:1013BC00F300F30BDF29080022000D100D30F300B1
:1013CC00F30BE62922008D100D30F300F30BEC2902
:1013DC0022000D140D30F300F30BF22922008D14B2
:1013EC000D30F300F30BF829080000308B1B013093
:1013FC00F5008B13730823009100740892001513E9
:10140C00151400000000750C031C8B1303188B17AC
:10141C0023001408F4001308F3000800F600760803
:10142C00F500F50DF50D21001D08750683397506BF
:10143C009D001D140630F500F50B222A000021003A
:10144C009D149D18272A1C08F4001B08F3000800A3
:10145C002000A0000030893149218A31F70077083B
:10146C00FA003F30F7007708FA0520002008F70053
:10147C007708FA047A08F7007708F400803089318D
:10148C000B2108000B112100690820009500013088
:10149C00F1007108F90701302100AC070030AD3DB7
:1014AC0000302D02643003192C02031C08008B3110
:1014BC0058232100AC01AD010800DA308600003061
:1014CC00870027308400003085000A302000A500FA
:1014DC0016001A00A50B6E2A2730A5002508F60069
:1014EC000730A6002608F70000308D314F25080084
:1014FC002000A0002008F7007708A1000130F502B9
:10150C000030F63B750A0319760A031908007308B4
:10151C00F700210886008701770881000130F70069
:10152C007708A107842A00308B1B0130F5008B1340
:10153C0073082300910074089200151315161515E5
:10154C0055309600AA309600951400000000230038
:10155C001511750C031C8B1303188B170800200036
:10156C00A001A101731CBF2A75082000A0077608F2
:10157C00A13D0130F535F60D890BC02A0130F4364A
:10158C00F30C890BC52A73087404031DB82A2000B8
:10159C002108F4002008F3000800F600F701730896
:1015AC00770203180800F61BDE2A22000E11E02A2F
:1015BC0022000E158E100630F5003030F400F40BBE
:1015CC00E52AF50BE52A000022008E140310F60D17
:1015DC000130F4007408F707D52AF600F7017308F8
:1015EC007702031808007618FE2A22000E11002B31
:1015FC0022000E158E100630F5003030F400F40B7E
:10160C00052BF50B052B000022008E140310F60C95
:10161C000130F4007408F707F52A7B3022008C00A7
:10162C00803021008C0023008C0122008D01FC30C5
:10163C0021008D00103023008D002C3024008D00F3
:10164C00073022008E00D03021008E0023008E0146
:10165C00240090012100951322009D010800FF3009
:10166C00F3007308F50020008C1F3E2B8D1A562BAF
:10167C003430F400F130F300F30B422BF40B422B1B
:10168C00003220008C1F4C2B8D1A562B8D1A502B90
:10169C00F501F50A8C1B562B0230F3007308F5008C
:1016AC00750808000130F00070082000EC070430C9
:1016BC006C060319652B09306C02031C662BEC01BC
:1016CC000130F0007008E9070130F0007008E807FD
:1016DC00423068020318E8010130F0007008F80786
:1016EC0042307802031C0800F8010800200063084F
:1016FC00AB006208AA002030F7007708AC00553028
:10170C00AD005530AE008D31CB258B310130200032
:10171C00E2070030E33D6308AB006208AA0020300A
:10172C00F7007708AC005530AD005530AE008D3168
:10173C00CB2501302000E2070030E33D08002000FB
:10174C006308AB006208AA002030F7007708AC00F1
:10175C00AA30AD00AA30AE008D31CB258B310130D3
:10176C002000E2070030E33D6308AB006208AA00EA
:10177C002030F7007708AC00AA30AD00AA30AE00DC
:10178C008D31CB2501302000E2070030E33D08000D
:10179C00F40122008D14F501083075020318F62BA4
:1017AC000310F40D22000D140D30F300F30BDC2BA1
:1017BC0021008D1420008D1CE62B21008D1074143B
:1017CC0021008D1022000D100D30F300F30BEC2BCB
:1017DC000130F3007308F50708307502031CD72B92
:1017EC0074080800210027082000AA002100260800
:1017FC002000A900210025082000A80021002408B1
:10180C002000A70010308400903085000008A6004E
:10181C002608A8000C308400903085000008A60033
:10182C002608A9002730A0000030A1000430A60033
:10183C002608A20000308C31E524080073087404DB
:10184C0003194C2C2000A001A00AF41B372C0130EA
:10185C00F335F40D890B2E2C0130F7007708A00717
:10186C002B2C74087602031D3D2C73087502031C87
:10187C00432C7308F5027408F63B0130F436F30C74
:10188C00890B442C0130A002031D372C7608F40080
:10189C007508F30008002000A201A301A001A1011A
:1018AC000030A2002030A300403023020030031986
:1018BC002202031808002308F4002208F3008931DF
:1018CC00FB218C3174082000A1007308A000200AB1
:1018DC003F3003192106031D7C2C0130A207003078
:1018EC00A33D2308E3002208E20008000130A20710
:1018FC000030A33D5A2C2000AB002100230820000F
:10190C00AA00210022082000A900210021082000A3
:10191C00A800210020082000A7000030840090308F
:10192C0085000008A6002608A8002B08003E8400AD
:10193C0090300318013E85000008A6002608A90077
:10194C002730A0000030A1000430A6002608A20019
:10195C0000308C31E5240800D22C01308C318124EC
:10196C008C3122008C140C140C108D318A2508003B
:10197C008731C627080002308C3181248C3122003B
:10198C000C148C148C108D318A2508008731C627D5
:10199C0008008431F024080020006C08003A031978
:1019AC00B32C013A0319BE2C033A0319C12C013A8A
:1019BC000319CC2C063A0319CF2CE42C0800200078
:1019CC00A40022000E1003302000A3002308F30013
:1019DC00A0308A31D3228C3106302000A30023089A
:1019EC00F30024088A31D3228C312000A50122086F
:1019FC0025020318172D0830A3002308F300200834
:101A0C0084002108850000088A31F3228C310130D2
:101A1C002000A3002308A5070130A0070030A13D3A
:101A2C00FD2C22000E1408002000A701A80121089B
:101A3C00220403194A2DA601A60AA21B2F2D013040
:101A4C00A135A20D890B262D0130A5002508A6076E
:101A5C00232D0130A735A80D890B302D2208240227
:101A6C00031D3A2D21082302031C412D2108A3023A
:101A7C002208A43B27140130A236A10C890B422D5D
:101A8C000130A602031D2F2D2808A2002708A10053
:101A9C0008002000A200A401A40A8931C9218D31BB
:101AAC00D0308E3156268D312000A0002008A400A5
:101ABC002408031D080022088E3156268D31200083
:101ACC00A0002008A4002408031D0800A301770827
:101ADC0023020318872D23087607A0002008860010
:101AEC00870101088E3156268D312000A100210876
:101AFC00A4002408031D08000130A0002008A3073F
:101B0C006D2D8931E221080040308A312E228D3131
:101B1C00F90120008D1D962D03307902031C8F2DA9
:101B2C000330790203180800B930A8002808A30074
:101B3C000630A9002908A4000A308931B1212100FE
:101B4C0039082000A80028082100B2003A0820001B
:101B5C00A80028082100B3003B082000A800280892
:101B6C00ED0021003C082000A80028082100B60048
:101B7C003D082000A80028082100B5003E082000E0
:101B8C00A80028082100B8000800E03020002A0531
:101B9C00B0003F302B05B1002A081F39F60076083B
:101BAC00AF00B201203032020318FA2D3208300790
:101BBC00F30031080318310AF4008931FB218D310F
:101BCC00200032352C07F60076088600013087009D
:101BDC007308C03F7408C13F0130F6007608B207A5
:101BEC0020303202031CDC2D2F352C07F600760832
:101BFC008600013087002D08C03F2E08C13F3108F8
:101C0C00A1003008A0002C08F6007608A20086314E
:101C1C00F72608002000A101F61F1B2EF509F60976
:101C2C00F50A0319F60AA101A10AF41F222EF309E1
:101C3C00F409F30A0319F40A730874040319492EFE
:101C4C00A001A00AF41B342E0130F335F40D890BDE
:101C5C002B2E0130F7007708A007282E7408760287
:101C6C00031D3A2E73087502031C402E7308F502EF
:101C7C007408F63B0130F436F30C890B412E01301D
:101C8C00A002031D342E21080319512EF509F60963
:101C9C00F50A0319F60A7608F4007508F300080033
:101CAC00F400F5010830750203187D2EF41F612E27
:101CBC0022008D14632E22008D100D30F300F30BD7
:101CCC00652E22000D140D30F300F30B6B2E031058
:101CDC00F40D22000D100D30F300F30B732E0130B8
:101CEC00F3007308F50708307502031C5C2E220004
:101CFC008D140D30F300F30B812E22000D140D30DA
:101D0C00F300F30B872E21008D1420008D1C922ED6
:101D1C0021008D100130080021008D1022000D10C3
:101D2C000D30F300F30B982E22008D100D30F300C4
:101D3C00F30B9E2E00300800F600F701740803190F
:101D4C0008007608031DD42ED92E7508031DBA2E53
:101D5C00770876072000A00020088600870101087C
:101D6C008831EC208E31CF2E770876072000A0002A
:101D7C0020088600870101088831EC208E31200074
:101D8C00A10077087507A2002208860087012108A8
:101D9C00810001302000A0002008F70774087702AA
:101DAC0003180800AB2E7508031908007408770295
:101DBC000318080000308831EC208E312000A00080
:101DCC0077087507A100210886008701200881008B
:101DDC000130A0002008F707DC2E2000A101F41F21
:101DEC00FE2EF309F409F30A0319F40AA101A10A5E
:101DFC00F61F092FF509F609F50A0319F60A013041
:101E0C00F7007708A106A201A30173087404031953
:101E1C00382FA001A00AF41B1D2F0130F335F40D4F
:101E2C00890B142F0130F7007708A007112F013010
:101E3C00A235A30D890B1E2F74087602031D282FC3
:101E4C0073087502031C2F2F7308F5027408F63BF8
:101E5C0022140130F436F30C890B302F0130A00220
:101E6C00031D1D2F21080319402FA209A309A20A43
:101E7C000319A30A2308F4002208F3000800200029
:101E8C00C801C9016C03031D722F6A03031D722F55
:101E9C003D306802031C08008131DD218F312000A8
:101EAC00C600C7014608C8004708C90049146603A4
:101EBC000319491549164908B4004808B30089317B
:101ECC006F218F3120005B08B4005A08B3008931B0
:101EDC006F212000E801080003306C06031D080088
:101EEC006A03031D08003D307802031C0800813191
:101EFC00DD218F312000C600C7014608C800470805
:101F0C00C900C91467030319C91549164908B40057
:101F1C004808B30089316F218F3120005B08B40071
:101F2C005A08B30089316F21F80108002000AF0076
:101F3C002530A3002308F6000730A4002408F7007E
:101F4C00003086310D268F31200025087F398931EC
:101F5C005A218F312000A3002F0886008701230807
:101F6C00810026087F3989315A218F312000A30046
:101F7C002F0A860087012308810027083F39893101
:101F8C005A218F312000A3002F08023E86008701C2
:101F9C0023088100280889315A218F312000A300A1
:101FAC002F08033E86008701230881002908893108
:101FBC005A218F312000A3002F08043E8600870190
:101FCC00230881002A0889315A218F312000A3006F
:101FDC002F08053E86008701230881002B088931D4
:101FEC005A212000A3002F08063E860087012308F3
:101FFC0081000800D7345034B534F1347234E334F2
:10200C00E7345134F734F3347734E6348734F4342A
:0E201C00A734273457342034203420342034A5
:020000040001F9
:04000E00E4FFFFDF2D
:00000001FF
