:0400000080312728FC
:100008007E14803120007F08A0008B1A0B1D102859
:100018009531F625803122282100911E1A282000CA
:10002800911E1A288E312D26803122282100111E7A
:1000380022282000111E222896316326200020083D
:10004800FF007E10090080312928643084000030C8
:10005800850007308731F9278031A03084000030CF
:1000680085004E308731F9278031203084000130F7
:10007800850034308731F9278031A0308400013081
:10008800850040308731F9278031F530840094307D
:10009800850054308600013087000A3088310020FE
:1000A8007E10200084310B2C2000D401D501D8010A
:1000B800D901D201D301D601D70100302100A70010
:1000C8000030A6000030A5000030A4003F304805ED
:1000D8002000CE004E08D00021004A082000CF00A2
:1000E800500DD00CCF0C4F082100A4002000500860
:1000F8002100A500890D893B8909A600A700C81B16
:10010800A51625082000D900210024082000D800C1
:100118006903031D3D296603031D3D2921002F089E
:100128002000D30021002E082000D20020305906DC
:1001380058040319A1280130A2280030CE00CF01AD
:1001480021002E0820004E05D00021002F08200095
:100158004F05D100D11A09292100AF1EC6282E0942
:100168002000CE0021002F092000CF00CE0A03195D
:10017800CF0A4E08003E2100AE00403020004F3D1F
:100188002100AF002000D91ED6285809CE005909F1
:10019800CF00CE0A0319CF0A4E08003ED8004030DF
:1001A8004F3DD900590821002F02031DDF282000E8
:1001B800580821002E020318F0282E092000CE002E
:1001C80021002F092000CF00CE0A0319CF0A5808B2
:1001D8004E07D4005908002920005809CE005909B3
:1001E800CF00CE0A0319CF0A21002E0820004E079F
:1001F800D40021002F0820004F3DD50000305502C3
:10020800053003195402031C342982316D228031D0
:100218002000CE00CF014E08D6004F08D700571453
:1002280021003603031D1A29200057152000D71670
:100238005708A7005608A6008B31F4238031210007
:1002480025082000A700210024082000A6008B31E3
:10025800F42380312100B8012508AF0024083B2988
:10026800200053082100AF00200052082100AE00F2
:10027800EF29033020006906031DEF296603031DDB
:10028800EF29210031082000D30021003008200088
:10029800D200203059065804031954290130552931
:1002A8000030CE00CF012100300820004E05D000DC
:1002B8002100310820004F05D100D11ABC292100A6
:1002C800B11E792930092000CE0021003109200013
:1002D800CF00CE0A0319CF0A4E08003E2100B00015
:1002E800403020004F3D2100B1002000D91E89294F
:1002F8005809CE005909CF00CE0A0319CF0A4E0873
:10030800003ED80040304F3DD90059082100310245
:10031800031D922920005808210030020318A32940
:1003280030092000CE00210031092000CF00CE0A7C
:100338000319CF0A58084E07D4005908B3292000DA
:100348005809CE005909CF00CE0A0319CF0A210057
:10035800300820004E07D4002100310820004F3D0E
:10036800D50000305502053003195402031CE72953
:1003780082316D2280312000CE00CF014E08D60098
:100388004F08D700D71421003703031DCD292000BB
:10039800D7152000D7165708A7005608A6008B3196
:1003A800F4238031210025082000A700210024081B
:1003B8002000A6008B31F42380312100B9012508E3
:1003C800B1002408EE29200053082100B1002000C4
:1003D80052082100B000210025082000D900210082
:1003E80024082000D8002100C81F3A2AC301C30AE4
:1003F80020005809CE005909CF00CE0A0319CF0AA8
:100408004E08003ED80040304F3DD9005908CF0073
:100418005808CE00CF36CE0CCF36CE0CCF36CE0C09
:100428004E082100B40020004F082100B50020002C
:1004380058080739CE004E08E80004306802031C4B
:10044800292A0130CE004E08E80703306806031950
:10045800312A08306806031D08002100341C0800F2
:1004680001302000CE004E08E80708002100C30133
:1004780020005908CF005808CE00CF36CE0CCF3612
:10048800CE0CCF36CE0C4E082100B40020004F0809
:100498002100B500200058080739CE004E08E800B2
:1004A80004306802031C5C2A0130CE004E08E807BD
:1004B800043068060319642A08306806031D08001A
:1004C8002100341C080001302000CE004E08E80747
:1004D800080000302000C5000030C4000030C30010
:1004E8000030C2000030C9000030C8000030C7002A
:1004F8000030C6000030CD000030CC000030CB000A
:100508000030CA00E3308C31F724823120006903BF
:10051800031D422B210067085906031D4B2B2100A0
:1005280063082000B800B901210065082000BA005E
:10053800BB013A08A1003B08A2001030A3000E300E
:10054800A40096314726823120002108BC002208E9
:10055800BD00210064082000BE00BF013E08A100C4
:100568003F08A2003C30A3000030A4009631472683
:100578008231200021083C07C00022083D3DC1000F
:1005880038084007C6003908413DC700C801C71BE5
:10059800C8034808C900210055082000B800B9015F
:1005A800210057082000BA00BB013A08A1003B0807
:1005B800A2001030A3000E30A400963147268231E5
:1005C80020002108BC002208BD0021005608200098
:1005D800BE00BF013E08A1003F08A2003C30A300B6
:1005E8000030A400963147268231200021083C07BC
:1005F800C00022083D3DC10038084007CA0039083C
:10060800413DCB00CC01CB1BCC034C08CD004608A8
:10061800B8004708B9004808BA004908BB004A09A9
:10062800BC004B09BD004C09BE004D09BF00BC0A07
:100638000319BD0A0319BE0A0319BF0A3C08B80703
:100648003D08B93D3E08BA3D3F08BB3D3B08C500E3
:100658003A08C4003908C3003808C200D5308600FB
:100668008701E3308400850107302000B8001200BC
:100678001E00B80B3B2B2000420808000330690617
:10068800031D092C21006708600603195A2B9731AE
:100698007927823197319A2782318E319C2682318F
:1006A8002100B801B9012000E901092C21006308E3
:1006B8002000B800B901210065082000BA00BB017C
:1006C8003A08A1003B08A2001030A3000E30A40095
:1006D80096314726823120002108BC002208BD003F
:1006E800210064082000BE00BF013E08A1003F08A9
:1006F800A2003C30A3000030A40096314726823186
:10070800200021083C07C00022083D3DC1003808F0
:100718004007C6003908413DC700C801C71BC803C8
:100728004808C90021005C082000B800B901210070
:100738005E082000BA00BB013A08A1003B08A200ED
:100748001030A3000E30A4009631472682312000D5
:100758002108BC002208BD0021005D082000BE0061
:10076800BF013E08A1003F08A2003C30A3000030B2
:10077800A400963147268231200021083C07C0009A
:1007880022083D3DC10038084007CA003908413DEC
:10079800CB00CC01CB1BCC034C08CD004608B800DD
:1007A8004708B9004808BA004908BB004A09BC0014
:1007B8004B09BD004C09BE004D09BF00BC0A031916
:1007C800BD0A0319BE0A0319BF0A3C08B8073D0849
:1007D800B93D3E08BA3D3F08BB3D3B08C5003A0855
:1007E800C4003908C3003808C200DC30860087011D
:1007F800E3308400850107302000B80012001E0095
:10080800B80B022C20004208080000300800220023
:10081800E001E101E201DE01DF0121001710971478
:10082800171197111716971264009531972584317F
:1008380010302000E3003930E2001B30E100E10B0A
:10084800232CE20B232CE30B232C003220008D1ADF
:10085800302C22000C15322C22000C118C11E101D5
:10086800E201E001103060020318532C0B3096317E
:10087800BA26843122006108200021072200E10005
:1008880062082000223D2200E20001302000E10041
:1008980061082200E00710306002031C3A2C610E48
:1008A8000F39E100620EF039E104620E0F39E200FF
:1008B800033062022030031961020318662C0C1100
:1008C8006400642C2200E001E101E20121008D15A1
:1008D80089313C21843152309531AC25843128301E
:1008E8009531AC25843102309531AC258431063000
:1008F8009531AC25843111302000A5009830A60030
:100908000430E1006108A70000308931702184318A
:100918002000E901E6012100B801B901AE01AF01EB
:10092800B001B101B601B7012000E7012100BC0107
:10093800BD012200E101E20100302000E400203086
:10094800E5008B31562384316400210017148B177E
:100958000B170B309631BA2684312200610820002B
:1009680021072200E10062082000223D2200E20067
:1009780001302000E10061082200E0071030600625
:10098800031DDD2CE001610E0F39E100620EF03924
:10099800E104620E0F39E2000330620220300319CD
:1009A80061020318DA2C0C116400D82C2200E10132
:1009B800E2018931DA2184318531C22584318D31D2
:1009C800C42584319431EC24843121003D08031D71
:1009D800AD2C9631D8268431AD2C2000B0012100F1
:1009E80035082000B200210034082000B100003092
:1009F800A100A2000430A3000030A400EA30963120
:100A08001126843120003108320403198E2D01305B
:100A18002000AF002F08B0070A30A7000030A80058
:100A28003208AA003108A9008931A52184312000A3
:100A38002808B2002708B100062D6430A70000304E
:100A4800A800210035082000AA0021003408200051
:100A5800A9008931A52184312000280885002708AC
:100A68008400003084079830853D0008AF002F08C7
:100A78002100EA000A302000A7000030A800210069
:100A880035082000A400210034082000A3006430A9
:100A9800A1000030A2008831802084312000220883
:100AA800AA002108A9008931A5218431200028083D
:100AB800850027088400003084079830853D0008A9
:100AC800AF002F082100EB000A302000A100003001
:100AD800A200210035082000A400210034082000CD
:100AE800A300883180208431200022088500210855
:100AF8008400003084079830853D0008892D003037
:100B080084009830850000082000AF002F082100DD
:100B1800EC009D2D20003008003A0319832D013A7E
:100B28000319682D033A03193E2D013A0319212DA3
:100B38009D2D21004303031DA72D20302000AF0069
:100B48002F082100EA0020006808003E8400983041
:100B58000318013E850000080838AF002F0821005F
:100B6800ED00EA302000A5000030A6000430AF00F8
:100B78002F08A70000308931702108002000DE010D
:100B88002100BA019731DD2785312000DB005B08A1
:100B9800DE005E080319080022008C11200066039D
:100BA800031D5E2E22000C125E2E6400033021000D
:100BB8003A020318E22D20008D1ED92D03302100A2
:100BC8003A02031CEF2D22000C118C1504309531CC
:100BD800AC258531202E171000302000DF00203092
:100BE800E00023306002E83003195F0203181D2E6D
:100BF8006008A2005F08A1009631F7268531200021
:100C08002208DD002108DC005D0895311A258531B0
:100C180020005C0895311A25853101302000DF0756
:100C28000030E03D23306002E83003195F02031C06
:100C3800FC2D21001714640020008D1A08006400A0
:100C4800202E6400033021003A0203182E2E2000C3
:100C58008C1F252E033021003A02031C512E200040
:100C68006608031D4A2E9431D824853197319A2776
:100C780085318E319C2685312100B801B901AE013C
:100C8800AF01B001B1012000E901592E9431CE2401
:100C98008531973179278531592E05302000DB00C1
:100CA8005B08E9008931DA21853120008C1B0800B6
:100CB8006400592E20005E08013A0319DA2D033A20
:100CC8000319262E682E08000800F800F701F9011C
:100CD800FA01F501F6010230F1007108F700700819
:100CE800FD3EF100FF3003180030F2007208803A30
:100CF800803C031D812E710877020318DE2E7908C7
:100D0800F200F1017A08F4007908F3007408F3009E
:100D1800F40171087304F90072087404FA00770882
:100D28007807F10071088600013087000108F20099
:100D3800F3017208F9067308FA067A08F2007908CE
:100D4800F1000430F236F10C890BA62E0F30710534
:100D5800F30000307205F4007308F9067408FA0607
:100D68007908F200F101F10EF20EF030F205710887
:100D78000F39F204F030F1057108F9067208FA0625
:100D8800FF307905F10000307A05F200F10EF20E1D
:100D9800F030F20571080F39F204F030F105F13541
:100DA800F20D7108F9067208FA060130F1007108AF
:100DB800F707732E7008FE3E7807F1007108860069
:100DC800013087000108F200F3017208F50073088A
:100DD800F6000830F535F60D890BEE2E7008FD3E4D
:100DE8007807F10071088600013087000108F200D9
:100DF800F3017208F5047308F60476087A06031DF1
:100E0800072F75087906031D0B2F013008000030E5
:100E18000800220033082000BC002200320820000D
:100E2800BB00220031082000BA0022003008200050
:100E3800B900E3308C31F72487310A302000A10053
:100E48000030A200210065082000B600B70136086E
:100E5800A3003708A4008C314524873120002208DC
:100E6800850021088400003084079830853D0008FB
:100E7800B8003808B900B9150A30A1000030A2003E
:100E8800210065082000B600B7013608A30037081E
:100E9800A4008A31C6228731200022088500210853
:100EA8008400003084079830853D0008B800380871
:100EB800BA000A30A1000030A20021006408200016
:100EC800B600B7013608A3003708A4008C314524C2
:100ED800873120002208850021088400003084071B
:100EE8009830853D0008B8003808BB000A30A100DA
:100EF8000030A200210064082000B600B7013608BF
:100F0800A3003708A4008A31C622873120002208AE
:100F1800850021088400003084079830853D00084A
:100F2800B8003808BC003930A5000030A6000430ED
:100F3800B6003608A700003089317021080020006B
:100F4800A200A301083023020318D02FA21FAF2F3D
:100F580022008D14B12F22008D1003302000A10033
:100F6800A10BB42F22000D1403302000A100A10B07
:100F7800BB2F03102000A20D22000D10033020000B
:100F8800A100A10BC52F01302000A1002108A30753
:100F980008302302031CAA2F22008D1403302000DE
:100FA800A100A10BD52F22000D1403302000A100B1
:100FB800A10BDC2F21008D1420008D1CE72F2100B0
:100FC8008D100130080021008D1022000D10033013
:100FD8002000A100A10BEE2F22008D10033020006D
:100FE800A100A10BF52F0030080064008001013139
:060FF800890BFA2F003402
:10100000FE0012001E00FE0B0128003401302000FB
:10101000A1002108E90704306906031913280D30DF
:101020006902031C1428E9010130A10021082100F4
:10103000B807833038020318B80101302000A1003E
:1010400021082100B90783303902031C0800B901C7
:10105000080000308B1B01302000A5008B132300FB
:101060001513151595162000210823009100200066
:101070002208230092002000230823009300200070
:10108000240823009400951255309600AA3096004B
:10109000951400000000230015112000250C031CEE
:1010A0008B1303188B17080021002B082000AF00BA
:1010B00021002A082000AE00210029082000AD00F0
:1010C000210028082000AC001030840098308500F2
:1010D0000008AB002B08AD000C3084009830850070
:1010E0000008AB002B08AE002C30A5000030A60095
:1010F0000430AB002B08A7000030893170210800B4
:101100002000210822040319A828A601A60AA21B70
:1011100093280130A135A20D890B8A280130A50042
:101120002508A607872822082402031D99282108DC
:101130002302031C9F282108A3022208A43B01309C
:10114000A236A10C890BA0280130A602031D93280A
:101150002408A2002308A10008002000B1000A30E2
:10116000A1000030A2003108AA00AB012A08A300A8
:101170002B08A4008A31C622883120002108AC0047
:101180002208AD000A30A1000030A2003108AE00F4
:10119000AF012E08A3002F08A4008C31452488310C
:1011A00020002108B0000330B035FF3E031DD428D5
:1011B00030352C0708002000A20122008D142000E9
:1011C000A30108302302031809290310A20D2200ED
:1011D0000D1403302000A100A10BEC2821008D1478
:1011E00020008D1CF72821008D10200022142100E2
:1011F0008D1022000D1003302000A100A10BFE284D
:1012000001302000A1002108A30708302302031C9D
:10121000E628220808002000B00021002308200052
:10122000AF00210022082000AE002100210820008C
:10123000AD00210020082000AC0000308400983070
:1012400085000008AB002B08AD003008003E84008C
:1012500098300318013E85000008AB002B08AE0053
:101260002C30A5000030A6000430AB002B08A700EE
:101270000030893170210800543086000130870029
:101280002D308400003085000A302000AB001600AD
:101290001A00AB0B4729FF30A1001F30A200963186
:1012A000F72689312000210A3F3003192206031D49
:1012B00008002D30AB002B08A4000730AC002C0830
:1012C000A50000308A3111228931FF302000A100B1
:1012D0001F30A2000030A300A4008831292008009C
:1012E0002000A90022000E1003302000A8002808CA
:1012F000A100A03097313727893106302000A8009F
:101300002808A10029089731372789312000AA0130
:1013100027082A020318A2290830A8002808A100DB
:101320002508840026088500000897315827893150
:1013300001302000A8002808AA070130A5070030C6
:10134000A63D882922000E1408002000AD01AE0140
:10135000270828040319D529AC01AC0AA81BBA290F
:101360000130A735A80D890BB1290130AB002B083E
:10137000AC07AE290130AD35AE0D890BBB2928086D
:101380002A02031DC52927082902031CCC29270886
:10139000A9022808AA3B2D140130A836A70C890BF6
:1013A000CD290130AC02031DBA292E08A8002D0852
:1013B000A7000800FE29013089310B218931220064
:1013C0008C140C140C108B310C2322000C1408000C
:1013D0008A3188220800023089310B2189312200AC
:1013E0000C148C148C108B310C2322008C140800EC
:1013F0008A318822080087310D27080020006908FB
:10140000003A0319DB29013A0319E829033A0319C1
:10141000EB29013A0319F829063A0319FB29102A86
:1014200008002000A800AA01AA0A963180268A3165
:10143000D0308731A3278A312000A6002608AA00D1
:101440002A08031D080028088731A3278A312000B5
:10145000A6002608AA002A08031D0800A9012508DD
:1014600029020318492A29082407A600260886000D
:10147000870101088731A3278A312000A7002708A8
:10148000AA002A08031D08000130A6002608A907A3
:101490002F2A96319D260800220038082000BF0020
:1014A0003F082100E900220039082000BF003F0862
:1014B0002100E80022003A082000BF003F08210078
:1014C000E70022003B082000BF003F082100E500A4
:1014D00022003C082000BF003F082100E400220059
:1014E0003D082000BF003F082100E30022003E0825
:1014F0002000BF003F082100E600E3308C31972434
:101500008A31E3308C31F7248A318D315B25080034
:1015100021004C08031DA12A803158208A318431D2
:10152000F1248A3120006903031D992A2100B601A4
:101530000800033020006906031D08002100B701E0
:10154000080020006903031DA92A2100B601B60A7C
:10155000B12A033020006906031DB12A2100B7011A
:10156000B70A883154208A31FF302000DA005A0847
:10157000A200823095312A258A3195314A258A3157
:101580002000A201823095312A2508002000A70101
:10159000A41FD12AA309A409A30A0319A40AA70115
:1015A000A70AA21FD82AA109A209A10A0319A20AFF
:1015B000210822040319FF2AA601A60AA21BEA2A6F
:1015C0000130A135A20D890BE12A0130A5002508C3
:1015D000A607DE2A22082402031DF02A210823027E
:1015E000031CF62A2108A3022208A43B0130A236DC
:1015F000A10C890BF72A0130A602031DEA2A27084D
:101600000319072BA309A409A30A0319A40A240890
:10161000A2002308A100080040309531DC258B3161
:101620002100BB01142B640020008D1D1C2B1F30DA
:1016300021003B02031C132B1F3021003B02031C23
:10164000242BCC01CC0A0800CD302000AE002E089F
:10165000A9000630AF002F08AA000A309531C42532
:1016600021004D082000AE002E082100C5004E08C4
:101670002000AE002E082100C6004F082000AE005A
:101680002E082100C80050082000AE002E082100BE
:10169000CA0051082000AE002E082100C9005208DF
:1016A0002000AE002E082100CC0008002000AA0176
:1016B000AB01A801A901A7010030AA002030AB00AE
:1016C00040302B02003003192A02031808002B08AF
:1016D000A2002A08A1009631F7268B3120002208AB
:1016E000A9002108A800553028061530031929063D
:1016F000031D7F2B0130A6002608A7079D2B280A73
:101700003F3003192906031D8E2B02302702031CCC
:101710008E2B2B08E5002A08E4000800280A3F3039
:1017200003192906031D9B2B2B08E5002A08E4005A
:101730009731792708002000A70101302000AA076F
:101740000030AB3D602B2000A700A8012208031940
:1017500008002708031DD52BDA2B2308031DBB2BFC
:1017600028082707A400240886008701010894316F
:10177000FF248B31D02B200028082707A400240841
:101780008600870101089431FF248B312000A500D9
:1017900028082307A600260886008701250881005F
:1017A00001302000A4002408A807220828020318FA
:1017B0000800AD2B2308031908002208280203188B
:1017C000080000309431FF248B312000A400280849
:1017D0002307A50025088600870124088100013021
:1017E000A4002408A807DD2B1F3020006405A800F2
:1017F00000306505A90028082904031D142CE030D9
:1018000064063F3003196506031D0A2C0030A10051
:101810002030102C20006408203EA1000030653DDF
:10182000A200973117278B31FF3020002605A80032
:101830003F302705A900280A3F3003192906031D58
:101840002A2C6508A2006408A100FE30A3003F30E6
:10185000A400332C20006508A2006408A10027081A
:10186000A4002608A300883129208B3101302000F4
:10187000E4070030E53D403065066404031D0800C0
:101880000030E4002030E50008002000A701A21F7E
:10189000502CA109A209A10A0319A20AA701A70AAB
:1018A000A41F5B2CA309A409A30A0319A40A0130ED
:1018B000A5002508A706A801A901210822040319EB
:1018C0008A2CA601A60AA21B6F2C0130A135A20DFD
:1018D000890B662C0130A5002508A607632C013072
:1018E000A835A90D890B702C22082402031D7A2C1F
:1018F00021082302031C812C2108A3022208A43BF7
:1019000028140130A236A10C890B822C0130A602CA
:10191000031D6F2C27080319922CA809A909A80AEE
:101920000319A90A2908A2002808A100080020001C
:10193000BE003E088600870101088831AD208C3149
:101940002000B2003208B4003E0A86008701010878
:101950008831AD208C312000B2003208B5003E083D
:10196000023E8600870101088831AD208C312000BD
:10197000B2003208B6003E08033E86008701010827
:101980008831AD208C312000B2003208B7003E080B
:10199000043E8600870101088831AD208C3120008B
:1019A000B2003208B8003E08053E860087010108F3
:1019B0008831AD208C312000B2003208B9003E08D9
:1019C000063E8600870101088831AD208C31200059
:1019D000B2003208BA003430B2003208A400073036
:1019E000B3003308A50000308A311122080020001E
:1019F000B5002B30A9002908A4000730AA002A0846
:101A0000A50000308F310E278C3120002B087F3944
:101A100095316D258C312000A9003508860087019D
:101A2000290881002C087F3995316D258C312000E3
:101A3000A900350A86008701290881002D083F3951
:101A400095316D258C312000A9003508023E8600B5
:101A50008701290881002E0895316D258C312000E1
:101A6000A9003508033E86008701290881002F0858
:101A700095316D258C312000A9003508043E860083
:101A8000870129088100300895316D258C312000AF
:101A9000A9003508053E8600870129088100310824
:101AA00095316D252000A9003508063E8600870186
:101AB0002908810008002000BC01BD01FE30AB00F8
:101AC0002B08AC00FE30AB002B08AD000230AB00A1
:101AD0002B08AE000730AB002B08AF0021006908CF
:101AE0002000AB002B08B000210068082000AB00EC
:101AF0002B08B100210067082000AB002B08B200C2
:101B0000210065082000AB002B08B3002100640809
:101B10002000AB002B08B400210063082000AB00BC
:101B20002B08B500210066082000AB002B08B6008A
:101B30000E30AB002B08A1002C308F3186278D3161
:101B400020002208BD002108BC003D08AB002B0886
:101B5000B7003C08AB002B08B800BB30AB002B082B
:101B6000B900BE010E303E02031808003E082C3EAC
:101B700086008701010895311A258D31013020003A
:101B8000AB002B08BE07B22D2000D001D1016903A4
:101B9000031DF92D6603031DF92D7930210038024C
:101BA000031C080082316D228D312000CE00CF0150
:101BB0004E08D0004F08D100511421003603031DF8
:101BC000E32D20005115200051165108A7005008A0
:101BD000A6008B31F4238D3121002F082000A700AF
:101BE00021002E082000A6008B31F4232100B8012B
:101BF0000800033020006906031D08006603031D6A
:101C00000800793021003902031C080082316D225E
:101C10008D312000CE00CF014E08D0004F08D100FA
:101C2000D11421003703031D172E2000D1152000E9
:101C300051165108A7005008A6008B31F4238D31AE
:101C4000210031082000A700210030082000A60054
:101C50008B31F4232100B901080023009D1C322E92
:101C60001D121D161908FB007B08FD007D08FB00F6
:101C700020006708343E8600013087007B08810021
:101C80000130FB007B08E7070A30FB007B082100DE
:101C9000BD00171020006703031D542EFE307D0683
:101CA00003190800E701080002306706031D5E2ED5
:101CB000FE307D0603190800E701080004306706BE
:101CC000031D682E08307D02031C0800E701080090
:101CD0000F306702031C6E2EE70108002200370850
:101CE000073EFB00003003180130FC0020006708AD
:101CF0007B067C04031D0800BB307D06031D080025
:101D00006708FB007B08F0003430863169268E318D
:101D1000003A031D902E992E2100BC01BC0A992E79
:101D200022003608013A0319992E033A03198C2E22
:101D3000992E2000E7010800E3308C31F7248E3122
:101D4000D53086008701E33084008501073020000C
:101D5000B60012001E00B60BA92EDC3086008701EB
:101D6000E3308400850107302000B60012001E0019
:101D7000B60BB62E210069082000B600B701360860
:101D8000A6003708A7008B31F4238E3121006808A4
:101D90002000B600B7013608A6003708A7008B312F
:101DA000F4238E31210067082000B600B701360801
:101DB000A6003708A7008B31F4238E312100650877
:101DC0002000B600B7013608A6003708A7008B31FF
:101DD000F4238E31210064082000B600B7013608D4
:101DE000A6003708A7008B31F4238E312100630849
:101DF0002000B600B7013608A6003708A7008B31CF
:101E0000F4238E31210066082000B600B7013608A1
:101E1000A6003708A7008B31F42308002000A70094
:101E2000A801A80A963180268F31D0308731A327A8
:101E30008F312000A6002608A8002808031D0800EE
:101E400027088731A3278F312000A6002608A80085
:101E50002808031D0800963180268F31D130873144
:101E6000A3278F312000A6002608A8002808031DFC
:101E7000080002302502031C642F8831DB208F31DB
:101E80002000A60024088600870126088100220081
:101E90008D1003302000A600A60B4C2F22000D143D
:101EA00003302000A600A60B532F22000D10033094
:101EB0002000A600A60B5A2F01302000A6002608FD
:101EC000A4070130A502392F8831DB208F31200093
:101ED000A6002408860087012608810022008D14B0
:101EE00003302000A600A60B732F22000D14033030
:101EF0002000A600A60B7A2F22000D100330200030
:101F0000A600A60B812F96319D2608002000A70071
:101F1000A801A901AA010230A3002308A8002108F2
:101F2000FD3EA300FF3003180030A4002408803ACF
:101F3000803C031D9D2F230828020318FA2F200040
:101F40002908A400A3012A08A6002908A50026083C
:101F5000A500A60123082504A90024082604AA0038
:101F600028082707A3002308860087010108A4008A
:101F7000A5012408A9062508AA062A08A4002908FC
:101F8000A3000430A436A30C890BC22F0F30230505
:101F9000A50000302405A6002508A9062608AA06E3
:101FA0002908A400A301A30EA40EF030A405230861
:101FB0000F39A404F030A3052308A9062408AA06B3
:101FC000FF302905A30000302A05A400A30EA40EAB
:101FD000F030A40523080F39A404F030A305A3357D
:101FE000A40D2308A9062408AA060130A30023088B
:101FF000A8078F2F20002A08A2002908A1000800A6
:1029940082302200970008002000E60122000C1675
:1029A40008006830210099009A0108002000E6011F
:1029B400E60A22000C12080024009401303095002D
:1029C40092010800013021009D00C3309E009B014C
:1029D4009C01080021003C03031D08008A314C229D
:1029E4002100BC010800013444341034023418348A
:1029F400073416340034003400342000A1002400CD
:102A040095132000210824009100141C072D11089F
:102A140008000130F00070082100BA073D080319CE
:102A2400152D0130BD023D08031D080017140800D0
:102A34002000A100210823009A00200011120000A8
:102A44002000111A08000000000000000000222DE0
:102A54002000A30022008C12200023089431FF24BC
:102A64009531200022089431FF2422008C1608009E
:102A740021001508C03917389500D9302000950079
:102A8400D930A10021082100EF000B118B1608009A
:102A940000309531822595312000A5002508EA00F3
:102AA400EA146A08A5002508A200803095312A2579
:102AB40008002000A400A301241C642D2108A20006
:102AC4002208A3070310A10D0310A40C2408031D5E
:102AD4005E2D230808002000A8000F302805A5005B
:102AE4000A30A6002608A1002808A7000430A7364B
:102AF400890B792D270895315B25200025070800CF
:102B04002000A30022008C12200023089431FF240B
:102B14009531FF309431FF242000A2002208A40044
:102B240022008C162000240808009431D324953107
:102B34009731BB2795319431DE24953196312C267B
:102B440095319431E42495319431CA2495319531E9
:102B54003A2508002000A60022000E1004302000B0
:102B6400A5002508A100803097313727953108301A
:102B74002000A5002508A100260897313727220048
:102B84000E1408002000AD0022008C1220002D0835
:102B94009431FF24953120002A08AB002B08A200B1
:102BA4002908AC002C08A30000308B31A323220099
:102BB4008C1608002000A60000309531822595313E
:102BC4002000A5002508EA003F30A5002508EA05F5
:102BD4002608A5002508EA046A08A5002508A2001D
:102BE400803095312A2508000B1121006F08200040
:102BF40095000130F10071082100BB070130AC07DA
:102C04000030AD3D00302D02643003192C02031C4A
:102C1400080095310B252100AC01AD01080020000E
:102C2400A6002608A5002508A7000130A30200304D
:102C3400A43B230A0319240A031908002108A50048
:102C4400270886008701250881000130A500250892
:102C5400A707172E210091121112483023009F005C
:102C640090309D0026309E0033309B009C01210053
:102C7400C101C20108302000A10021082100EE009A
:102C8400BF01C001BE01911608002000A501A601E4
:102C9400211C502E2308A5072408A63D0130A33586
:102CA400A40D890B512E0130A236A10C890B562E8E
:102CB40021082204031D4A2E2608A2002508A1008B
:102CC4000800083021006E0203187E2E4208283EB8
:102CD400860001308700010823009A000130F000CB
:102CE40070082100C207083042020318C2010130F3
:102CF400F0007008EE0708001112080022008D147D
:102D040003302000A100A10B852E22000D140330F6
:102D14002000A100A10B8C2E22008D100330200076
:102D2400A100A10B932E22000D1003302000A1005E
:102D3400A10B9A2E080022000D1003302000A100E0
:102D4400A10BA22E22008D1003302000A100A10BA4
:102D5400A92E22000D1403302000A100A10BB02ED7
:102D640022008D1403302000A100A10BB72E08000F
:102D74002000A4002408A300A30DA30D21001D0816
:102D8400200023068339230621009D001D140032F0
:102D94000032000021009D149D18CE2E1C08200036
:102DA400A20021001B082000A100080022008C15AD
:102DB4000C160C148C140E140E150C178E140D1402
:102DC4008D146300200069080319EC2E0230690693
:102DD400031DF42E22008C1120006603031DF42E23
:102DE40022000C1288310620080000308B1B0130B1
:102DF4002000A3008B132108230091002000220847
:102E04002300920015131514000000002000230C69
:102E1400031C8B1303188B17230014082000A20033
:102E2400230013082000A100080000308B1B013090
:102E34002000A3008B132108230091002000220806
:102E44002300920015131516151555309600AA3057
:102E54009600951400000000230015112000230C97
:102E6400031C8B1303188B1708002000A300A40174
:102E74002108240203180800A31B432F22000E116B
:102E8400452F22000E158E10F9302000A2000000FC
:102E9400A20B492F0032000022008E1403102000E0
:102EA400A30D0130A2002208A4073A2F2000A3009A
:102EB400A40121082402031808002318642F220007
:102EC4000E11662F22000E158E10F9302000A2007C
:102ED4000000A20B6A2F0032000022008E1403109F
:102EE4002000A30C0130A2002208A4075B2F2000BD
:102EF4006508A2006408A1005530A3005530A40061
:102F040088312920973101302000E4070030E53D65
:102F14006508A2006408A1005530A3005530A40040
:102F24008831292001302000E4070030E53D080005
:102F340020006508A2006408A100AA30A300AA30FA
:102F4400A40088312920973101302000E4070030A3
:102F5400E53D6508A2006408A100AA30A300AA30D8
:102F6400A4008831292001302000E4070030E53D29
:102F740008007B3022008C00803021008C0023006C
:102F84008C0122008D01FC3021008D0010302300C3
:102F94008D002C3024008D00073022008E00D030AC
:102FA40021008E0023008E0124009001210095133E
:102FB40022009D010800FF302000A1002108A30089
:102FC4008C1FE62F8D1AFE2F0D30A200FB30A100BE
:102FD400A10BEA2FA20BEA2F003220008C1FF42F42
:102FE4008D1AFE2F8D1AF82FA301A30A8C1BFE2F16
:102FF4000230A1002108A30023080800D73450346C
:10300400B534F1347234E334E7345134F734F334FF
:103014007734E6348734F434A734273457342034EF
:06302400203420342034AA
:020000040001F9
:04000E00ECFFFFDF25
:00000001FF
