:040000008031132810
:100008007E14803120007F08F1008B1A0B1D0E280A
:100018008431E42471082000FF007E10090080313B
:100028001528FB01203084000030850031308531EF
:1000380074258031A030840000308500403085313F
:1000480074257E1020008231282A00302000A70065
:100058000030A6000030A5000030A4003F307B052A
:10006800F2007208F4004208F300740DF40CF30C6B
:100078007308A4007408A500890D893B8909A600A6
:10008800A700FB1BA516FB1FA128BB01BB0A00305C
:10009800F2004030F3000030F4000030F50024098D
:1000A800F6002509F7002609F8002709F900F60ADD
:1000B8000319F70A0319F80A0319F90A7608F20767
:1000C8007708F33D7808F43D7908F53D7508A700F1
:1000D8007408A6007308A5007208A4002408F2009A
:1000E8002508F3002608F4002708F5000330F53644
:1000F800F40CF30CF20C890B7B287308B900720816
:10010800B80024080739F2007208BA0004303A022D
:10011800031C92280130F2007208BA0703303A062D
:1001280003199A2808303A06031D0800381C0800ED
:100138000130F2007208BA070800BB012408F20077
:100148002508F3002608F4002708F5000330F536E3
:10015800F40CF30CF20C890BAB287308B900720885
:10016800B80024080739F2007208BA0004303A02CD
:10017800031CC2280130F2007208BA0704303A069C
:100188000319CA2808303A06031D0800381C08005D
:100198000130F2007208BA0708002000D9013908B6
:1001A800DB003808DA000030F200F3000430F40015
:1001B8000030F5004D3084317024803120005A0819
:1001C8005B040319522901302000D8005808D907C8
:1001D8000A30D1000030D2005B08D4005A08D3009E
:1001E80082319322803120005208DB005108DA0066
:1001F800E2286430D1000030D2003908D400380831
:10020800D3008231932280312000520885005108A2
:100218008400BA3084078430853D0008D800580827
:10022800CD000A30D1000030D2003908F500380876
:10023800F4006430F2000030F30083313023803161
:1002480073082000D4007208D300823193228031D1
:1002580020005208850051088400BA308407843091
:10026800853D0008D8005808CE000A30F20000305A
:10027800F3003908F5003808F40083313023803161
:100288007308850072088400BA3084078430853D7D
:1002980000082000D8005808CF005D295908013A05
:1002A80003193929033A03191529013A0319FD28B5
:1002B8005D293B030319CD153A08BA3E8400843002
:1002C8000318013E850000080838D8005808D000F7
:1002D8004D30F7000030F8000430D8005808F90015
:1002E80000308231C82208001530F5007508FA0080
:1002F8000F30F50075082000C0050730F5007508B7
:10030800C004C3017A08F5007508F3008030853110
:100318004A25813120004008F5007508F300813036
:1003280085314A25813120004308F5007508F3001E
:10033800823085314A2581317F30F5007508F30018
:10034800833085314A258131C030F5007508F300C6
:10035800843085314A2581317F30F5007508F300F6
:10036800853085314A258131FF30F5007508F30065
:10037800863085314A2581318030F5007508F300D3
:10038800873085314A258131F301883085314A2506
:100398008131F301893085314A258131F3018A3071
:1003A80085314A258131F3018B3085314A25080092
:1003B800F800F9017308031908007808031D0A2AD0
:1003C8000F2A7408031DF32979087807F5007508C2
:1003D800860087010108853163258131062A79085D
:1003E8007807F500750886008701010885316325BF
:1003F8008131F60079087407F700770886008701CD
:10040800760881000130F5007508F907730879024C
:1004180003180800E529740803190800730879020D
:10042800031808000030853163258131F50079080B
:100438007407F60076088600870175088100013088
:10044800F5007508F907122A2000E001E10184315E
:10045800F924823122008C110C12813178218231E9
:1004680021008D1552308431CF24823128308431D7
:10047800CF24823102308431CF2482310630843156
:10048800CF248231CB30F7008430F80004302000CC
:10049800DF005F08F90000308231C8228231200075
:1004A800BC018B170B178231FD228231843156240F
:1004B8008231572A20002F08D8002E08D7002D088F
:1004C800D6002C08D500C930840084308500000887
:1004D800D4005408D500C930840084308500000851
:1004E800D4005408D600C930840084308500000840
:1004F800D4005408D700C93084008430850000082F
:10050800D4005408D8005530F7000030F800043003
:10051800D4005408F90000308231C82208002000B5
:10052800D601D701510852040319C32AD501D50AA7
:10053800D21BA82A0130D135D20D890B9F2A013050
:10054800F8007808D5079C2A0130D635D70D890BD5
:10055800A92A52085402031DB32A51085302031C46
:10056800BA2A5108D3025208D43B56140130D23665
:10057800D10C890BBB2A0130D502031DA82A5708C4
:10058800D2005608D10008002000D20022000E1028
:1005980003302000D1005108F200A0308431182423
:1005A800823106302000D1005108F200520884310F
:1005B800182482312000D301790853020318FA2A3B
:1005C8000830D1005108F2007708840078088500C7
:1005D80000088331F823823101302000D10051080E
:1005E800D3070130F7070030F83DE02A22000E1447
:1005F80008001D2B013083318823823122008C149E
:100608000C140C1083315C23080084313824080052
:10061800023083318823823122000C148C148C1010
:1006280083315C23080084313824080082315E223B
:10063800080020003C08003A0319FE2A013A031971
:10064800092B033A03190C2B013A0319172B063A05
:1006580003191A2B2F2B0800720873040319572B40
:10066800F701F70AF31B422B0130F235F30D890B22
:10067800392B0130F6007608F707362B7308750218
:10068800031D482B72087402031C4E2B7208F402D7
:100698007308F53B0130F336F20C890B4F2B013010
:1006A800F702031D422B7508F3007408F2000800D6
:1006B800403084318A24833120008D19602B4530E5
:1006C800D6005608D1000630D7005708D2000A30A5
:1006D8008431A22420004508D6005608BE004608EA
:1006E800D6005608BF004708D6005608FB00480841
:1006F800D6005608C2004908D6005608C1004A0864
:10070800D6005608C40008002000D9002308D800E5
:100718002208D7002108D6002008D500BA30840066
:10072800843085000008D4005408D6005908BA3E21
:10073800840084300318013E85000008D400540862
:10074800D7005530F7000030F8000430D4005408C2
:10075800F90000308231C822080020002B08D80098
:100768002A08D7002908D6002808D500CA308400EE
:10077800843085000008D4005408D600C6308400B0
:10078800843085000008D4005408D7005530F7009D
:100798000030F8000430D4005408F90000308231E9
:1007A800C82208007F3022008C00803021008C0095
:1007B80023008C0122008D01FC3021008D001030B7
:1007C80023008D002C3024008D00073022008E007D
:1007D800D03021008E0023008E01240090012100DA
:1007E800951322009D010800F500F60172087602B3
:1007F800031808007518032C22000E11052C22007E
:100808000E158E100630F4003030F300F30B0A2C6E
:10081800F40B0A2C000022008E140310F50C013092
:10082800F3007308F607FA2BF500F6017208760252
:1008380003180800F51B232C22000E11252C22007A
:100848000E158E100630F4003030F300F30B2A2C0E
:10085800F40B2A2C000022008E140310F50D013031
:10086800F3007308F6071A2C20004408031D422CD5
:100878008031292084318031D12008008331B1238F
:100888008431FF302000DC005C08F30082308531C1
:100898004A25843185311C258431F3018230853124
:1008A8004A25080020008C1B08003430DE00F13097
:1008B800DD00DD0B5D2CDE0B5D2C003220008C1B77
:1008C80008000530DD005D08BC008231FD2284315E
:1008D80020008C1B08006C2CF7007708F6007608BF
:1008E800F8000130F4020030F53B740A0319750A68
:1008F800031908007208F600780886008701760850
:1009080081000130F6007608F807752CF7000030F2
:1009180085310B258431F6007608FA003F30F60061
:100928007608FA057708F6007608FA047A08F600D9
:100938007608F300803085314A2508002000D5006C
:1009480022008C122000550885316325843120004F
:100958005208D3005308F3005108D4005408F40097
:1009680000308131DC2122008C160800D734503445
:10097800B534F1347234E334E7345134F734F334B2
:100988007734E6348734F434A734273457342034A2
:10099800203420342034F80022000E100430F700F0
:1009A8007708F20080308431182484310830F70049
:1009B8007708F20078088431182422000E14080001
:1009C8000B112000620895000130B6070030B73DD2
:1009D80000303702C83003193602031C080085317D
:1009E8003B252000B601B7010800853180258431F8
:1009F8008331D623843185317A2584318531572551
:100A0800843185316C25843185312C250800F4002A
:100A180022008C127408853163258531FF308531B9
:100A28006325F3007308F50022008C16750808008A
:100A3800003085310B258531F6007608FA00FA1466
:100A48007A08F6007608F300803085314A250800D8
:100A580021001508C039173895006430200095002A
:100A68006430F2007208E2000B118B1608000130A6
:100A7800F00070082000BC0704303C060319482D1C
:100A880009303C02031C0800BC010800F4002200E5
:100A98008C12740885316325853173088531632587
:100AA80022008C160800483023009F0080309D00EB
:100AB80026309E00A0309B0001309C000800F20008
:100AC8002400951372089100141C682D1108080061
:100AD800013021009D0060309E009B019C010800B0
:100AE800640080010131890B752D003424009401C4
:100AF80030309500920108007830210099009A0161
:020B08000800E3
:020000040001F9
:04000E00E4FFFFDF2D
:00000001FF
