:040000008031132810
:100008007E14803120007F08F2008B1A0B1D0E2809
:100018008931E72172082000FF007E100900803135
:100028001528F801F901FA016130840000308500D3
:100038000D3088318A208031A0308400003085005E
:10004800413088318A208031203084000130850099
:10005800403088318A208031A9308400883085007A
:10006800E1308600003087000A30883184207E1015
:1000780020008331882B2000D101D201D501D6017F
:10008800D301D4010030E4000030E3000030E20086
:100098000030E1003F306D05CD004D08CF00210054
:1000A8003D082000CE004F0DCF0CCE0C4E08E100CD
:1000B8004F08E200890D893B8909E300E400ED1B44
:1000C800E2166208D6006108D5006C03031DF1280A
:1000D8006A03031DF12820305606550403197628B3
:1000E800013077280030CD00CE0165084D05CF00DE
:1000F80066084E05D000D01AC728E61E9028650964
:10010800CD006609CE00CD0A0319CE0A4D08003E7F
:10011800E50040304E3DE600D61E9F285509CD002B
:100128005609CE00CD0A0319CE0A4D08003ED50067
:1001380040304E3DD60056086602031DA5285508D6
:1001480065020318B3286509CD006609CE00CD0AFB
:100158000319CE0A55084D07D1005608BE2855097F
:10016800CD005609CE00CD0A0319CE0A65084D0701
:10017800D10066084E3DD200003052020530031906
:100188005102031CEB288131E72180312000CD008A
:10019800CE014D08D3004E08D40054142100320378
:1001A800031DD828200054152000D4165408B40084
:1001B8005308B3008731E827803120006208B40073
:1001C8006108B3008731E82780312100B40120009D
:1001D8006208E6006108E500792903306C06031D12
:1001E80079296A03031D7929203056065504031915
:1001F800FF28013000290030CD00CE0167084D05E9
:10020800CF0068084E05D000D01A5029E81E1929D9
:100218006709CD006809CE00CD0A0319CE0A4D083A
:10022800003EE70040304E3DE800D61E282955091B
:10023800CD005609CE00CD0A0319CE0A4D08003E5E
:10024800D50040304E3DD60056086802031D2E29C1
:100258005508670203183C296709CD006809CE00D4
:10026800CD0A0319CE0A55084D07D100560847296B
:100278005509CD005609CE00CD0A0319CE0A6708E4
:100288004D07D10068084E3DD200003052020530BB
:1002980003195102031C74298131E72180312000A0
:1002A800CD00CE014D08D3004E08D400D41421004F
:1002B8003303031D61292000D4152000D4165408E7
:1002C800B4005308B3008731E82780312000620862
:1002D800B4006108B3008731E82780312100B501F7
:1002E80020006208E8006108E7006208D60061089B
:1002F800D500ED1FBA292100B701B70A200055091A
:10030800CD005609CE00CD0A0319CE0A4D08003E8D
:10031800D50040304E3DD6005608CE005508CD00D9
:10032800CE36CD0CCE36CD0CCE36CD0C4D08F800E1
:100338004E08F90055080739CD004D08EB00043088
:100348006B02031CAB290130CD004D08EB070330CD
:100358006B060319B32908306B06031D0800781CC7
:1003680008000130CD004D08EB0708002100B70157
:1003780020005608CE005508CD00CE36CD0CCE361E
:10038800CD0CCE36CD0C4D08F8004E08F9005508B6
:100398000739CD004D08EB0004306B02031CD82947
:1003A8000130CD004D08EB0704306B060319E02936
:1003B80008306B06031D0800781C08000130CD00CA
:1003C8004D08EB07080000302000C4000030C300CF
:1003D8000030C2000030C1000030C8000030C70043
:1003E8000030C6000030C5000030CC000030CB0023
:1003F8000030CA000030C900D6308F319C278131C7
:1004080020006C03031DBC2A21005A084C06031D5A
:10041800C52A210056082000B700B8012100580855
:100428002000B900BA013908F3003A08F400103086
:10043800F5000E30F6008A3154228131730820000D
:10044800BB007408BC00210057082000BD00BE0195
:100458003D08F3003E08F4003C30F5000030F6009B
:100468008A3154228131730820003B07BF00740889
:100478003C3DC00037083F07C5003808403DC6006E
:10048800C701C61BC7034708C80021004808200049
:10049800B700B80121004A082000B900BA0139089C
:1004A800F3003A08F4001030F5000E30F6008A31F7
:1004B8005422813173082000BB007408BC0021005D
:1004C80049082000BD00BE013D08F3003E08F400C5
:1004D8003C30F5000030F6008A315422813173082F
:1004E80020003B07BF0074083C3DC00037083F07A9
:1004F800C9003808403DCA00CB01CA1BCB034B08D2
:10050800CC004508B7004608B8004708B9004808B5
:10051800BA004909BB004A09BC004B09BD004C0997
:10052800BE00BB0A0319BC0A0319BD0A0319BE0A97
:100538003B08B7073C08B83D3D08B93D3E08BA3D01
:100548003A08C4003908C3003808C2003708C10097
:10055800C83086008701D630840085010730200026
:10056800B70012001E00B70BB52A2000410808008A
:1005780003306C06031D862B21005A085306031905
:10058800D72A8B319F2381318B31CE23813186311C
:10059800A72681312100B401B5012000E501E6015B
:1005A800E701E801862B210056082000B700B801B2
:1005B800210058082000B900BA013908F3003A08A8
:1005C800F4001030F5000E30F6008A3154228131E3
:1005D80073082000BB007408BC00210057082000E5
:1005E800BD00BE013D08F3003E08F4003C30F500B4
:1005F8000030F6008A3154228131730820003B070D
:10060800BF0074083C3DC00037083F07C5003808E4
:10061800403DC600C701C61BC7034708C8002100E4
:100628004F082000B700B801210051082000B90088
:10063800BA013908F3003A08F4001030F5000E301A
:10064800F6008A315422813173082000BB007408F7
:10065800BC00210050082000BD00BE013D08F30089
:100668003E08F4003C30F5000030F6008A31542290
:100678008131730820003B07BF0074083C3DC0006F
:1006880037083F07C9003808403DCA00CB01CA1BDC
:10069800CB034B08CC004508B7004608B80047080C
:1006A800B9004808BA004909BB004A09BC004B090F
:1006B800BD004C09BE00BB0A0319BC0A0319BD0AD8
:1006C8000319BE0A3B08B7073C08B83D3D08B93DC9
:1006D8003E08BA3D3A08C4003908C3003808C200C9
:1006E8003708C100CF3086008701D63084008501E5
:1006F80007302000B70012001E00B70B7F2B200028
:1007080041080800003008002200E201E301E4018A
:10071800E001E1018931232183313D302000E000EF
:10072800E130DF007A30DE00DE0B982BDF0B982BF0
:10073800E00B982B003220008D1AA52B22000C15F7
:10074800A72B22000C118C11E301E401E201103007
:1007580062020318C42B0B308931B3218331220084
:1007680063087307E3006408743DE4000130200067
:10077800DE005E082200E20710306202031CAF2B85
:10078800630E0F39E300640EF039E304640E0F3989
:10079800E400033064022030031963020318D62BE7
:1007A8000C11D52B2200E201E301E40187318427F3
:1007B800833121008D158A310222833152308931EB
:1007C8003821833128308931382183310230893109
:1007D80038218331063089313821833111302000A6
:1007E800A0009030A1000430DE005E08A2000030B6
:1007F8008C31952483312000EC01EA012100B401F9
:10080800B5012000E501E601E701E8012100B20198
:10081800B3012200E301E40100302100AE002030E2
:10082800AF008C31612483318B170B170B30893162
:10083800B3218331220063087307E3006408743D21
:10084800E40001302000DE005E082200E2071030DC
:100858006206031D452CE201630E0F39E300640EA6
:10086800F039E304640E0F39E400033064022030E9
:10087800031963020318422C0C11412C2200E301D6
:10088800E4018C312E2483318531A22583318F31C7
:10089800392783311A2C2000AA017908AC0078087E
:1008A800AB000030F300F4000430F5000030F6002F
:1008B800DD308A311D22843120002B082C040319D5
:1008C800D92C01302000A9002908AA070A30A10064
:1008D8000030A2002C08A4002B08A3008C31CA24E5
:1008E800843120002208AC002108AB00602C643061
:1008F800A1000030A2007908A4007808A3008C3178
:10090800CA24843120002208850021088400003090
:1009180084079030853D0008A90029082100DD00E2
:100928000A302000A1000030A2007908F6007808FB
:10093800F5006430F3000030F4008B317223843109
:1009480074082000A4007308A3008C31CA248431E1
:100958002000220885002108840000308407903098
:10096800853D0008A90029082100DE000A30F300AF
:100978000030F4007908F6007808F5008B3172230E
:10098800843174088500730884000030840790302F
:10099800853DD22C0030840090308500000820006E
:1009A800A90029082100DF00E82C20002A08003AC5
:1009B8000319CE2C013A0319BA2C033A0319942CC3
:1009C800013A03197B2CE82C21003703031DF22C74
:1009D80020302000A90029082100DD0020006B0834
:1009E800003E840090300318013E85000008083856
:1009F800A90029082100E000DD302000A000003017
:100A0800A1000430A9002908A20000308C319524E7
:100A1800080021002B082000B60021002A08200029
:100A2800B500210029082000B40021002808200072
:100A3800B300D6308F319C2785310A30F30000305F
:100A4800F400210058082000B000B1013008F5007A
:100A58003108F6008E31E726853174088500730861
:100A68008400003084079030853D00082000B200E3
:100A78003208B300B3150A30F3000030F400210047
:100A880058082000B000B1013008F5003108F60020
:100A98008D31BC25853174088500730884000030C9
:100AA80084079030853D00082000B2003208B40069
:100AB8000A30F3000030F400210057082000B0008D
:100AC800B1013008F5003108F6008E31E72685318E
:100AD8007408850073088400003084079030853DD1
:100AE80000082000B2003208B5000A30F3000030D8
:100AF800F400210057082000B000B1013008F500CB
:100B08003108F6008D31BC258531740885007308DD
:100B18008400003084079030853D00082000B20032
:100B28003208B6003330A0000030A1000430B00015
:100B38003008A20000308C31952408002000DB0129
:100B4800E9018A31D42285312000D8005808DB0019
:100B58005B0803190800252E033069020318B62D17
:100B68008D1EB02D03306902031CC22D22000C110A
:100B78008C150430893138218531EF2D0030200063
:100B8800DC002030DD0023305D02E83003195C0210
:100B98000318EF2D5D08F4005C08F30089319A21F1
:100BA800853174082000DA007308D9005A088831A2
:100BB80090208531200059088831902085310130F6
:100BC8002000DC070030DD3D23305D02E8300319EA
:100BD8005C02031CCE2D20008D1A0800EF2D033077
:100BE80069020318F92D8C1FF32D03306902031CC9
:100BF800192E6A08031D122E8831782085318B3111
:100C0800CE2385318631A72685312100B401B5016F
:100C18002000E501E601E701E801212E88316E2078
:100C280085318B319F238531212E05302000D80056
:100C38005808EC008C312E24853120008C1B0800CC
:100C4800212E5B08013A0319B02D033A0319F32D3D
:100C58002E2E080008002000A100A201A20A893156
:100C680068218631D0308E314A2686312000A00096
:100C78002008A2002208031D080021088E314A26F8
:100C880086312000A0002008A2002208031D0800C9
:100C9800893168218631D1308E314A26863120004B
:100CA800A0002008A2002208031D080002307702D5
:100CB800031C852E8B311C2386312000A00076086A
:100CC800860087012008810022008D100D30200049
:100CD800A000A00B6D2E22000D140D302000A000E6
:100CE800A00B742E22000D100D302000A000A00BC8
:100CF8007B2E01302000A0002008F6070130F70203
:100D08005A2E8B311C2386312000A00076088600DD
:100D180087012008810022008D140D302000A000DA
:100D2800A00B942E22000D140D302000A000A00B63
:100D38009B2E22000D100D302000A000A00BA22E2B
:100D4800893181210800D6308F319C278631C830FF
:100D580086008701D6308400850107302000B50061
:100D680012001E00B50BB42ECF3086008701D63096
:100D78008400850107302000B50012001E00B50B65
:100D8800C12E21005C082000B500B6013508B3006B
:100D98003608B4008731E827863121005B08200037
:100DA800B500B6013508B3003608B4008731E82726
:100DB800863121005A082000B500B6013508B30075
:100DC8003608B4008731E82786312100580820000A
:100DD800B500B6013508B3003608B4008731E827F6
:100DE8008631210057082000B500B6013508B30048
:100DF8003608B4008731E8278631210056082000DC
:100E0800B500B6013508B3003608B4008731E827C5
:100E18008631210059082000B500B6013508B30015
:100E28003608B4008731E8270800E03020002005A4
:100E3800A6003F302105A70000308B1B0130A80019
:100E480027082106031D2A2F26082006031D08004F
:100E58008B132108F4002008F3008A3138228731E7
:100E680023001513151595162000A9012030290215
:100E780003187B2F2008230091002000210823005D
:100E88009200200029352207A3002308860001309C
:100E98008700010823009300200029352207A300BA
:100EA8002308860001308700403FA400413FA50089
:100EB8002508230094001F3020002906031D662FF3
:100EC80023009512553023009600AA3096009514F9
:100ED8000000000001302000A0070030A13D0130D3
:100EE800A3002308A90720302902031C3E2F230052
:100EF80015112000280C031C8B1303188B170800EE
:100F08001530F6007608FA000F30F6007608210052
:100F1800BB050730F6007608BB04BE017A08F60068
:100F28007608F40080308831BF20873121003B08E3
:100F3800F6007608F40081308831BF20873121001F
:100F48003E08F6007608F40082308831BF208731E9
:100F58007F30F6007608F40083308831BF2087316F
:100F6800C030F6007608F40084308831BF2087311D
:100F78007F30F6007608F40085308831BF2087314D
:100F8800FF30F6007608F40086308831BF208731BC
:100F98008030F6007608F40087308831BF2087312A
:100FA800F40188308831BF208731F40189308831D5
:100FB800BF208731F4018A308831BF208731F4019E
:100FC8008B308831BF20080021002F082000AB009B
:100FD80021002E082000AA002030F7007708AC0076
:100FE8003408AE003308AD008D317725013021007B
:080FF800AE070030AF3D080018
:1010D40082302200970008002000EA0122000C164A
:1010E40008007830210099009A0108002000EA01E4
:1010F400EA0A22000C120800240094013030950002
:1011040092010800FE0012001E00FE0B8528003428
:10111400640080010131890B8B280034F300200026
:10112400111E9128730823009A0008000130210041
:101134009D00E3309E009B019C010800F300240005
:10114400951373089100141CA52811080800013494
:101154005034233402340834073416340034003451
:101164000034483023009F0080309D0026309E00CC
:10117400A0309B0001309C000800F50022008C1276
:1011840075088831A020883174088831A020220095
:101194008C16080000308831EC208831F70077087D
:1011A400FA00FA147A08F7007708F40080308831DE
:1011B400BF20080021001508C03917389500643095
:1011C400200095006430F30073082100EB000B113C
:1011D4008B160800F50022008C1275088831A020B7
:1011E4008831FF308831A020F4007408F600220012
:1011F4008C1676080800F600F501761C052973089C
:10120400F4007408F5070310F30D0310F60C7608C8
:10121400031DFF2875080800F7000F30770520002C
:10122400A0000A30A1002108F3007708A2000430CE
:10123400A236890B1A2922088831FD2020002007B4
:1012440008008831732089318A31B222893188318A
:101254007E2089318831B3208931883198208931C1
:101264008831DC20893188316A2008002000A100FF
:1012740022000E1004302000A0002008F30080306B
:101284008A317222893108302000A0002008F3003E
:1012940021088A31722222000E1408002000A700BF
:1012A40022008C12200027088831A02089312000D8
:1012B4002408A5002508F4002308A6002608F50044
:1012C40000308E31962622008C16080022008D14E0
:1012D4000D30F300F30B6C2922000D140D30F300D4
:1012E400F30B722922008D100D30F300F30B7829D3
:1012F40022000D100D30F300F30B7E2908002200AC
:101304000D100D30F300F30B852922008D100D30E4
:10131400F300F30B8B2922000D140D30F300F30BB3
:10132400912922008D140D30F300F30B9729080046
:1013340000308B1B0130F5008B13730823009100E0
:10134400740892001513151400000000750C031C9A
:101354008B1303188B1723001408F4001308F300ED
:101364000800F6007608F500F50DF50D21001D08BE
:101374007506833975069D001D140630F500F50BBE
:10138400C129000021009D149D18C6291C08F400E1
:101394001B08F30008002000A00000308831EC2076
:1013A4008931F7007708FA003F30F7007708FA052B
:1013B40020002008F7007708FA047A08F700770875
:1013C400F40080308831BF2008000B1121006B0825
:1013D400200095000130F10071082100B6070130AA
:1013E400AC070030AD3D00302D02323003192C0221
:1013F400031C08008A31F7222100AC01AD0108006A
:10140400E1308600003087002730840000308500FA
:101414000A302000A50016001A00A50B0D2A27305B
:10142400A5002508F6000730A6002608F7000030BE
:101434008C31FF2408002000A0002008F700770862
:10144400A1000130F5020030F63B750A0319760A53
:10145400031908007308F70021088600870177083C
:1014640081000130F7007708A107232A00308B1B85
:101474000130F5008B137308230091007408920067
:1014840015131516151555309600AA3096009514A7
:101494000000000023001511750C031C8B130318A6
:1014A4008B1708002000A001A101731C5E2A750897
:1014B4002000A0077608A13D0130F535F60D890B13
:1014C4005F2A0130F436F30C890B642A7308740420
:1014D400031D572A20002108F4002008F300080007
:1014E400F600F7017308770203180800F61B7D2A3B
:1014F40022000E117F2A22000E158E100630F500F0
:101504003030F400F40B842AF50B842A0000220006
:101514008E140310F60D0130F4007408F707742AD2
:10152400F600F701730877020318080076189D2A5D
:1015340022000E119F2A22000E158E100630F5008F
:101544003030F400F40BA42AF50BA42A0000220086
:101554008E140310F60C0130F4007408F707942A73
:101564007B3022008C00803021008C0023008C0111
:1015740022008D01FC3021008D00103023008D00ED
:101584002C3024008D00073022008E00D030210042
:101594008E0023008E012400900121009513220067
:1015A4009D010800FF30F3007308F50020008C1F34
:1015B400DD2A8D1AF52A3430F400F130F300F30BF0
:1015C400E12AF40BE12A003220008C1FEB2A8D1A49
:1015D400F52A8D1AEF2AF501F50A8C1BF52A02303B
:1015E400F3007308F500750808000130F000700876
:1015F4002000EC0704306C060319042B0D306C0238
:10160400031C052BEC010130F0007008E9070130E0
:10161400F00070082100B407833034020318B401C9
:101624000130F0007008B50783303502031C080050
:10163400B5010800F40122008D14F501083075028B
:101644000318442B0310F40D22000D140D30F30085
:10165400F30B2A2B21008D1420008D1C342B210028
:101664008D10741421008D1022000D100D30F30024
:10167400F30B3A2B0130F3007308F50708307502B9
:10168400031C252B74080800210027082000AA0049
:10169400210026082000A900210025082000A80018
:1016A400210024082000A700103084009030850019
:1016B4000008A6002608A8000C308400903085009D
:1016C4000008A6002608A9002730A0000030A100C9
:1016D4000430A6002608A20000308C3195240800AE
:1016E4007308740403199A2B2000A001A00AF41BA8
:1016F400852B0130F335F40D890B7C2B0130F70079
:101704007708A007792B74087602031D8B2B7308C6
:101714007502031C912B7308F5027408F63B013023
:10172400F436F30C890B922B0130A002031D852B98
:101734007608F4007508F300080021002F08200043
:10174400AB0021002E082000AA002030F700770803
:10175400AC005530AD005530AE008D3177258B315E
:1017640001302100AE070030AF3D2F082000AB0050
:1017740021002E082000AA002030F7007708AC00D2
:101784005530AD005530AE008D3177250130210044
:10179400AE070030AF3D080021002F082000AB0049
:1017A40021002E082000AA002030F7007708AC00A2
:1017B400AA30AD00AA30AE008D3177258B310130CF
:1017C4002100AE070030AF3D2F082000AB00210000
:1017D4002E082000AA002030F7007708AC00AA30B9
:1017E400AD00AA30AE008D31772501302100AE075F
:1017F4000030AF3D08002000AB002100230820008A
:10180400AA00210022082000A900210021082000AC
:10181400A800210020082000A70000308400903098
:1018240085000008A6002608A8002B08003E8400B6
:1018340090300318013E85000008A6002608A90080
:101844002730A0000030A1000430A6002608A20022
:1018540000308C31952408004E2C01308B31FD234F
:101864008C3122008C140C140C108E3102260800CA
:101874008D313A25080002308B31FD238C31220052
:101884000C148C148C108E31022608008D313A25EC
:10189400080085310D25080020006C08003A031962
:1018A4002F2C013A03193A2C033A03193D2C013A1F
:1018B4000319482C063A03194B2C602C080020000D
:1018C400A201A301A001A1010030A2002030A300C5
:1018D40040302302003003192202031808002308B1
:1018E400F4002208F30089319A218C317408200015
:1018F400A1007308A000200A3F3003192106031D2C
:101904008F2C0130A2070030A33D23082100AF0033
:10191400200022082100AE00080001302000A207A8
:101924000030A33D6A2C2000A40022000E100330D6
:101934002000A3002308F300A0308A3172228C31E6
:1019440006302000A3002308F30024088A31722201
:101954008C312000A501220825020318C72C083069
:10196400A3002308F3002008840021088500000850
:101974008A3192228C3101302000A3002308A5076C
:101984000130A0070030A13DAD2C22000E14080048
:101994002000A701A801210822040319FA2CA6019A
:1019A400A60AA21BDF2C0130A135A20D890BD62C6F
:1019B4000130A5002508A607D32C0130A735A80DB2
:1019C400890BE02C22082402031DEA2C210823029F
:1019D400031CF12C2108A3022208A43B2714013084
:1019E400A236A10C890BF22C0130A602031DDF2CB8
:1019F4002808A2002708A10008002000A200A401D2
:101A0400A40A893168218C31D0308E314A268C3138
:101A14002000A0002008A4002408031D08002208B8
:101A24008E314A268C312000A0002008A40024080E
:101A3400031D0800A301770823020318372D230888
:101A44007607A00020088600870101088E314A2607
:101A54008C312000A1002108A4002408031D0800E3
:101A64000130A0002008A3071D2D89318121080021
:101A740021003F08031D532D80313F208D318431D7
:101A84004F248D3120006C03031D4B2D2100B20126
:101A94000800033020006C06031D08002100B30178
:101AA400080020006C03031D5B2D2100B201B20A63
:101AB400632D033020006C06031D632D2100B30148
:101AC400B30A8B3146238D31FF302000D7005708ED
:101AD400F40082308831BF208D318831CC208D31A3
:101AE400F40182308831BF200800E03020002A054C
:101AF400B0003F302B05B1002A081F39F6007608E4
:101B0400AF00B201203032020318A62D320830078C
:101B1400F30031080318310AF40089319A218D3118
:101B2400200032352C07F600760886000130870045
:101B34007308C03F7408C13F0130F6007608B2074D
:101B440020303202031C882D2F352C07F60076082E
:101B54008600013087002D08C03F2E08C13F3108A0
:101B6400A1003008A0002C08F6007608A2008731F6
:101B7400192708002000A101F61FC72DF509F60951
:101B8400F50A0319F60AA101A10AF41FCE2DF309DF
:101B9400F409F30A0319F40A730874040319F52DFC
:101BA400A001A00AF41BE02D0130F335F40D890BDC
:101BB400D72D0130F7007708A007D42D74087602DA
:101BC400031DE62D73087502031CEC2D7308F50242
:101BD4007408F63B0130F436F30C890BED2D01301B
:101BE400A002031DE02D21080319FD2DF509F609B6
:101BF400F50A0319F60A7608F4007508F3000800DC
:101C040040308931CD218E312100B60120008D1D57
:101C1400102E1F3021003602031C082E1F30210015
:101C24003602031C182EBF01BF0A0800C030200072
:101C3400A8002808A3000630A9002908A4000A3037
:101C440089315021210040082000A80028082100E3
:101C5400B90041082000A80028082100BA00420861
:101C64002000A8002808ED00210043082000A80057
:101C740028082100BD0044082000A80028082100ED
:101C8400BC0045082000A80028082100BF00080067
:101C9400F400F501083075020318712EF41F552E57
:101CA40022008D14572E22008D100D30F300F30BFB
:101CB400592E22000D140D30F300F30B5F2E031088
:101CC400F40D22000D100D30F300F30B672E0130DC
:101CD400F3007308F50708307502031C502E220028
:101CE4008D140D30F300F30B752E22000D140D30FE
:101CF400F300F30B7B2E21008D1420008D1C862E07
:101D040021008D100130080021008D1022000D10DB
:101D14000D30F300F30B8C2E22008D100D30F300E8
:101D2400F30B922E00300800F600F7017408031933
:101D340008007608031DC82ECD2E7508031DAE2E8F
:101D4400770876072000A000200886008701010894
:101D54008831A0208E31C32E770876072000A0009A
:101D640020088600870101088831A0208E312000D8
:101D7400A10077087507A2002208860087012108C0
:101D8400810001302000A0002008F70774087702C2
:101D9400031808009F2E75080319080074087702B9
:101DA4000318080000308831A0208E312000A000E4
:101DB40077087507A10021088600870120088100A3
:101DC4000130A0002008F707D02E2000A101F41F45
:101DD400F22EF309F409F30A0319F40AA101A10A82
:101DE400F61FFD2EF509F609F50A0319F60A013066
:101DF400F7007708A106A201A3017308740403196C
:101E04002C2FA001A00AF41B112F0130F335F40D7F
:101E1400890B082F0130F7007708A007052F013040
:101E2400A235A30D890B122F74087602031D1C2FF3
:101E340073087502031C232F7308F5027408F63B1C
:101E440022140130F436F30C890B242F0130A00244
:101E5400031D112F21080319342FA209A309A20A73
:101E64000319A30A2308F4002208F3000800200041
:101E7400CF01D0016C03031D6B2F6A03031D6B2F6D
:101E8400793021003402031C08008131E7218F31AD
:101E94002000CD00CE014D08CF004E08D0005014D4
:101EA40021003203031D582F200050152000501626
:101EB4005008B4004F08B3008731E8278F31200061
:101EC4006608B4006508B3008731E8272100B4012F
:101ED4000800033020006C06031D08006A03031D7C
:101EE4000800793021003502031C08008131E72104
:101EF4008F312000CD00CE014D08CF004E08D00018
:101F0400D01421003303031D892F2000D015200095
:101F140050165008B4004F08B3008731E8278F31BA
:101F240020006808B4006708B3008731E82721005F
:101F3400B50108002000AF002530A3002308F600F7
:101F44000730A4002408F700003086312F268F3193
:101F5400200025087F3989310E218F312000A3000C
:101F64002F08860087012308810026087F398931DC
:101F74000E218F312000A3002F0A86008701230839
:101F8400810027083F3989310E218F312000A300B9
:101F94002F08023E86008701230881002808893122
:101FA4000E218F312000A3002F08033E86008701F5
:101FB40023088100290889310E218F312000A300D4
:101FC4002F08043E86008701230881002A088931EE
:101FD4000E218F312000A3002F08053E86008701C3
:101FE400230881002B0889310E212000A3002F082B
:101FF400063E86008701230881000800D734503448
:10200400B534F1347234E334E7345134F734F3340F
:102014007734E6348734F434A734273457342034FF
:06202400203420342034BA
:020000040001F9
:04000E00E4FFFFDF2D
:00000001FF
