:040000008031132810
:100008007E14803120007F08F1008B1A0B1D0E280A
:100018008531442571082000FF007E1009008031D9
:100028001528FA01FB0120308400003085003230A9
:100038008531D8258031A0308400003085004030DB
:100048008531D8257E1020008231292A00302000F1
:10005800A7000030A6000030A5000030A4003F3003
:100068007B05F2007208F4004308F300740DF40CE9
:10007800F30C7308A4007408A500890D893B89094D
:10008800A600A700FB1BA516FB1FA228BC01BC0AE3
:100098000030F2004030F3000030F4000030F5008A
:1000A8002409F6002509F7002609F8002709F900B0
:1000B800F60A0319F70A0319F80A0319F90A760860
:1000C800F2077708F33D7808F43D7908F53D75089F
:1000D800A7007408A6007308A5007208A4002408E5
:1000E800F2002508F3002608F4002708F50003307D
:1000F800F536F40CF30CF20C890B7C287308B90064
:100108007208B80024080739F2007208BB000430EE
:100118003B02031C93280130F2007208BB0703302E
:100128003B0603199B2808303B06031D0800381CB2
:1001380008000130F2007208BB070800BC0124085F
:10014800F2002508F3002608F4002708F50003301C
:10015800F536F40CF30CF20C890BAC287308B900D3
:100168007208B80024080739F2007208BB0004308E
:100178003B02031CC3280130F2007208BB0704309D
:100188003B060319CB2808303B06031D0800381C22
:1001980008000130F2007208BB0708002000DA01ED
:1001A8003908DC003808DB000030F200F3000430C6
:1001B800F4000030F5004E308431D0248031200026
:1001C8005B085C040319532901302000D900590841
:1001D800DA070A30D2000030D3005C08D5005B088B
:1001E800D4008231EA22803120005308DC00520812
:1001F800DB00E3286430D2000030D3003908D50092
:100208003808D4008231EA22803120005308850062
:10021800520884001A3084078530853D0008D900CB
:100228005908CE000A30D2000030D3003908F50052
:100238003808F4006430F2000030F300833187237B
:10024800803173082000D5007208D4008231EA2278
:100258008031200053088500520884001A30840732
:100268008530853D0008D9005908CF000A30F200D2
:100278000030F3003908F5003808F400833187238B
:10028800803173088500720884001A30840785302D
:10029800853D00082000D9005908D0005E295A0879
:1002A800013A03193A29033A03191629013A03199D
:1002B800FE285E293C030319CE153B081A3E84002C
:1002C80085300318013E850000080838D900590810
:1002D800D1004E30F7000030F8000430D90059083A
:1002E800F900003083311F2308001530F500750828
:1002F800FA000F30F50075082000C1050730F50039
:100308007508C104C4017A08F5007508F300803047
:100318008531AE25813120004108F5007508F300CC
:1003280081308531AE25813120004408F5007508FB
:10033800F30082308531AE2581317F30F5007508B4
:10034800F30083308531AE258131C030F500750862
:10035800F30084308531AE2581317F30F500750892
:10036800F30085308531AE258131FF30F500750801
:10037800F30086308531AE2581318030F50075086F
:10038800F30087308531AE258131F301883085311E
:10039800AE258131F30189308531AE258131F301F4
:1003A8008A308531AE258131F3018B308531AE2518
:1003B8000800F800F9017308031908007808031DFC
:1003C8000B2A102A7408031DF42979087807F50008
:1003D80075088600870101088531C7258131072AFC
:1003E80079087807F50075088600870101088531C6
:1003F800C7258131F60079087407F7007708860069
:100408008701760881000130F5007508F90773083F
:10041800790203180800E62974080319080073080C
:1004280079020318080000308531C7258131F500AD
:1004380079087407F6007608860087017508810038
:100448000130F5007508F907132A2000E301E401DB
:1004580085316C2582313D302000E200E130E10039
:100468007A30E000E00B362AE10B362AE20B362A16
:10047800003220008D1A432A22000C15452A22003A
:100488000C118C1181317921823121008D15523066
:1004980085312F258231283085312F258231023050
:1004A80085312F258231063085312F2582312B3039
:1004B800F7008530F80004302000E0006008F900FB
:1004C800003083311F2382312000BD018B170B17A9
:1004D8008331542382318231732282316C2A200085
:1004E800DF01BA0184312D2482312000DE005E084C
:1004F800DF005F0803190800AB2A03303A0203182B
:10050800872A8D1E812A03303A02031C8D2A220075
:100518000C1120008D1A08008D2A03303A020318A6
:10052800972A8C1F912A03303A02031C9F2A103005
:1005380022008C06A72A05302000DE005E08BD00D8
:1005480083315423823120008C1B0800A72A5F08BE
:10055800013A0319812A033A0319912AB42A080097
:10056800080020002F08D9002E08D8002D08D70031
:100578002C08D60029308400853085000008D50075
:100588005508D60029308400853085000008D5003C
:100598005508D70029308400853085000008D5002B
:1005A8005508D80029308400853085000008D5001A
:1005B8005508D9005630F7000030F8000430D5004F
:1005C8005508F900003083311F2308002000D701A7
:1005D800D8015208530403191A2BD601D60AD31B83
:1005E800FF2A0130D235D30D890BF62A0130F800E5
:1005F8007808D607F32A0130D735D80D890B002B98
:1006080053085502031D0A2B52085402031C112BD0
:100618005208D4025308D53B57140130D336D20CB4
:10062800890B122B0130D602031DFF2A5808D3006C
:100638005708D20008002000D30022000E10033013
:100648002000D2005208F200A03084319224833175
:1006580006302000D2005208F20053088431922458
:1006680083312000D401790854020318512B083033
:10067800D2005208F2007708840078088500000844
:1006880084317224833101302000D2005208D4070B
:100698000130F7070030F83D372B22000E14080010
:1006A800742B01308331DF23833122008C140C1426
:1006B8000C108331B32308008431B22408000230BF
:1006C8008331DF23833122000C148C148C10833186
:1006D800B32308008431B22408008231B52208000F
:1006E80020003D08003A0319552B013A0319602BE5
:1006F800033A0319632B013A03196E2B063A0319BF
:10070800712B862B0800720873040319AE2BF701AE
:10071800F70AF31B992B0130F235F30D890B902B57
:100728000130F6007608F7078D2B73087502031D54
:100738009F2B72087402031CA52B7208F40273081D
:10074800F53B0130F336F20C890BA62B0130F7028A
:10075800031D992B7508F3007408F2000800403057
:100768008431EA24833120008D19B72B4630D70015
:100778005708D2000630D8005808D3000A3085310F
:10078800022520004608D7005708BF004708D700B1
:100798005708C0004808D7005708FB004908D70089
:1007A8005708C3004A08D7005708C2004B08D700AB
:1007B8005708C50008002000DA002308D9002208DD
:1007C800D8002108D7002008D6001A3084008530C8
:1007D80085000008D5005508D7005A081A3E84003D
:1007E80085300318013E85000008D5005508D8005B
:1007F8005630F7000030F8000430D5005508F900ED
:10080800003083311F23080020002B08D9002A0854
:10081800D8002908D7002808D6002A308400853057
:1008280085000008D5005508D7002630840085309B
:1008380085000008D5005508D8005630F70000306C
:10084800F8000430D5005508F900003083311F2323
:100858000800FF30F2007208F40020008C1F362CCC
:100868008D1A4E2C3430F300F130F200F20B3A2C92
:10087800F30B3A2C003220008C1F442C8D1A4E2C7E
:100888008D1A482CF401F40A8C1B4E2C0230F2000D
:100898007208F400740808007B3022008C00803055
:1008A80021008C0023008C0122008D01FC302100E6
:1008B8008D00103023008D002C3024008D0007306F
:1008C80022008E00D03021008E0023008E012400EB
:1008D80090012100951322009D010800F500F60102
:1008E800720876020318080075187D2C22000E1174
:1008F8007F2C22000E158E100630F4003030F300E5
:10090800F30B842CF40B842C000022008E140310AB
:10091800F50C0130F3007308F607742CF500F601A6
:100928007208760203180800F51B9D2C22000E1190
:100938009F2C22000E158E100630F4003030F30084
:10094800F30BA42CF40BA42C000022008E1403102B
:10095800F50D0130F3007308F607942C20004508C4
:10096800031DBC2C80312A2084318031D22008001C
:10097800843108248431FF302000DD005D08F30055
:1009880082308531AE25843185318F258431F3015C
:1009980082308531AE250800F7007708F600760822
:1009A800F8000130F4020030F53B740A0319750AA7
:1009B800031908007208F60078088600870176088F
:1009C80081000130F6007608F807D52CF7000030D2
:1009D80085317E258431F6007608FA003F30F6002E
:1009E8007608FA057708F6007608FA047A08F60019
:1009F8007608F30080308531AE2508002000D60047
:100A080022008C12200056088531C7258531200028
:100A18005308D4005408F3005208D5005508F400D0
:100A280000308131DD2122008C160800D734503483
:100A3800B534F1347234E334E7345134F734F334F1
:100A48007734E6348734F434A734273457342034E1
:100A5800203420342034F80022000E100430F7002F
:100A68007708F20080308431922485310830F7000D
:100A78007708F20078088431922422000E140800C6
:100A88000B112000650895000130B6070030B73D0E
:100A980000303702643003193602031C0800853120
:100AA80059252000B601B70108000130F000700890
:100AB8002000BD0704303D060319662D09303D02AC
:100AC800031C672DBD010130F0007008BA0708004B
:100AD8008531E42585318431502485318531DE2501
:100AE80085318531BB2585318531D02585318531E5
:100AF8009F250800F40022008C1274088531C72550
:100B08008531FF308531C725F3007308F5002200D1
:100B18008C1675080800003085317E258531F60071
:100B28007608FA00FA147A08F6007608F30080309E
:100B38008531AE25080021001508C0391738950001
:100B48006430200095006430F2007208E5000B1153
:100B58008B160800F40022008C1274088531C72512
:100B6800853173088531C72522008C160800483066
:100B780023009F0080309D0026309E00A0309B00FF
:100B880001309C000800F2002400951372089100BF
:100B9800141CCC2D11080800013021009D00603084
:100BA8009E009B019C010800640080010131890BB3
:100BB800D92D0034240094013030950092010800AA
:0A0BC8007830210099009A0108001E
:020000040001F9
:04000E00E4FFFFDF2D
:00000001FF
