:040000008031132810
:100008007E14803120007F08F2008B1A0B1D0E2809
:100018008F31662772082000FF007E1009008031AA
:100028001528F801F901FA01203084000030850014
:1000380032308E317E268031AA308400003085002F
:1000480007308E317E2680312030840001308500D3
:1000580040308E317E268031953084008E30850088
:10006800A0308600003087000A308E3178267E1056
:10007800200080313F282100B101B201B3018F3146
:10008800212780313D302000ED00E130EC007A304E
:10009800EB00EB0B4D28EC0B4D28ED0B4D280032F7
:1000A80020008D1A5A2822000C155C2822000C11F9
:1000B8008C112100B201B301B101103031020318D3
:1000C8007A280B308F31B12780312100320873072D
:1000D800B2003308743DB30001302000EB006B0818
:1000E8002100B10710303102031C6528320E0F3988
:1000F800B200330EF039B204330E0F39B3000330B7
:10010800330220300319320203188D2822000C1103
:100118008C282100B101B201B3018331442380311D
:1001280021008D158F31E527803152308F313627E8
:10013800803128308F313627803102308F31362791
:10014800803106308F313627803111302000D200BF
:100158009030D3000430EB006B08D40000308631B7
:10016800302680312000BD012100B201B3018B1778
:100178000B170B308F31B1278031210032087307FC
:10018800B2003308743DB30001302000EB006B0867
:100198002100B10710303106031DE928B101320EE4
:1001A8000F39B200330EF039B204330E0F39B300F1
:1001B800033033022030031932020318E6282200E4
:1001C8000C11E5282100B201B30186316526803182
:1001D8008431FB248031BD2800302000A700003086
:1001E800A6000030A5000030A4003F307A05D200F8
:1001F8005208D4004308D300540DD40CD30C530830
:10020800A4005408A500890D893B8909A600A70008
:10021800FA1BA516FA1F6829BC01BC0A0030D200D7
:100228004030D3000030D4000030D5002409D60077
:100238002509D7002609D8002709D900D60A0319A5
:10024800D70A0319D80A0319D90A5608D207570832
:10025800D33D5808D43D5908D53D5508A700540842
:10026800A6005308A5005208A4002408D2002508B7
:10027800D3002608D4002708D5000330D536D40C7F
:10028800D30CD20C890B42295308B9005208B80084
:1002980024080739D2005208BB0004303B02031C73
:1002A80059290130D2005208BB0703303B06031915
:1002B800612908303B06031D0800381C080001307E
:1002C800D2005208BB070800BC012408D200250848
:1002D800D3002608D4002708D5000330D536D40C1F
:1002E800D30CD20C890B72295308B9005208B800F4
:1002F80024080739D2005208BB0004303B02031C13
:1003080089290130D2005208BB0704303B06031983
:10031800912908303B06031D0800381C08000130ED
:10032800D2005208BB0708002000DC013908DE00B3
:100338003808DD000030F300F4000430F500003028
:10034800F6004E308731E027813120005D085E04D9
:100358000319192A01302000DB005B08DC070A308A
:10036800D3000030D4005E08D6005D08D500853182
:10037800FB25813120005408DE005308DD00A9293F
:100388006430D3000030D4003908D6003808D500CE
:100398008531FB25813120005408850053088400ED
:1003A800003084079030853D0008DB005B08CE00F4
:1003B8000A30D3000030D4003908F6003808F500B8
:1003C8006430F3000030F4008631982681317408D7
:1003D8002000D6007308D5008531FB258131200027
:1003E8005408850053088400003084079030853D08
:1003F8000008DB005B08CF000A30F3000030F4008F
:100408003908F6003808F5008631982681317408D5
:10041800850073088400003084079030853D00080B
:100428002000DB005B08D000242A5C08013A03198D
:10043800002A033A0319DC29013A0319C429242A9A
:100448003C030319CE153B08003E84009030031886
:10045800013E850000080838DB005B08D1004E30FB
:10046800D2000030D3000430DB005B08D400003039
:1004780086313026080020002F08E8002E08E70003
:100488002D08E6002C08E500AA308331A823823124
:100498000A30F3000030F40021002C082000E200AC
:1004A800E3016208F5006308F60084310C24823108
:1004B8007408850073088400003084079030853DF7
:1004C80000082000E4006408E5000A30F30000306A
:1004D800F40021002C082000E200E3016208F50086
:1004E8006308F60085314225823174088500730857
:1004F8008400003084079030853D00082000E40027
:100508006408E6000A30F3000030F40021002B08EC
:100518002000E200E3016208F5006308F600843178
:100528000C24823174088500730884000030840725
:100538009030853D00082000E4006408E7000A3098
:10054800F3000030F40021002B082000E200E30152
:100558006208F5006308F600853142258231740887
:10056800850073088400003084079030853D0008BA
:100578002000E4006408E8006530D2000030D300B1
:100588000430E2006208D4000030863130260800CA
:100598002000D300D401D40A8F317F278231D03094
:1005A8008431AF2482312000D2005208D40054088C
:1005B800031D080053088431AF2482312000D20083
:1005C8005208D4005408031D08008F317F27823158
:1005D800D1308431AF2482312000D2005208D400B7
:1005E8005408031D080002307702031C222B8631B1
:1005F800C52682312000D20076088600870152087D
:10060800810022008D100D302000D200D20B0A2B61
:1006180022000D140D302000D200D20B112B220025
:100628000D100D302000D200D20B182B0130200005
:10063800D2005208F6070130F702F72A8631C5269C
:1006480082312000D2007608860087015208810096
:1006580022008D140D302000D200D20B312B220045
:100668000D140D302000D200D20B382B22000D10B3
:100678000D302000D200D20B3F2B8F319827080075
:100688001530F6007608F9000F30F60076082000DD
:10069800C1050730F6007608C104C4017908F600E0
:1006A8007608F40080308E31AB2683312000410873
:1006B800F6007608F40081308E31AB2683312000B5
:1006C8004408F6007608F40082308E31AB26833178
:1006D8007F30F6007608F40083308E31AB26833104
:1006E800C030F6007608F40084308E31AB268331B2
:1006F8007F30F6007608F40085308E31AB268331E2
:10070800FF30F6007608F40086308E31AB26833150
:100718008030F6007608F40087308E31AB268331BE
:10072800F40188308E31AB268331F40189308E3163
:10073800AB268331F4018A308E31AB268331F40144
:100748008B308E31AB2608002000E1005730D500F1
:100758005508F6000730D6005608F70000308231F9
:10076800CC228331200057087F398F310C27833101
:100778002000D500610886008701550881005808C7
:100788007F398F310C2783312000D500610A86001C
:1007980087015508810059083F398F310C2783316B
:1007A8002000D5006108023E8600870155088100B7
:1007B8005A088F310C2783312000D5006108033E89
:1007C80086008701550881005B088F310C2783312B
:1007D8002000D5006108043E860087015508810085
:1007E8005C088F310C2783312000D5006108053E55
:1007F80086008701550881005D088F310C2720008D
:10080800D5006108063E860087015508810008006A
:100818002000D301F41F172CF309F409F30A031974
:10082800F40AD301D30AF61F222CF509F609F50AB2
:100838000319F60A0130F7007708D306D401D50169
:10084800730874040319512CD201D20AF41B362CF4
:100858000130F335F40D890B2D2C0130F7007708A2
:10086800D2072A2C0130D435D50D890B372C7408C2
:100878007602031D412C73087502031C482C73086B
:10088800F5027408F63B54140130F436F30C890B66
:10089800492C0130D202031D362C53080319592C58
:1008A800D409D509D40A0319D50A5508F4005408FF
:1008B800F3000800F600F701740803190800760829
:1008C800031D902C952C7508031D762C7708760748
:1008D8002000D20052088600870101088E318C263C
:1008E80084318B2C770876072000D20052088600C6
:1008F800870101088E318C2684312000D3007708C7
:100908007507D40054088600870153088100013018
:100918002000D2005208F70774087702031808006D
:10092800672C750803190800740877020318080073
:1009380000308E318C2684312000D200770875076C
:10094800D300530886008701520881000130D20085
:100958005208F707982CF400F501083075020318BF
:10096800D62CF41FBA2C22008D14BC2C22008D101A
:100978000D30F300F30BBE2C22000D140D30F300E4
:10098800F30BC42C0310F40D22000D100D30F300EE
:10099800F30BCC2C0130F3007308F507083075020F
:1009A800031CB52C22008D140D30F300F30BDA2C48
:1009B80022000D140D30F300F30BE02C21008D14F0
:1009C80020008D1CEB2C21008D1001300800210027
:1009D8008D1022000D100D30F300F30BF12C2200C6
:1009E8008D100D30F300F30BF72C003008002000B9
:1009F800EA01BA0187313D2784312000E9006908FE
:100A0800EA006A0803190800382D03303A0203186F
:100A18000F2D8D1E092D03303A02031C1A2D2200BA
:100A28000C118C1504308F313627843120008D1A33
:100A380008001A2D03303A020318242D8C1F1E2D8E
:100A480003303A02031C2C2D103022008C06342D62
:100A580005302000E9006908BD008631652684312B
:100A680020008C1B0800342D6A08013A0319092D4F
:100A7800033A03191E2D412D080008002000D30158
:100A8800F61F4D2DF509F609F50A0319F60AD301E3
:100A9800D30AF41F542DF309F409F30A0319F40ACD
:100AA8007308740403197B2DD201D20AF41B662D36
:100AB8000130F335F40D890B5D2D0130F70077080F
:100AC800D2075A2D74087602031D6C2D730875021F
:100AD800031C722D7308F5027408F63B0130F436D6
:100AE800F30C890B732D0130D202031D662D5308B8
:100AF8000319832DF509F609F50A0319F60A76088C
:100B0800F4007508F30008002000D400D601D60AC6
:100B18008F317F278531D0308431AF248531200053
:100B2800D2005208D6005608031D08005408843124
:100B3800AF2485312000D2005208D6005608031D84
:100B48000800D501770855020318C02D5508760707
:100B5800D20052088600870101088431AF2485310C
:100B68002000D3005308D6005608031D08000130A2
:100B7800D2005208D507A62D8F319827080040309B
:100B88008F31CB278531F80120008D1DCF2D033003
:100B98007802031CC82D03307802031CD62DC5012A
:100BA800C50A08004630DA005A08D5000630DB00CE
:100BB8005B08D6000A308F314E2720004608DA003D
:100BC8005A08BF004708DA005A08C0004808DA0087
:100BD8005A08FA004908DA005A08C3004A08DA0035
:100BE8005A08C2004B08DA005A08C500080020005D
:100BF800D901DA015308540403192B2ED801D80A55
:100C0800D41B102E0130D335D40D890B072E01309B
:100C1800D7005708D807042E0130D935DA0D890BCB
:100C2800112E54085602031D1B2E53085502031C8F
:100C3800222E5308D5025408D63B59140130D43615
:100C4800D30C890B232E0130D802031D102E5A080D
:100C5800D4005908D30008002000D60022000E1046
:100C680003302000D5005508F300A0308731A227B3
:100C7800863106302000D5005508F3005608873124
:100C8800A22786312000D701540857020318622E84
:100C98000830D5005508F300520884005308850031
:100CA800000887318227863101302000D500550899
:100CB800D7070130D2070030D33D482E22000E144A
:100CC8000800852E01308631EF26863122008C14EB
:100CD8000C140C108531C32508008731C227080081
:100CE80002308631EF26863122000C148C148C10C9
:100CF8008531C32508008731C227080082313F2289
:100D0800080020003D08003A0319662E013A03192D
:100D1800712E033A0319742E013A03197F2E063AED
:100D28000319822E972E0800730874040319C02E25
:100D38002000D201D20AF41BAB2E0130F335F40D9A
:100D4800890BA22E0130F7007708D2079F2E74086E
:100D58007602031DB12E73087502031CB72E7308A3
:100D6800F5027408F63B0130F436F30C890BB82E03
:100D78000130D202031DAB2E7608F4007508F3008B
:100D88000800F40122008D14F501083075020318DB
:100D9800ED2E0310F40D22000D140D30F300F30BAB
:100DA800D32E21008D1420008D1CDD2E21008D10E6
:100DB800741421008D1022000D100D30F300F30B78
:100DC800E32E0130F3007308F50708307502031CA1
:100DD800CE2E740808002000DD002308DC0022085D
:100DE800DB002108DA002008D900003084009030A8
:100DF80085000008D8005808DA005D08003E840025
:100E080090300318013E85000008D8005808DB0020
:100E18005930D2000030D3000430D8005808D4002C
:100E2800003086313026080020002B08DC002A0814
:100E3800DB002908DA002808D90010308400903037
:100E480085000008D8005808DA000C30840090307B
:100E580085000008D8005808DB005930D20000305F
:100E6800D3000430D8005808D4000030863130262A
:100E78000800FF30F3007308F50020008C1F462F90
:100E88008D1A5E2F3430F400F130F300F30B4A2F43
:100E9800F40B4A2F003220008C1F542F8D1A5E2F1E
:100EA8008D1A582FF501F50A8C1B5E2F0230F300BE
:100EB8007308F500750808007B3022008C0080302C
:100EC80021008C0023008C0122008D01FC302100C0
:100ED8008D00103023008D002C3024008D00073049
:100EE80022008E00D03021008E0023008E012400C5
:100EF80090012100951322009D010800F600F701DA
:100F0800730877020318080076188D2F22000E1137
:100F18008F2F22000E158E100630F5003030F400A9
:100F2800F40B942FF50B942F000022008E1403105D
:100F3800F60C0130F4007408F707842FF600F70167
:100F48007308770203180800F61BAD2F22000E1154
:100F5800AF2F22000E158E100630F5003030F40049
:100F6800F40BB42FF50BB42F000022008E140310DD
:100F7800F60D0130F4007408F707A42F2000450887
:100F8800031DCC2F8031F020873181319821080052
:100F9800873118278731FF302000DF005F08F40011
:100FA80082308E31AB2687318E31C7268731F401E6
:100FB80082308E31AB2608002000D2005208F7009C
:100FC8007708D3000130F5020030F63B750A0319A3
:100FD800760A031908007308F7005308860087018A
:100FE800770881000130F7007708D307E62F7830BB
:080FF800210099009A01080094
:101CDC0082302200970008002400940130309500D7
:101CEC0092010800FE0012001E00FE0B792E00343B
:101CFC00640080010131890B7F2E003401302100FA
:101D0C009D00E3309E009B019C010800F300240021
:101D1C00951373089100141C912E110808000134BE
:101D2C004034143402340434073416340034003490
:101D3C000034483023009F0080309D0026309E00E8
:101D4C00A0309B0001309C000800F50022008C1292
:101D5C0075088E318C268E3174088E318C262200BB
:101D6C008C16080021001508C0391738950064300E
:101D7C00200095006430F3007308EE000B118B16F5
:101D8C00080000308E31D7268E31F7007708F90025
:101D9C00F9147908F7007708F40080308E31AB26FF
:101DAC000800F50022008C1275088E318C268E31BD
:101DBC00FF308E318C26F4007408F60022008C164D
:101DCC0076080800F600F501761CF02E7308F40076
:101DDC007408F5070310F30D0310F60C7608031DB9
:101DEC00EA2E750808000130F00070082000BD07CD
:101DFC0004303D060319062F09303D02031C072F42
:101E0C00BD010130F0007008BA070800F7000F3070
:101E1C0077052000D2000A30D3005308F30077086E
:101E2C00D4000430D436890B182F54088E31E82690
:101E3C002000520708008731FB278F31873160273C
:101E4C008F318E3172268F318E319F268F318E31AC
:101E5C0084268F318E31B8268F318E316E26080054
:101E6C002000D30022000E1004302000D2005208B3
:101E7C00F30080308731A2278F3108302000D20048
:101E8C005208F30053088731A22722000E140800D1
:101E9C002000D90022008C12200059088E318C268B
:101EAC008F3120005608D7005708F4005508D80089
:101EBC005808F500003084315E2422008C1608008E
:101ECC000B1120006E0895000130F1007108F80725
:101EDC000130B6070030B73D0030370264300319CB
:101EEC003602031C08008E31F9262000B601B7011A
:101EFC00080022008D140D30F300F30B832F220009
:101F0C000D140D30F300F30B892F22008D100D30C2
:101F1C00F300F30B8F2F22000D100D30F300F30B99
:101F2C00952F080022000D100D30F300F30B9C2FA1
:101F3C0022008D100D30F300F30BA22F22000D1494
:101F4C000D30F300F30BA82F22008D140D30F3008D
:101F5C00F30BAE2F0800F6007608F500F50DF50D25
:101F6C0021001D087506833975069D001D14063069
:101F7C00F500F50BBF2F000021009D149D18C42FF8
:101F8C001C08F4001B08F30008002000D2000030ED
:101F9C008E31D7268F31F7007708F9003F30F700E4
:101FAC007708F90520005208F7007708F90479083A
:101FBC00F7007708F40080308E31AB260800A03093
:101FCC0086000030870059308400003085000A30CC
:101FDC002000D70016001A00D70BF02F5930D7006D
:101FEC005708F6000730D8005808F7000030853144
:101FFC0088250800D7345034B534F1347234E334C6
:10200C00E7345134F734F3347734E6348734F4342A
:0E201C00A734273457342034203420342034A5
:020000040001F9
:04000E00E4FFFFDF2D
:00000001FF
